{
	"contracts/Mindpay.sol": {
		"Mindpay": {
			"abi": [
				{
					"inputs": [
						{
							"internalType": "string",
							"name": "_name",
							"type": "string"
						},
						{
							"internalType": "string",
							"name": "_symbol",
							"type": "string"
						}
					],
					"stateMutability": "nonpayable",
					"type": "constructor"
				},
				{
					"anonymous": false,
					"inputs": [
						{
							"indexed": true,
							"internalType": "address",
							"name": "owner",
							"type": "address"
						},
						{
							"indexed": true,
							"internalType": "address",
							"name": "spender",
							"type": "address"
						},
						{
							"indexed": false,
							"internalType": "uint256",
							"name": "value",
							"type": "uint256"
						}
					],
					"name": "Approval",
					"type": "event"
				},
				{
					"anonymous": false,
					"inputs": [
						{
							"indexed": true,
							"internalType": "address",
							"name": "from",
							"type": "address"
						},
						{
							"indexed": true,
							"internalType": "address",
							"name": "to",
							"type": "address"
						},
						{
							"indexed": false,
							"internalType": "uint256",
							"name": "value",
							"type": "uint256"
						}
					],
					"name": "Transfer",
					"type": "event"
				},
				{
					"inputs": [
						{
							"internalType": "address",
							"name": "owner",
							"type": "address"
						},
						{
							"internalType": "address",
							"name": "spender",
							"type": "address"
						}
					],
					"name": "allowance",
					"outputs": [
						{
							"internalType": "uint256",
							"name": "",
							"type": "uint256"
						}
					],
					"stateMutability": "view",
					"type": "function"
				},
				{
					"inputs": [
						{
							"internalType": "address",
							"name": "spender",
							"type": "address"
						},
						{
							"internalType": "uint256",
							"name": "amount",
							"type": "uint256"
						}
					],
					"name": "approve",
					"outputs": [
						{
							"internalType": "bool",
							"name": "",
							"type": "bool"
						}
					],
					"stateMutability": "nonpayable",
					"type": "function"
				},
				{
					"inputs": [
						{
							"internalType": "address",
							"name": "account",
							"type": "address"
						}
					],
					"name": "balanceOf",
					"outputs": [
						{
							"internalType": "uint256",
							"name": "",
							"type": "uint256"
						}
					],
					"stateMutability": "view",
					"type": "function"
				},
				{
					"inputs": [],
					"name": "decimals",
					"outputs": [
						{
							"internalType": "uint8",
							"name": "",
							"type": "uint8"
						}
					],
					"stateMutability": "view",
					"type": "function"
				},
				{
					"inputs": [
						{
							"internalType": "address",
							"name": "spender",
							"type": "address"
						},
						{
							"internalType": "uint256",
							"name": "subtractedValue",
							"type": "uint256"
						}
					],
					"name": "decreaseAllowance",
					"outputs": [
						{
							"internalType": "bool",
							"name": "",
							"type": "bool"
						}
					],
					"stateMutability": "nonpayable",
					"type": "function"
				},
				{
					"inputs": [
						{
							"internalType": "address",
							"name": "spender",
							"type": "address"
						},
						{
							"internalType": "uint256",
							"name": "addedValue",
							"type": "uint256"
						}
					],
					"name": "increaseAllowance",
					"outputs": [
						{
							"internalType": "bool",
							"name": "",
							"type": "bool"
						}
					],
					"stateMutability": "nonpayable",
					"type": "function"
				},
				{
					"inputs": [
						{
							"internalType": "uint256",
							"name": "_amount",
							"type": "uint256"
						}
					],
					"name": "mintToken",
					"outputs": [],
					"stateMutability": "nonpayable",
					"type": "function"
				},
				{
					"inputs": [],
					"name": "name",
					"outputs": [
						{
							"internalType": "string",
							"name": "",
							"type": "string"
						}
					],
					"stateMutability": "view",
					"type": "function"
				},
				{
					"inputs": [],
					"name": "owner",
					"outputs": [
						{
							"internalType": "address",
							"name": "",
							"type": "address"
						}
					],
					"stateMutability": "view",
					"type": "function"
				},
				{
					"inputs": [],
					"name": "symbol",
					"outputs": [
						{
							"internalType": "string",
							"name": "",
							"type": "string"
						}
					],
					"stateMutability": "view",
					"type": "function"
				},
				{
					"inputs": [],
					"name": "totalSupply",
					"outputs": [
						{
							"internalType": "uint256",
							"name": "",
							"type": "uint256"
						}
					],
					"stateMutability": "view",
					"type": "function"
				},
				{
					"inputs": [
						{
							"internalType": "address",
							"name": "to",
							"type": "address"
						},
						{
							"internalType": "uint256",
							"name": "amount",
							"type": "uint256"
						}
					],
					"name": "transfer",
					"outputs": [
						{
							"internalType": "bool",
							"name": "",
							"type": "bool"
						}
					],
					"stateMutability": "nonpayable",
					"type": "function"
				},
				{
					"inputs": [
						{
							"internalType": "address",
							"name": "from",
							"type": "address"
						},
						{
							"internalType": "address",
							"name": "to",
							"type": "address"
						},
						{
							"internalType": "uint256",
							"name": "amount",
							"type": "uint256"
						}
					],
					"name": "transferFrom",
					"outputs": [
						{
							"internalType": "bool",
							"name": "",
							"type": "bool"
						}
					],
					"stateMutability": "nonpayable",
					"type": "function"
				}
			],
			"devdoc": {
				"kind": "dev",
				"methods": {
					"allowance(address,address)": {
						"details": "See {IERC20-allowance}."
					},
					"approve(address,uint256)": {
						"details": "See {IERC20-approve}. NOTE: If `amount` is the maximum `uint256`, the allowance is not updated on `transferFrom`. This is semantically equivalent to an infinite approval. Requirements: - `spender` cannot be the zero address."
					},
					"balanceOf(address)": {
						"details": "See {IERC20-balanceOf}."
					},
					"decimals()": {
						"details": "Returns the number of decimals used to get its user representation. For example, if `decimals` equals `2`, a balance of `505` tokens should be displayed to a user as `5.05` (`505 / 10 ** 2`). Tokens usually opt for a value of 18, imitating the relationship between Ether and Wei. This is the value {ERC20} uses, unless this function is overridden; NOTE: This information is only used for _display_ purposes: it in no way affects any of the arithmetic of the contract, including {IERC20-balanceOf} and {IERC20-transfer}."
					},
					"decreaseAllowance(address,uint256)": {
						"details": "Atomically decreases the allowance granted to `spender` by the caller. This is an alternative to {approve} that can be used as a mitigation for problems described in {IERC20-approve}. Emits an {Approval} event indicating the updated allowance. Requirements: - `spender` cannot be the zero address. - `spender` must have allowance for the caller of at least `subtractedValue`."
					},
					"increaseAllowance(address,uint256)": {
						"details": "Atomically increases the allowance granted to `spender` by the caller. This is an alternative to {approve} that can be used as a mitigation for problems described in {IERC20-approve}. Emits an {Approval} event indicating the updated allowance. Requirements: - `spender` cannot be the zero address."
					},
					"name()": {
						"details": "Returns the name of the token."
					},
					"symbol()": {
						"details": "Returns the symbol of the token, usually a shorter version of the name."
					},
					"totalSupply()": {
						"details": "See {IERC20-totalSupply}."
					},
					"transfer(address,uint256)": {
						"details": "See {IERC20-transfer}. Requirements: - `to` cannot be the zero address. - the caller must have a balance of at least `amount`."
					},
					"transferFrom(address,address,uint256)": {
						"details": "See {IERC20-transferFrom}. Emits an {Approval} event indicating the updated allowance. This is not required by the EIP. See the note at the beginning of {ERC20}. NOTE: Does not update the allowance if the current allowance is the maximum `uint256`. Requirements: - `from` and `to` cannot be the zero address. - `from` must have a balance of at least `amount`. - the caller must have allowance for ``from``'s tokens of at least `amount`."
					}
				},
				"version": 1
			},
			"evm": {
				"assembly": "    /* \"contracts/Mindpay.sol\":176:584  contract Mindpay is ERC20, ReentrancyGuard {... */\n  mstore(0x40, 0x80)\n    /* \"contracts/Mindpay.sol\":252:365  constructor(string memory _name, string memory _symbol) ERC20(_name, _symbol) {... */\n  callvalue\n  dup1\n  iszero\n  tag_1\n  jumpi\n  0x00\n  dup1\n  revert\ntag_1:\n  pop\n  mload(0x40)\n  sub(codesize, bytecodeSize)\n  dup1\n  bytecodeSize\n  dup4\n  codecopy\n  dup2\n  dup2\n  add\n  0x40\n  mstore\n  dup2\n  add\n  swap1\n  tag_2\n  swap2\n  swap1\n  tag_3\n  jump\t// in\ntag_2:\n    /* \"contracts/Mindpay.sol\":314:319  _name */\n  dup2\n    /* \"contracts/Mindpay.sol\":321:328  _symbol */\n  dup2\n    /* \"@openzeppelin/contracts/token/ERC20/ERC20.sol\":2052:2057  name_ */\n  dup2\n    /* \"@openzeppelin/contracts/token/ERC20/ERC20.sol\":2044:2049  _name */\n  0x03\n    /* \"@openzeppelin/contracts/token/ERC20/ERC20.sol\":2044:2057  _name = name_ */\n  swap1\n  dup1\n  mload\n  swap1\n  0x20\n  add\n  swap1\n  tag_8\n  swap3\n  swap2\n  swap1\n  tag_9\n  jump\t// in\ntag_8:\n  pop\n    /* \"@openzeppelin/contracts/token/ERC20/ERC20.sol\":2077:2084  symbol_ */\n  dup1\n    /* \"@openzeppelin/contracts/token/ERC20/ERC20.sol\":2067:2074  _symbol */\n  0x04\n    /* \"@openzeppelin/contracts/token/ERC20/ERC20.sol\":2067:2084  _symbol = symbol_ */\n  swap1\n  dup1\n  mload\n  swap1\n  0x20\n  add\n  swap1\n  tag_10\n  swap3\n  swap2\n  swap1\n  tag_9\n  jump\t// in\ntag_10:\n  pop\n    /* \"@openzeppelin/contracts/token/ERC20/ERC20.sol\":1978:2091  constructor(string memory name_, string memory symbol_) {... */\n  pop\n  pop\n    /* \"@openzeppelin/contracts/security/ReentrancyGuard.sol\":1701:1702  1 */\n  0x01\n    /* \"@openzeppelin/contracts/security/ReentrancyGuard.sol\":1806:1813  _status */\n  0x05\n    /* \"@openzeppelin/contracts/security/ReentrancyGuard.sol\":1806:1828  _status = _NOT_ENTERED */\n  dup2\n  swap1\n  sstore\n  pop\n    /* \"contracts/Mindpay.sol\":348:358  msg.sender */\n  caller\n    /* \"contracts/Mindpay.sol\":340:345  owner */\n  0x06\n  0x00\n    /* \"contracts/Mindpay.sol\":340:358  owner = msg.sender */\n  0x0100\n  exp\n  dup2\n  sload\n  dup2\n  0xffffffffffffffffffffffffffffffffffffffff\n  mul\n  not\n  and\n  swap1\n  dup4\n  0xffffffffffffffffffffffffffffffffffffffff\n  and\n  mul\n  or\n  swap1\n  sstore\n  pop\n    /* \"contracts/Mindpay.sol\":252:365  constructor(string memory _name, string memory _symbol) ERC20(_name, _symbol) {... */\n  pop\n  pop\n    /* \"contracts/Mindpay.sol\":176:584  contract Mindpay is ERC20, ReentrancyGuard {... */\n  jump(tag_13)\ntag_9:\n  dup3\n  dup1\n  sload\n  tag_14\n  swap1\n  tag_15\n  jump\t// in\ntag_14:\n  swap1\n  0x00\n  mstore\n  keccak256(0x00, 0x20)\n  swap1\n  0x1f\n  add\n  0x20\n  swap1\n  div\n  dup2\n  add\n  swap3\n  dup3\n  tag_17\n  jumpi\n  0x00\n  dup6\n  sstore\n  jump(tag_16)\ntag_17:\n  dup3\n  0x1f\n  lt\n  tag_18\n  jumpi\n  dup1\n  mload\n  not(0xff)\n  and\n  dup4\n  dup1\n  add\n  or\n  dup6\n  sstore\n  jump(tag_16)\ntag_18:\n  dup3\n  dup1\n  add\n  0x01\n  add\n  dup6\n  sstore\n  dup3\n  iszero\n  tag_16\n  jumpi\n  swap2\n  dup3\n  add\ntag_19:\n  dup3\n  dup2\n  gt\n  iszero\n  tag_20\n  jumpi\n  dup3\n  mload\n  dup3\n  sstore\n  swap2\n  0x20\n  add\n  swap2\n  swap1\n  0x01\n  add\n  swap1\n  jump(tag_19)\ntag_20:\ntag_16:\n  pop\n  swap1\n  pop\n  tag_21\n  swap2\n  swap1\n  tag_22\n  jump\t// in\ntag_21:\n  pop\n  swap1\n  jump\t// out\ntag_22:\ntag_23:\n  dup1\n  dup3\n  gt\n  iszero\n  tag_24\n  jumpi\n  0x00\n  dup2\n  0x00\n  swap1\n  sstore\n  pop\n  0x01\n  add\n  jump(tag_23)\ntag_24:\n  pop\n  swap1\n  jump\t// out\n    /* \"#utility.yul\":7:82   */\ntag_25:\n    /* \"#utility.yul\":40:46   */\n  0x00\n    /* \"#utility.yul\":73:75   */\n  0x40\n    /* \"#utility.yul\":67:76   */\n  mload\n    /* \"#utility.yul\":57:76   */\n  swap1\n  pop\n    /* \"#utility.yul\":7:82   */\n  swap1\n  jump\t// out\n    /* \"#utility.yul\":88:205   */\ntag_26:\n    /* \"#utility.yul\":197:198   */\n  0x00\n    /* \"#utility.yul\":194:195   */\n  dup1\n    /* \"#utility.yul\":187:199   */\n  revert\n    /* \"#utility.yul\":211:328   */\ntag_27:\n    /* \"#utility.yul\":320:321   */\n  0x00\n    /* \"#utility.yul\":317:318   */\n  dup1\n    /* \"#utility.yul\":310:322   */\n  revert\n    /* \"#utility.yul\":334:451   */\ntag_28:\n    /* \"#utility.yul\":443:444   */\n  0x00\n    /* \"#utility.yul\":440:441   */\n  dup1\n    /* \"#utility.yul\":433:445   */\n  revert\n    /* \"#utility.yul\":457:574   */\ntag_29:\n    /* \"#utility.yul\":566:567   */\n  0x00\n    /* \"#utility.yul\":563:564   */\n  dup1\n    /* \"#utility.yul\":556:568   */\n  revert\n    /* \"#utility.yul\":580:682   */\ntag_30:\n    /* \"#utility.yul\":621:627   */\n  0x00\n    /* \"#utility.yul\":672:674   */\n  0x1f\n    /* \"#utility.yul\":668:675   */\n  not\n    /* \"#utility.yul\":663:665   */\n  0x1f\n    /* \"#utility.yul\":656:661   */\n  dup4\n    /* \"#utility.yul\":652:666   */\n  add\n    /* \"#utility.yul\":648:676   */\n  and\n    /* \"#utility.yul\":638:676   */\n  swap1\n  pop\n    /* \"#utility.yul\":580:682   */\n  swap2\n  swap1\n  pop\n  jump\t// out\n    /* \"#utility.yul\":688:868   */\ntag_31:\n    /* \"#utility.yul\":736:813   */\n  0x4e487b7100000000000000000000000000000000000000000000000000000000\n    /* \"#utility.yul\":733:734   */\n  0x00\n    /* \"#utility.yul\":726:814   */\n  mstore\n    /* \"#utility.yul\":833:837   */\n  0x41\n    /* \"#utility.yul\":830:831   */\n  0x04\n    /* \"#utility.yul\":823:838   */\n  mstore\n    /* \"#utility.yul\":857:861   */\n  0x24\n    /* \"#utility.yul\":854:855   */\n  0x00\n    /* \"#utility.yul\":847:862   */\n  revert\n    /* \"#utility.yul\":874:1155   */\ntag_32:\n    /* \"#utility.yul\":957:984   */\n  tag_48\n    /* \"#utility.yul\":979:983   */\n  dup3\n    /* \"#utility.yul\":957:984   */\n  tag_30\n  jump\t// in\ntag_48:\n    /* \"#utility.yul\":949:955   */\n  dup2\n    /* \"#utility.yul\":945:985   */\n  add\n    /* \"#utility.yul\":1087:1093   */\n  dup2\n    /* \"#utility.yul\":1075:1085   */\n  dup2\n    /* \"#utility.yul\":1072:1094   */\n  lt\n    /* \"#utility.yul\":1051:1069   */\n  0xffffffffffffffff\n    /* \"#utility.yul\":1039:1049   */\n  dup3\n    /* \"#utility.yul\":1036:1070   */\n  gt\n    /* \"#utility.yul\":1033:1095   */\n  or\n    /* \"#utility.yul\":1030:1118   */\n  iszero\n  tag_49\n  jumpi\n    /* \"#utility.yul\":1098:1116   */\n  tag_50\n  tag_31\n  jump\t// in\ntag_50:\n    /* \"#utility.yul\":1030:1118   */\ntag_49:\n    /* \"#utility.yul\":1138:1148   */\n  dup1\n    /* \"#utility.yul\":1134:1136   */\n  0x40\n    /* \"#utility.yul\":1127:1149   */\n  mstore\n    /* \"#utility.yul\":917:1155   */\n  pop\n    /* \"#utility.yul\":874:1155   */\n  pop\n  pop\n  jump\t// out\n    /* \"#utility.yul\":1161:1290   */\ntag_33:\n    /* \"#utility.yul\":1195:1201   */\n  0x00\n    /* \"#utility.yul\":1222:1242   */\n  tag_52\n  tag_25\n  jump\t// in\ntag_52:\n    /* \"#utility.yul\":1212:1242   */\n  swap1\n  pop\n    /* \"#utility.yul\":1251:1284   */\n  tag_53\n    /* \"#utility.yul\":1279:1283   */\n  dup3\n    /* \"#utility.yul\":1271:1277   */\n  dup3\n    /* \"#utility.yul\":1251:1284   */\n  tag_32\n  jump\t// in\ntag_53:\n    /* \"#utility.yul\":1161:1290   */\n  swap2\n  swap1\n  pop\n  jump\t// out\n    /* \"#utility.yul\":1296:1604   */\ntag_34:\n    /* \"#utility.yul\":1358:1362   */\n  0x00\n    /* \"#utility.yul\":1448:1466   */\n  0xffffffffffffffff\n    /* \"#utility.yul\":1440:1446   */\n  dup3\n    /* \"#utility.yul\":1437:1467   */\n  gt\n    /* \"#utility.yul\":1434:1490   */\n  iszero\n  tag_55\n  jumpi\n    /* \"#utility.yul\":1470:1488   */\n  tag_56\n  tag_31\n  jump\t// in\ntag_56:\n    /* \"#utility.yul\":1434:1490   */\ntag_55:\n    /* \"#utility.yul\":1508:1537   */\n  tag_57\n    /* \"#utility.yul\":1530:1536   */\n  dup3\n    /* \"#utility.yul\":1508:1537   */\n  tag_30\n  jump\t// in\ntag_57:\n    /* \"#utility.yul\":1500:1537   */\n  swap1\n  pop\n    /* \"#utility.yul\":1592:1596   */\n  0x20\n    /* \"#utility.yul\":1586:1590   */\n  dup2\n    /* \"#utility.yul\":1582:1597   */\n  add\n    /* \"#utility.yul\":1574:1597   */\n  swap1\n  pop\n    /* \"#utility.yul\":1296:1604   */\n  swap2\n  swap1\n  pop\n  jump\t// out\n    /* \"#utility.yul\":1610:1917   */\ntag_35:\n    /* \"#utility.yul\":1678:1679   */\n  0x00\n    /* \"#utility.yul\":1688:1801   */\ntag_59:\n    /* \"#utility.yul\":1702:1708   */\n  dup4\n    /* \"#utility.yul\":1699:1700   */\n  dup2\n    /* \"#utility.yul\":1696:1709   */\n  lt\n    /* \"#utility.yul\":1688:1801   */\n  iszero\n  tag_61\n  jumpi\n    /* \"#utility.yul\":1787:1788   */\n  dup1\n    /* \"#utility.yul\":1782:1785   */\n  dup3\n    /* \"#utility.yul\":1778:1789   */\n  add\n    /* \"#utility.yul\":1772:1790   */\n  mload\n    /* \"#utility.yul\":1768:1769   */\n  dup2\n    /* \"#utility.yul\":1763:1766   */\n  dup5\n    /* \"#utility.yul\":1759:1770   */\n  add\n    /* \"#utility.yul\":1752:1791   */\n  mstore\n    /* \"#utility.yul\":1724:1726   */\n  0x20\n    /* \"#utility.yul\":1721:1722   */\n  dup2\n    /* \"#utility.yul\":1717:1727   */\n  add\n    /* \"#utility.yul\":1712:1727   */\n  swap1\n  pop\n    /* \"#utility.yul\":1688:1801   */\n  jump(tag_59)\ntag_61:\n    /* \"#utility.yul\":1819:1825   */\n  dup4\n    /* \"#utility.yul\":1816:1817   */\n  dup2\n    /* \"#utility.yul\":1813:1826   */\n  gt\n    /* \"#utility.yul\":1810:1911   */\n  iszero\n  tag_62\n  jumpi\n    /* \"#utility.yul\":1899:1900   */\n  0x00\n    /* \"#utility.yul\":1890:1896   */\n  dup5\n    /* \"#utility.yul\":1885:1888   */\n  dup5\n    /* \"#utility.yul\":1881:1897   */\n  add\n    /* \"#utility.yul\":1874:1901   */\n  mstore\n    /* \"#utility.yul\":1810:1911   */\ntag_62:\n    /* \"#utility.yul\":1659:1917   */\n  pop\n    /* \"#utility.yul\":1610:1917   */\n  pop\n  pop\n  pop\n  jump\t// out\n    /* \"#utility.yul\":1923:2344   */\ntag_36:\n    /* \"#utility.yul\":2012:2017   */\n  0x00\n    /* \"#utility.yul\":2037:2103   */\n  tag_64\n    /* \"#utility.yul\":2053:2102   */\n  tag_65\n    /* \"#utility.yul\":2095:2101   */\n  dup5\n    /* \"#utility.yul\":2053:2102   */\n  tag_34\n  jump\t// in\ntag_65:\n    /* \"#utility.yul\":2037:2103   */\n  tag_33\n  jump\t// in\ntag_64:\n    /* \"#utility.yul\":2028:2103   */\n  swap1\n  pop\n    /* \"#utility.yul\":2126:2132   */\n  dup3\n    /* \"#utility.yul\":2119:2124   */\n  dup2\n    /* \"#utility.yul\":2112:2133   */\n  mstore\n    /* \"#utility.yul\":2164:2168   */\n  0x20\n    /* \"#utility.yul\":2157:2162   */\n  dup2\n    /* \"#utility.yul\":2153:2169   */\n  add\n    /* \"#utility.yul\":2202:2205   */\n  dup5\n    /* \"#utility.yul\":2193:2199   */\n  dup5\n    /* \"#utility.yul\":2188:2191   */\n  dup5\n    /* \"#utility.yul\":2184:2200   */\n  add\n    /* \"#utility.yul\":2181:2206   */\n  gt\n    /* \"#utility.yul\":2178:2290   */\n  iszero\n  tag_66\n  jumpi\n    /* \"#utility.yul\":2209:2288   */\n  tag_67\n  tag_29\n  jump\t// in\ntag_67:\n    /* \"#utility.yul\":2178:2290   */\ntag_66:\n    /* \"#utility.yul\":2299:2338   */\n  tag_68\n    /* \"#utility.yul\":2331:2337   */\n  dup5\n    /* \"#utility.yul\":2326:2329   */\n  dup3\n    /* \"#utility.yul\":2321:2324   */\n  dup6\n    /* \"#utility.yul\":2299:2338   */\n  tag_35\n  jump\t// in\ntag_68:\n    /* \"#utility.yul\":2018:2344   */\n  pop\n    /* \"#utility.yul\":1923:2344   */\n  swap4\n  swap3\n  pop\n  pop\n  pop\n  jump\t// out\n    /* \"#utility.yul\":2364:2719   */\ntag_37:\n    /* \"#utility.yul\":2431:2436   */\n  0x00\n    /* \"#utility.yul\":2480:2483   */\n  dup3\n    /* \"#utility.yul\":2473:2477   */\n  0x1f\n    /* \"#utility.yul\":2465:2471   */\n  dup4\n    /* \"#utility.yul\":2461:2478   */\n  add\n    /* \"#utility.yul\":2457:2484   */\n  slt\n    /* \"#utility.yul\":2447:2569   */\n  tag_70\n  jumpi\n    /* \"#utility.yul\":2488:2567   */\n  tag_71\n  tag_28\n  jump\t// in\ntag_71:\n    /* \"#utility.yul\":2447:2569   */\ntag_70:\n    /* \"#utility.yul\":2598:2604   */\n  dup2\n    /* \"#utility.yul\":2592:2605   */\n  mload\n    /* \"#utility.yul\":2623:2713   */\n  tag_72\n    /* \"#utility.yul\":2709:2712   */\n  dup5\n    /* \"#utility.yul\":2701:2707   */\n  dup3\n    /* \"#utility.yul\":2694:2698   */\n  0x20\n    /* \"#utility.yul\":2686:2692   */\n  dup7\n    /* \"#utility.yul\":2682:2699   */\n  add\n    /* \"#utility.yul\":2623:2713   */\n  tag_36\n  jump\t// in\ntag_72:\n    /* \"#utility.yul\":2614:2713   */\n  swap2\n  pop\n    /* \"#utility.yul\":2437:2719   */\n  pop\n    /* \"#utility.yul\":2364:2719   */\n  swap3\n  swap2\n  pop\n  pop\n  jump\t// out\n    /* \"#utility.yul\":2725:3578   */\ntag_3:\n    /* \"#utility.yul\":2824:2830   */\n  0x00\n    /* \"#utility.yul\":2832:2838   */\n  dup1\n    /* \"#utility.yul\":2881:2883   */\n  0x40\n    /* \"#utility.yul\":2869:2878   */\n  dup4\n    /* \"#utility.yul\":2860:2867   */\n  dup6\n    /* \"#utility.yul\":2856:2879   */\n  sub\n    /* \"#utility.yul\":2852:2884   */\n  slt\n    /* \"#utility.yul\":2849:2968   */\n  iszero\n  tag_74\n  jumpi\n    /* \"#utility.yul\":2887:2966   */\n  tag_75\n  tag_26\n  jump\t// in\ntag_75:\n    /* \"#utility.yul\":2849:2968   */\ntag_74:\n    /* \"#utility.yul\":3028:3029   */\n  0x00\n    /* \"#utility.yul\":3017:3026   */\n  dup4\n    /* \"#utility.yul\":3013:3030   */\n  add\n    /* \"#utility.yul\":3007:3031   */\n  mload\n    /* \"#utility.yul\":3058:3076   */\n  0xffffffffffffffff\n    /* \"#utility.yul\":3050:3056   */\n  dup2\n    /* \"#utility.yul\":3047:3077   */\n  gt\n    /* \"#utility.yul\":3044:3161   */\n  iszero\n  tag_76\n  jumpi\n    /* \"#utility.yul\":3080:3159   */\n  tag_77\n  tag_27\n  jump\t// in\ntag_77:\n    /* \"#utility.yul\":3044:3161   */\ntag_76:\n    /* \"#utility.yul\":3185:3259   */\n  tag_78\n    /* \"#utility.yul\":3251:3258   */\n  dup6\n    /* \"#utility.yul\":3242:3248   */\n  dup3\n    /* \"#utility.yul\":3231:3240   */\n  dup7\n    /* \"#utility.yul\":3227:3249   */\n  add\n    /* \"#utility.yul\":3185:3259   */\n  tag_37\n  jump\t// in\ntag_78:\n    /* \"#utility.yul\":3175:3259   */\n  swap3\n  pop\n    /* \"#utility.yul\":2978:3269   */\n  pop\n    /* \"#utility.yul\":3329:3331   */\n  0x20\n    /* \"#utility.yul\":3318:3327   */\n  dup4\n    /* \"#utility.yul\":3314:3332   */\n  add\n    /* \"#utility.yul\":3308:3333   */\n  mload\n    /* \"#utility.yul\":3360:3378   */\n  0xffffffffffffffff\n    /* \"#utility.yul\":3352:3358   */\n  dup2\n    /* \"#utility.yul\":3349:3379   */\n  gt\n    /* \"#utility.yul\":3346:3463   */\n  iszero\n  tag_79\n  jumpi\n    /* \"#utility.yul\":3382:3461   */\n  tag_80\n  tag_27\n  jump\t// in\ntag_80:\n    /* \"#utility.yul\":3346:3463   */\ntag_79:\n    /* \"#utility.yul\":3487:3561   */\n  tag_81\n    /* \"#utility.yul\":3553:3560   */\n  dup6\n    /* \"#utility.yul\":3544:3550   */\n  dup3\n    /* \"#utility.yul\":3533:3542   */\n  dup7\n    /* \"#utility.yul\":3529:3551   */\n  add\n    /* \"#utility.yul\":3487:3561   */\n  tag_37\n  jump\t// in\ntag_81:\n    /* \"#utility.yul\":3477:3561   */\n  swap2\n  pop\n    /* \"#utility.yul\":3279:3571   */\n  pop\n    /* \"#utility.yul\":2725:3578   */\n  swap3\n  pop\n  swap3\n  swap1\n  pop\n  jump\t// out\n    /* \"#utility.yul\":3584:3764   */\ntag_38:\n    /* \"#utility.yul\":3632:3709   */\n  0x4e487b7100000000000000000000000000000000000000000000000000000000\n    /* \"#utility.yul\":3629:3630   */\n  0x00\n    /* \"#utility.yul\":3622:3710   */\n  mstore\n    /* \"#utility.yul\":3729:3733   */\n  0x22\n    /* \"#utility.yul\":3726:3727   */\n  0x04\n    /* \"#utility.yul\":3719:3734   */\n  mstore\n    /* \"#utility.yul\":3753:3757   */\n  0x24\n    /* \"#utility.yul\":3750:3751   */\n  0x00\n    /* \"#utility.yul\":3743:3758   */\n  revert\n    /* \"#utility.yul\":3770:4090   */\ntag_15:\n    /* \"#utility.yul\":3814:3820   */\n  0x00\n    /* \"#utility.yul\":3851:3852   */\n  0x02\n    /* \"#utility.yul\":3845:3849   */\n  dup3\n    /* \"#utility.yul\":3841:3853   */\n  div\n    /* \"#utility.yul\":3831:3853   */\n  swap1\n  pop\n    /* \"#utility.yul\":3898:3899   */\n  0x01\n    /* \"#utility.yul\":3892:3896   */\n  dup3\n    /* \"#utility.yul\":3888:3900   */\n  and\n    /* \"#utility.yul\":3919:3937   */\n  dup1\n    /* \"#utility.yul\":3909:3990   */\n  tag_84\n  jumpi\n    /* \"#utility.yul\":3975:3979   */\n  0x7f\n    /* \"#utility.yul\":3967:3973   */\n  dup3\n    /* \"#utility.yul\":3963:3980   */\n  and\n    /* \"#utility.yul\":3953:3980   */\n  swap2\n  pop\n    /* \"#utility.yul\":3909:3990   */\ntag_84:\n    /* \"#utility.yul\":4037:4039   */\n  0x20\n    /* \"#utility.yul\":4029:4035   */\n  dup3\n    /* \"#utility.yul\":4026:4040   */\n  lt\n    /* \"#utility.yul\":4006:4024   */\n  dup2\n    /* \"#utility.yul\":4003:4041   */\n  eq\n    /* \"#utility.yul\":4000:4084   */\n  iszero\n  tag_85\n  jumpi\n    /* \"#utility.yul\":4056:4074   */\n  tag_86\n  tag_38\n  jump\t// in\ntag_86:\n    /* \"#utility.yul\":4000:4084   */\ntag_85:\n    /* \"#utility.yul\":3821:4090   */\n  pop\n    /* \"#utility.yul\":3770:4090   */\n  swap2\n  swap1\n  pop\n  jump\t// out\n    /* \"contracts/Mindpay.sol\":176:584  contract Mindpay is ERC20, ReentrancyGuard {... */\ntag_13:\n  dataSize(sub_0)\n  dup1\n  dataOffset(sub_0)\n  0x00\n  codecopy\n  0x00\n  return\nstop\n\nsub_0: assembly {\n        /* \"contracts/Mindpay.sol\":176:584  contract Mindpay is ERC20, ReentrancyGuard {... */\n      mstore(0x40, 0x80)\n      callvalue\n      dup1\n      iszero\n      tag_1\n      jumpi\n      0x00\n      dup1\n      revert\n    tag_1:\n      pop\n      jumpi(tag_2, lt(calldatasize, 0x04))\n      shr(0xe0, calldataload(0x00))\n      dup1\n      0x70a08231\n      gt\n      tag_16\n      jumpi\n      dup1\n      0xa457c2d7\n      gt\n      tag_17\n      jumpi\n      dup1\n      0xa457c2d7\n      eq\n      tag_12\n      jumpi\n      dup1\n      0xa9059cbb\n      eq\n      tag_13\n      jumpi\n      dup1\n      0xc634d032\n      eq\n      tag_14\n      jumpi\n      dup1\n      0xdd62ed3e\n      eq\n      tag_15\n      jumpi\n      jump(tag_2)\n    tag_17:\n      dup1\n      0x70a08231\n      eq\n      tag_9\n      jumpi\n      dup1\n      0x8da5cb5b\n      eq\n      tag_10\n      jumpi\n      dup1\n      0x95d89b41\n      eq\n      tag_11\n      jumpi\n      jump(tag_2)\n    tag_16:\n      dup1\n      0x06fdde03\n      eq\n      tag_3\n      jumpi\n      dup1\n      0x095ea7b3\n      eq\n      tag_4\n      jumpi\n      dup1\n      0x18160ddd\n      eq\n      tag_5\n      jumpi\n      dup1\n      0x23b872dd\n      eq\n      tag_6\n      jumpi\n      dup1\n      0x313ce567\n      eq\n      tag_7\n      jumpi\n      dup1\n      0x39509351\n      eq\n      tag_8\n      jumpi\n    tag_2:\n      0x00\n      dup1\n      revert\n        /* \"@openzeppelin/contracts/token/ERC20/ERC20.sol\":2156:2254  function name() public view virtual override returns (string memory) {... */\n    tag_3:\n      tag_18\n      tag_19\n      jump\t// in\n    tag_18:\n      mload(0x40)\n      tag_20\n      swap2\n      swap1\n      tag_21\n      jump\t// in\n    tag_20:\n      mload(0x40)\n      dup1\n      swap2\n      sub\n      swap1\n      return\n        /* \"@openzeppelin/contracts/token/ERC20/ERC20.sol\":4433:4630  function approve(address spender, uint256 amount) public virtual override returns (bool) {... */\n    tag_4:\n      tag_22\n      0x04\n      dup1\n      calldatasize\n      sub\n      dup2\n      add\n      swap1\n      tag_23\n      swap2\n      swap1\n      tag_24\n      jump\t// in\n    tag_23:\n      tag_25\n      jump\t// in\n    tag_22:\n      mload(0x40)\n      tag_26\n      swap2\n      swap1\n      tag_27\n      jump\t// in\n    tag_26:\n      mload(0x40)\n      dup1\n      swap2\n      sub\n      swap1\n      return\n        /* \"@openzeppelin/contracts/token/ERC20/ERC20.sol\":3244:3350  function totalSupply() public view virtual override returns (uint256) {... */\n    tag_5:\n      tag_28\n      tag_29\n      jump\t// in\n    tag_28:\n      mload(0x40)\n      tag_30\n      swap2\n      swap1\n      tag_31\n      jump\t// in\n    tag_30:\n      mload(0x40)\n      dup1\n      swap2\n      sub\n      swap1\n      return\n        /* \"@openzeppelin/contracts/token/ERC20/ERC20.sol\":5192:5478  function transferFrom(... */\n    tag_6:\n      tag_32\n      0x04\n      dup1\n      calldatasize\n      sub\n      dup2\n      add\n      swap1\n      tag_33\n      swap2\n      swap1\n      tag_34\n      jump\t// in\n    tag_33:\n      tag_35\n      jump\t// in\n    tag_32:\n      mload(0x40)\n      tag_36\n      swap2\n      swap1\n      tag_27\n      jump\t// in\n    tag_36:\n      mload(0x40)\n      dup1\n      swap2\n      sub\n      swap1\n      return\n        /* \"@openzeppelin/contracts/token/ERC20/ERC20.sol\":3093:3184  function decimals() public view virtual override returns (uint8) {... */\n    tag_7:\n      tag_37\n      tag_38\n      jump\t// in\n    tag_37:\n      mload(0x40)\n      tag_39\n      swap2\n      swap1\n      tag_40\n      jump\t// in\n    tag_39:\n      mload(0x40)\n      dup1\n      swap2\n      sub\n      swap1\n      return\n        /* \"@openzeppelin/contracts/token/ERC20/ERC20.sol\":5873:6107  function increaseAllowance(address spender, uint256 addedValue) public virtual returns (bool) {... */\n    tag_8:\n      tag_41\n      0x04\n      dup1\n      calldatasize\n      sub\n      dup2\n      add\n      swap1\n      tag_42\n      swap2\n      swap1\n      tag_24\n      jump\t// in\n    tag_42:\n      tag_43\n      jump\t// in\n    tag_41:\n      mload(0x40)\n      tag_44\n      swap2\n      swap1\n      tag_27\n      jump\t// in\n    tag_44:\n      mload(0x40)\n      dup1\n      swap2\n      sub\n      swap1\n      return\n        /* \"@openzeppelin/contracts/token/ERC20/ERC20.sol\":3408:3533  function balanceOf(address account) public view virtual override returns (uint256) {... */\n    tag_9:\n      tag_45\n      0x04\n      dup1\n      calldatasize\n      sub\n      dup2\n      add\n      swap1\n      tag_46\n      swap2\n      swap1\n      tag_47\n      jump\t// in\n    tag_46:\n      tag_48\n      jump\t// in\n    tag_45:\n      mload(0x40)\n      tag_49\n      swap2\n      swap1\n      tag_31\n      jump\t// in\n    tag_49:\n      mload(0x40)\n      dup1\n      swap2\n      sub\n      swap1\n      return\n        /* \"contracts/Mindpay.sol\":225:245  address public owner */\n    tag_10:\n      tag_50\n      tag_51\n      jump\t// in\n    tag_50:\n      mload(0x40)\n      tag_52\n      swap2\n      swap1\n      tag_53\n      jump\t// in\n    tag_52:\n      mload(0x40)\n      dup1\n      swap2\n      sub\n      swap1\n      return\n        /* \"@openzeppelin/contracts/token/ERC20/ERC20.sol\":2367:2469  function symbol() public view virtual override returns (string memory) {... */\n    tag_11:\n      tag_54\n      tag_55\n      jump\t// in\n    tag_54:\n      mload(0x40)\n      tag_56\n      swap2\n      swap1\n      tag_21\n      jump\t// in\n    tag_56:\n      mload(0x40)\n      dup1\n      swap2\n      sub\n      swap1\n      return\n        /* \"@openzeppelin/contracts/token/ERC20/ERC20.sol\":6594:7021  function decreaseAllowance(address spender, uint256 subtractedValue) public virtual returns (bool) {... */\n    tag_12:\n      tag_57\n      0x04\n      dup1\n      calldatasize\n      sub\n      dup2\n      add\n      swap1\n      tag_58\n      swap2\n      swap1\n      tag_24\n      jump\t// in\n    tag_58:\n      tag_59\n      jump\t// in\n    tag_57:\n      mload(0x40)\n      tag_60\n      swap2\n      swap1\n      tag_27\n      jump\t// in\n    tag_60:\n      mload(0x40)\n      dup1\n      swap2\n      sub\n      swap1\n      return\n        /* \"@openzeppelin/contracts/token/ERC20/ERC20.sol\":3729:3918  function transfer(address to, uint256 amount) public virtual override returns (bool) {... */\n    tag_13:\n      tag_61\n      0x04\n      dup1\n      calldatasize\n      sub\n      dup2\n      add\n      swap1\n      tag_62\n      swap2\n      swap1\n      tag_24\n      jump\t// in\n    tag_62:\n      tag_63\n      jump\t// in\n    tag_61:\n      mload(0x40)\n      tag_64\n      swap2\n      swap1\n      tag_27\n      jump\t// in\n    tag_64:\n      mload(0x40)\n      dup1\n      swap2\n      sub\n      swap1\n      return\n        /* \"contracts/Mindpay.sol\":479:582  function mintToken(uint _amount) external nonReentrant onlyOwner {... */\n    tag_14:\n      tag_65\n      0x04\n      dup1\n      calldatasize\n      sub\n      dup2\n      add\n      swap1\n      tag_66\n      swap2\n      swap1\n      tag_67\n      jump\t// in\n    tag_66:\n      tag_68\n      jump\t// in\n    tag_65:\n      stop\n        /* \"@openzeppelin/contracts/token/ERC20/ERC20.sol\":3976:4125  function allowance(address owner, address spender) public view virtual override returns (uint256) {... */\n    tag_15:\n      tag_69\n      0x04\n      dup1\n      calldatasize\n      sub\n      dup2\n      add\n      swap1\n      tag_70\n      swap2\n      swap1\n      tag_71\n      jump\t// in\n    tag_70:\n      tag_72\n      jump\t// in\n    tag_69:\n      mload(0x40)\n      tag_73\n      swap2\n      swap1\n      tag_31\n      jump\t// in\n    tag_73:\n      mload(0x40)\n      dup1\n      swap2\n      sub\n      swap1\n      return\n        /* \"@openzeppelin/contracts/token/ERC20/ERC20.sol\":2156:2254  function name() public view virtual override returns (string memory) {... */\n    tag_19:\n        /* \"@openzeppelin/contracts/token/ERC20/ERC20.sol\":2210:2223  string memory */\n      0x60\n        /* \"@openzeppelin/contracts/token/ERC20/ERC20.sol\":2242:2247  _name */\n      0x03\n        /* \"@openzeppelin/contracts/token/ERC20/ERC20.sol\":2235:2247  return _name */\n      dup1\n      sload\n      tag_75\n      swap1\n      tag_76\n      jump\t// in\n    tag_75:\n      dup1\n      0x1f\n      add\n      0x20\n      dup1\n      swap2\n      div\n      mul\n      0x20\n      add\n      mload(0x40)\n      swap1\n      dup2\n      add\n      0x40\n      mstore\n      dup1\n      swap3\n      swap2\n      swap1\n      dup2\n      dup2\n      mstore\n      0x20\n      add\n      dup3\n      dup1\n      sload\n      tag_77\n      swap1\n      tag_76\n      jump\t// in\n    tag_77:\n      dup1\n      iszero\n      tag_78\n      jumpi\n      dup1\n      0x1f\n      lt\n      tag_79\n      jumpi\n      0x0100\n      dup1\n      dup4\n      sload\n      div\n      mul\n      dup4\n      mstore\n      swap2\n      0x20\n      add\n      swap2\n      jump(tag_78)\n    tag_79:\n      dup3\n      add\n      swap2\n      swap1\n      0x00\n      mstore\n      keccak256(0x00, 0x20)\n      swap1\n    tag_80:\n      dup2\n      sload\n      dup2\n      mstore\n      swap1\n      0x01\n      add\n      swap1\n      0x20\n      add\n      dup1\n      dup4\n      gt\n      tag_80\n      jumpi\n      dup3\n      swap1\n      sub\n      0x1f\n      and\n      dup3\n      add\n      swap2\n    tag_78:\n      pop\n      pop\n      pop\n      pop\n      pop\n      swap1\n      pop\n        /* \"@openzeppelin/contracts/token/ERC20/ERC20.sol\":2156:2254  function name() public view virtual override returns (string memory) {... */\n      swap1\n      jump\t// out\n        /* \"@openzeppelin/contracts/token/ERC20/ERC20.sol\":4433:4630  function approve(address spender, uint256 amount) public virtual override returns (bool) {... */\n    tag_25:\n        /* \"@openzeppelin/contracts/token/ERC20/ERC20.sol\":4516:4520  bool */\n      0x00\n        /* \"@openzeppelin/contracts/token/ERC20/ERC20.sol\":4532:4545  address owner */\n      dup1\n        /* \"@openzeppelin/contracts/token/ERC20/ERC20.sol\":4548:4560  _msgSender() */\n      tag_82\n        /* \"@openzeppelin/contracts/token/ERC20/ERC20.sol\":4548:4558  _msgSender */\n      tag_83\n        /* \"@openzeppelin/contracts/token/ERC20/ERC20.sol\":4548:4560  _msgSender() */\n      jump\t// in\n    tag_82:\n        /* \"@openzeppelin/contracts/token/ERC20/ERC20.sol\":4532:4560  address owner = _msgSender() */\n      swap1\n      pop\n        /* \"@openzeppelin/contracts/token/ERC20/ERC20.sol\":4570:4602  _approve(owner, spender, amount) */\n      tag_84\n        /* \"@openzeppelin/contracts/token/ERC20/ERC20.sol\":4579:4584  owner */\n      dup2\n        /* \"@openzeppelin/contracts/token/ERC20/ERC20.sol\":4586:4593  spender */\n      dup6\n        /* \"@openzeppelin/contracts/token/ERC20/ERC20.sol\":4595:4601  amount */\n      dup6\n        /* \"@openzeppelin/contracts/token/ERC20/ERC20.sol\":4570:4578  _approve */\n      tag_85\n        /* \"@openzeppelin/contracts/token/ERC20/ERC20.sol\":4570:4602  _approve(owner, spender, amount) */\n      jump\t// in\n    tag_84:\n        /* \"@openzeppelin/contracts/token/ERC20/ERC20.sol\":4619:4623  true */\n      0x01\n        /* \"@openzeppelin/contracts/token/ERC20/ERC20.sol\":4612:4623  return true */\n      swap2\n      pop\n      pop\n        /* \"@openzeppelin/contracts/token/ERC20/ERC20.sol\":4433:4630  function approve(address spender, uint256 amount) public virtual override returns (bool) {... */\n      swap3\n      swap2\n      pop\n      pop\n      jump\t// out\n        /* \"@openzeppelin/contracts/token/ERC20/ERC20.sol\":3244:3350  function totalSupply() public view virtual override returns (uint256) {... */\n    tag_29:\n        /* \"@openzeppelin/contracts/token/ERC20/ERC20.sol\":3305:3312  uint256 */\n      0x00\n        /* \"@openzeppelin/contracts/token/ERC20/ERC20.sol\":3331:3343  _totalSupply */\n      sload(0x02)\n        /* \"@openzeppelin/contracts/token/ERC20/ERC20.sol\":3324:3343  return _totalSupply */\n      swap1\n      pop\n        /* \"@openzeppelin/contracts/token/ERC20/ERC20.sol\":3244:3350  function totalSupply() public view virtual override returns (uint256) {... */\n      swap1\n      jump\t// out\n        /* \"@openzeppelin/contracts/token/ERC20/ERC20.sol\":5192:5478  function transferFrom(... */\n    tag_35:\n        /* \"@openzeppelin/contracts/token/ERC20/ERC20.sol\":5319:5323  bool */\n      0x00\n        /* \"@openzeppelin/contracts/token/ERC20/ERC20.sol\":5335:5350  address spender */\n      dup1\n        /* \"@openzeppelin/contracts/token/ERC20/ERC20.sol\":5353:5365  _msgSender() */\n      tag_88\n        /* \"@openzeppelin/contracts/token/ERC20/ERC20.sol\":5353:5363  _msgSender */\n      tag_83\n        /* \"@openzeppelin/contracts/token/ERC20/ERC20.sol\":5353:5365  _msgSender() */\n      jump\t// in\n    tag_88:\n        /* \"@openzeppelin/contracts/token/ERC20/ERC20.sol\":5335:5365  address spender = _msgSender() */\n      swap1\n      pop\n        /* \"@openzeppelin/contracts/token/ERC20/ERC20.sol\":5375:5413  _spendAllowance(from, spender, amount) */\n      tag_89\n        /* \"@openzeppelin/contracts/token/ERC20/ERC20.sol\":5391:5395  from */\n      dup6\n        /* \"@openzeppelin/contracts/token/ERC20/ERC20.sol\":5397:5404  spender */\n      dup3\n        /* \"@openzeppelin/contracts/token/ERC20/ERC20.sol\":5406:5412  amount */\n      dup6\n        /* \"@openzeppelin/contracts/token/ERC20/ERC20.sol\":5375:5390  _spendAllowance */\n      tag_90\n        /* \"@openzeppelin/contracts/token/ERC20/ERC20.sol\":5375:5413  _spendAllowance(from, spender, amount) */\n      jump\t// in\n    tag_89:\n        /* \"@openzeppelin/contracts/token/ERC20/ERC20.sol\":5423:5450  _transfer(from, to, amount) */\n      tag_91\n        /* \"@openzeppelin/contracts/token/ERC20/ERC20.sol\":5433:5437  from */\n      dup6\n        /* \"@openzeppelin/contracts/token/ERC20/ERC20.sol\":5439:5441  to */\n      dup6\n        /* \"@openzeppelin/contracts/token/ERC20/ERC20.sol\":5443:5449  amount */\n      dup6\n        /* \"@openzeppelin/contracts/token/ERC20/ERC20.sol\":5423:5432  _transfer */\n      tag_92\n        /* \"@openzeppelin/contracts/token/ERC20/ERC20.sol\":5423:5450  _transfer(from, to, amount) */\n      jump\t// in\n    tag_91:\n        /* \"@openzeppelin/contracts/token/ERC20/ERC20.sol\":5467:5471  true */\n      0x01\n        /* \"@openzeppelin/contracts/token/ERC20/ERC20.sol\":5460:5471  return true */\n      swap2\n      pop\n      pop\n        /* \"@openzeppelin/contracts/token/ERC20/ERC20.sol\":5192:5478  function transferFrom(... */\n      swap4\n      swap3\n      pop\n      pop\n      pop\n      jump\t// out\n        /* \"@openzeppelin/contracts/token/ERC20/ERC20.sol\":3093:3184  function decimals() public view virtual override returns (uint8) {... */\n    tag_38:\n        /* \"@openzeppelin/contracts/token/ERC20/ERC20.sol\":3151:3156  uint8 */\n      0x00\n        /* \"@openzeppelin/contracts/token/ERC20/ERC20.sol\":3175:3177  18 */\n      0x12\n        /* \"@openzeppelin/contracts/token/ERC20/ERC20.sol\":3168:3177  return 18 */\n      swap1\n      pop\n        /* \"@openzeppelin/contracts/token/ERC20/ERC20.sol\":3093:3184  function decimals() public view virtual override returns (uint8) {... */\n      swap1\n      jump\t// out\n        /* \"@openzeppelin/contracts/token/ERC20/ERC20.sol\":5873:6107  function increaseAllowance(address spender, uint256 addedValue) public virtual returns (bool) {... */\n    tag_43:\n        /* \"@openzeppelin/contracts/token/ERC20/ERC20.sol\":5961:5965  bool */\n      0x00\n        /* \"@openzeppelin/contracts/token/ERC20/ERC20.sol\":5977:5990  address owner */\n      dup1\n        /* \"@openzeppelin/contracts/token/ERC20/ERC20.sol\":5993:6005  _msgSender() */\n      tag_95\n        /* \"@openzeppelin/contracts/token/ERC20/ERC20.sol\":5993:6003  _msgSender */\n      tag_83\n        /* \"@openzeppelin/contracts/token/ERC20/ERC20.sol\":5993:6005  _msgSender() */\n      jump\t// in\n    tag_95:\n        /* \"@openzeppelin/contracts/token/ERC20/ERC20.sol\":5977:6005  address owner = _msgSender() */\n      swap1\n      pop\n        /* \"@openzeppelin/contracts/token/ERC20/ERC20.sol\":6015:6079  _approve(owner, spender, allowance(owner, spender) + addedValue) */\n      tag_96\n        /* \"@openzeppelin/contracts/token/ERC20/ERC20.sol\":6024:6029  owner */\n      dup2\n        /* \"@openzeppelin/contracts/token/ERC20/ERC20.sol\":6031:6038  spender */\n      dup6\n        /* \"@openzeppelin/contracts/token/ERC20/ERC20.sol\":6068:6078  addedValue */\n      dup6\n        /* \"@openzeppelin/contracts/token/ERC20/ERC20.sol\":6040:6065  allowance(owner, spender) */\n      tag_97\n        /* \"@openzeppelin/contracts/token/ERC20/ERC20.sol\":6050:6055  owner */\n      dup6\n        /* \"@openzeppelin/contracts/token/ERC20/ERC20.sol\":6057:6064  spender */\n      dup10\n        /* \"@openzeppelin/contracts/token/ERC20/ERC20.sol\":6040:6049  allowance */\n      tag_72\n        /* \"@openzeppelin/contracts/token/ERC20/ERC20.sol\":6040:6065  allowance(owner, spender) */\n      jump\t// in\n    tag_97:\n        /* \"@openzeppelin/contracts/token/ERC20/ERC20.sol\":6040:6078  allowance(owner, spender) + addedValue */\n      tag_98\n      swap2\n      swap1\n      tag_99\n      jump\t// in\n    tag_98:\n        /* \"@openzeppelin/contracts/token/ERC20/ERC20.sol\":6015:6023  _approve */\n      tag_85\n        /* \"@openzeppelin/contracts/token/ERC20/ERC20.sol\":6015:6079  _approve(owner, spender, allowance(owner, spender) + addedValue) */\n      jump\t// in\n    tag_96:\n        /* \"@openzeppelin/contracts/token/ERC20/ERC20.sol\":6096:6100  true */\n      0x01\n        /* \"@openzeppelin/contracts/token/ERC20/ERC20.sol\":6089:6100  return true */\n      swap2\n      pop\n      pop\n        /* \"@openzeppelin/contracts/token/ERC20/ERC20.sol\":5873:6107  function increaseAllowance(address spender, uint256 addedValue) public virtual returns (bool) {... */\n      swap3\n      swap2\n      pop\n      pop\n      jump\t// out\n        /* \"@openzeppelin/contracts/token/ERC20/ERC20.sol\":3408:3533  function balanceOf(address account) public view virtual override returns (uint256) {... */\n    tag_48:\n        /* \"@openzeppelin/contracts/token/ERC20/ERC20.sol\":3482:3489  uint256 */\n      0x00\n        /* \"@openzeppelin/contracts/token/ERC20/ERC20.sol\":3508:3517  _balances */\n      dup1\n        /* \"@openzeppelin/contracts/token/ERC20/ERC20.sol\":3508:3526  _balances[account] */\n      0x00\n        /* \"@openzeppelin/contracts/token/ERC20/ERC20.sol\":3518:3525  account */\n      dup4\n        /* \"@openzeppelin/contracts/token/ERC20/ERC20.sol\":3508:3526  _balances[account] */\n      0xffffffffffffffffffffffffffffffffffffffff\n      and\n      0xffffffffffffffffffffffffffffffffffffffff\n      and\n      dup2\n      mstore\n      0x20\n      add\n      swap1\n      dup2\n      mstore\n      0x20\n      add\n      0x00\n      keccak256\n      sload\n        /* \"@openzeppelin/contracts/token/ERC20/ERC20.sol\":3501:3526  return _balances[account] */\n      swap1\n      pop\n        /* \"@openzeppelin/contracts/token/ERC20/ERC20.sol\":3408:3533  function balanceOf(address account) public view virtual override returns (uint256) {... */\n      swap2\n      swap1\n      pop\n      jump\t// out\n        /* \"contracts/Mindpay.sol\":225:245  address public owner */\n    tag_51:\n      0x06\n      0x00\n      swap1\n      sload\n      swap1\n      0x0100\n      exp\n      swap1\n      div\n      0xffffffffffffffffffffffffffffffffffffffff\n      and\n      dup2\n      jump\t// out\n        /* \"@openzeppelin/contracts/token/ERC20/ERC20.sol\":2367:2469  function symbol() public view virtual override returns (string memory) {... */\n    tag_55:\n        /* \"@openzeppelin/contracts/token/ERC20/ERC20.sol\":2423:2436  string memory */\n      0x60\n        /* \"@openzeppelin/contracts/token/ERC20/ERC20.sol\":2455:2462  _symbol */\n      0x04\n        /* \"@openzeppelin/contracts/token/ERC20/ERC20.sol\":2448:2462  return _symbol */\n      dup1\n      sload\n      tag_102\n      swap1\n      tag_76\n      jump\t// in\n    tag_102:\n      dup1\n      0x1f\n      add\n      0x20\n      dup1\n      swap2\n      div\n      mul\n      0x20\n      add\n      mload(0x40)\n      swap1\n      dup2\n      add\n      0x40\n      mstore\n      dup1\n      swap3\n      swap2\n      swap1\n      dup2\n      dup2\n      mstore\n      0x20\n      add\n      dup3\n      dup1\n      sload\n      tag_103\n      swap1\n      tag_76\n      jump\t// in\n    tag_103:\n      dup1\n      iszero\n      tag_104\n      jumpi\n      dup1\n      0x1f\n      lt\n      tag_105\n      jumpi\n      0x0100\n      dup1\n      dup4\n      sload\n      div\n      mul\n      dup4\n      mstore\n      swap2\n      0x20\n      add\n      swap2\n      jump(tag_104)\n    tag_105:\n      dup3\n      add\n      swap2\n      swap1\n      0x00\n      mstore\n      keccak256(0x00, 0x20)\n      swap1\n    tag_106:\n      dup2\n      sload\n      dup2\n      mstore\n      swap1\n      0x01\n      add\n      swap1\n      0x20\n      add\n      dup1\n      dup4\n      gt\n      tag_106\n      jumpi\n      dup3\n      swap1\n      sub\n      0x1f\n      and\n      dup3\n      add\n      swap2\n    tag_104:\n      pop\n      pop\n      pop\n      pop\n      pop\n      swap1\n      pop\n        /* \"@openzeppelin/contracts/token/ERC20/ERC20.sol\":2367:2469  function symbol() public view virtual override returns (string memory) {... */\n      swap1\n      jump\t// out\n        /* \"@openzeppelin/contracts/token/ERC20/ERC20.sol\":6594:7021  function decreaseAllowance(address spender, uint256 subtractedValue) public virtual returns (bool) {... */\n    tag_59:\n        /* \"@openzeppelin/contracts/token/ERC20/ERC20.sol\":6687:6691  bool */\n      0x00\n        /* \"@openzeppelin/contracts/token/ERC20/ERC20.sol\":6703:6716  address owner */\n      dup1\n        /* \"@openzeppelin/contracts/token/ERC20/ERC20.sol\":6719:6731  _msgSender() */\n      tag_108\n        /* \"@openzeppelin/contracts/token/ERC20/ERC20.sol\":6719:6729  _msgSender */\n      tag_83\n        /* \"@openzeppelin/contracts/token/ERC20/ERC20.sol\":6719:6731  _msgSender() */\n      jump\t// in\n    tag_108:\n        /* \"@openzeppelin/contracts/token/ERC20/ERC20.sol\":6703:6731  address owner = _msgSender() */\n      swap1\n      pop\n        /* \"@openzeppelin/contracts/token/ERC20/ERC20.sol\":6741:6765  uint256 currentAllowance */\n      0x00\n        /* \"@openzeppelin/contracts/token/ERC20/ERC20.sol\":6768:6793  allowance(owner, spender) */\n      tag_109\n        /* \"@openzeppelin/contracts/token/ERC20/ERC20.sol\":6778:6783  owner */\n      dup3\n        /* \"@openzeppelin/contracts/token/ERC20/ERC20.sol\":6785:6792  spender */\n      dup7\n        /* \"@openzeppelin/contracts/token/ERC20/ERC20.sol\":6768:6777  allowance */\n      tag_72\n        /* \"@openzeppelin/contracts/token/ERC20/ERC20.sol\":6768:6793  allowance(owner, spender) */\n      jump\t// in\n    tag_109:\n        /* \"@openzeppelin/contracts/token/ERC20/ERC20.sol\":6741:6793  uint256 currentAllowance = allowance(owner, spender) */\n      swap1\n      pop\n        /* \"@openzeppelin/contracts/token/ERC20/ERC20.sol\":6831:6846  subtractedValue */\n      dup4\n        /* \"@openzeppelin/contracts/token/ERC20/ERC20.sol\":6811:6827  currentAllowance */\n      dup2\n        /* \"@openzeppelin/contracts/token/ERC20/ERC20.sol\":6811:6846  currentAllowance >= subtractedValue */\n      lt\n      iszero\n        /* \"@openzeppelin/contracts/token/ERC20/ERC20.sol\":6803:6888  require(currentAllowance >= subtractedValue, \"ERC20: decreased allowance below zero\") */\n      tag_110\n      jumpi\n      mload(0x40)\n      0x08c379a000000000000000000000000000000000000000000000000000000000\n      dup2\n      mstore\n      0x04\n      add\n      tag_111\n      swap1\n      tag_112\n      jump\t// in\n    tag_111:\n      mload(0x40)\n      dup1\n      swap2\n      sub\n      swap1\n      revert\n    tag_110:\n        /* \"@openzeppelin/contracts/token/ERC20/ERC20.sol\":6922:6982  _approve(owner, spender, currentAllowance - subtractedValue) */\n      tag_113\n        /* \"@openzeppelin/contracts/token/ERC20/ERC20.sol\":6931:6936  owner */\n      dup3\n        /* \"@openzeppelin/contracts/token/ERC20/ERC20.sol\":6938:6945  spender */\n      dup7\n        /* \"@openzeppelin/contracts/token/ERC20/ERC20.sol\":6966:6981  subtractedValue */\n      dup7\n        /* \"@openzeppelin/contracts/token/ERC20/ERC20.sol\":6947:6963  currentAllowance */\n      dup5\n        /* \"@openzeppelin/contracts/token/ERC20/ERC20.sol\":6947:6981  currentAllowance - subtractedValue */\n      sub\n        /* \"@openzeppelin/contracts/token/ERC20/ERC20.sol\":6922:6930  _approve */\n      tag_85\n        /* \"@openzeppelin/contracts/token/ERC20/ERC20.sol\":6922:6982  _approve(owner, spender, currentAllowance - subtractedValue) */\n      jump\t// in\n    tag_113:\n        /* \"@openzeppelin/contracts/token/ERC20/ERC20.sol\":7010:7014  true */\n      0x01\n        /* \"@openzeppelin/contracts/token/ERC20/ERC20.sol\":7003:7014  return true */\n      swap3\n      pop\n      pop\n      pop\n        /* \"@openzeppelin/contracts/token/ERC20/ERC20.sol\":6594:7021  function decreaseAllowance(address spender, uint256 subtractedValue) public virtual returns (bool) {... */\n      swap3\n      swap2\n      pop\n      pop\n      jump\t// out\n        /* \"@openzeppelin/contracts/token/ERC20/ERC20.sol\":3729:3918  function transfer(address to, uint256 amount) public virtual override returns (bool) {... */\n    tag_63:\n        /* \"@openzeppelin/contracts/token/ERC20/ERC20.sol\":3808:3812  bool */\n      0x00\n        /* \"@openzeppelin/contracts/token/ERC20/ERC20.sol\":3824:3837  address owner */\n      dup1\n        /* \"@openzeppelin/contracts/token/ERC20/ERC20.sol\":3840:3852  _msgSender() */\n      tag_115\n        /* \"@openzeppelin/contracts/token/ERC20/ERC20.sol\":3840:3850  _msgSender */\n      tag_83\n        /* \"@openzeppelin/contracts/token/ERC20/ERC20.sol\":3840:3852  _msgSender() */\n      jump\t// in\n    tag_115:\n        /* \"@openzeppelin/contracts/token/ERC20/ERC20.sol\":3824:3852  address owner = _msgSender() */\n      swap1\n      pop\n        /* \"@openzeppelin/contracts/token/ERC20/ERC20.sol\":3862:3890  _transfer(owner, to, amount) */\n      tag_116\n        /* \"@openzeppelin/contracts/token/ERC20/ERC20.sol\":3872:3877  owner */\n      dup2\n        /* \"@openzeppelin/contracts/token/ERC20/ERC20.sol\":3879:3881  to */\n      dup6\n        /* \"@openzeppelin/contracts/token/ERC20/ERC20.sol\":3883:3889  amount */\n      dup6\n        /* \"@openzeppelin/contracts/token/ERC20/ERC20.sol\":3862:3871  _transfer */\n      tag_92\n        /* \"@openzeppelin/contracts/token/ERC20/ERC20.sol\":3862:3890  _transfer(owner, to, amount) */\n      jump\t// in\n    tag_116:\n        /* \"@openzeppelin/contracts/token/ERC20/ERC20.sol\":3907:3911  true */\n      0x01\n        /* \"@openzeppelin/contracts/token/ERC20/ERC20.sol\":3900:3911  return true */\n      swap2\n      pop\n      pop\n        /* \"@openzeppelin/contracts/token/ERC20/ERC20.sol\":3729:3918  function transfer(address to, uint256 amount) public virtual override returns (bool) {... */\n      swap3\n      swap2\n      pop\n      pop\n      jump\t// out\n        /* \"contracts/Mindpay.sol\":479:582  function mintToken(uint _amount) external nonReentrant onlyOwner {... */\n    tag_68:\n        /* \"@openzeppelin/contracts/security/ReentrancyGuard.sol\":1744:1745  2 */\n      0x02\n        /* \"@openzeppelin/contracts/security/ReentrancyGuard.sol\":2325:2332  _status */\n      sload(0x05)\n        /* \"@openzeppelin/contracts/security/ReentrancyGuard.sol\":2325:2344  _status != _ENTERED */\n      eq\n      iszero\n        /* \"@openzeppelin/contracts/security/ReentrancyGuard.sol\":2317:2380  require(_status != _ENTERED, \"ReentrancyGuard: reentrant call\") */\n      tag_118\n      jumpi\n      mload(0x40)\n      0x08c379a000000000000000000000000000000000000000000000000000000000\n      dup2\n      mstore\n      0x04\n      add\n      tag_119\n      swap1\n      tag_120\n      jump\t// in\n    tag_119:\n      mload(0x40)\n      dup1\n      swap2\n      sub\n      swap1\n      revert\n    tag_118:\n        /* \"@openzeppelin/contracts/security/ReentrancyGuard.sol\":1744:1745  2 */\n      0x02\n        /* \"@openzeppelin/contracts/security/ReentrancyGuard.sol\":2455:2462  _status */\n      0x05\n        /* \"@openzeppelin/contracts/security/ReentrancyGuard.sol\":2455:2473  _status = _ENTERED */\n      dup2\n      swap1\n      sstore\n      pop\n        /* \"contracts/Mindpay.sol\":419:429  msg.sender */\n      caller\n        /* \"contracts/Mindpay.sol\":410:429  owner == msg.sender */\n      0xffffffffffffffffffffffffffffffffffffffff\n      and\n        /* \"contracts/Mindpay.sol\":410:415  owner */\n      0x06\n      0x00\n      swap1\n      sload\n      swap1\n      0x0100\n      exp\n      swap1\n      div\n      0xffffffffffffffffffffffffffffffffffffffff\n      and\n        /* \"contracts/Mindpay.sol\":410:429  owner == msg.sender */\n      0xffffffffffffffffffffffffffffffffffffffff\n      and\n      eq\n        /* \"contracts/Mindpay.sol\":402:455  require(owner == msg.sender, \"Only owner is allowed\") */\n      tag_122\n      jumpi\n      mload(0x40)\n      0x08c379a000000000000000000000000000000000000000000000000000000000\n      dup2\n      mstore\n      0x04\n      add\n      tag_123\n      swap1\n      tag_124\n      jump\t// in\n    tag_123:\n      mload(0x40)\n      dup1\n      swap2\n      sub\n      swap1\n      revert\n    tag_122:\n        /* \"contracts/Mindpay.sol\":554:575  _mint(owner, _amount) */\n      tag_126\n        /* \"contracts/Mindpay.sol\":560:565  owner */\n      0x06\n      0x00\n      swap1\n      sload\n      swap1\n      0x0100\n      exp\n      swap1\n      div\n      0xffffffffffffffffffffffffffffffffffffffff\n      and\n        /* \"contracts/Mindpay.sol\":567:574  _amount */\n      dup3\n        /* \"contracts/Mindpay.sol\":554:559  _mint */\n      tag_127\n        /* \"contracts/Mindpay.sol\":554:575  _mint(owner, _amount) */\n      jump\t// in\n    tag_126:\n        /* \"@openzeppelin/contracts/security/ReentrancyGuard.sol\":1701:1702  1 */\n      0x01\n        /* \"@openzeppelin/contracts/security/ReentrancyGuard.sol\":2628:2635  _status */\n      0x05\n        /* \"@openzeppelin/contracts/security/ReentrancyGuard.sol\":2628:2650  _status = _NOT_ENTERED */\n      dup2\n      swap1\n      sstore\n      pop\n        /* \"contracts/Mindpay.sol\":479:582  function mintToken(uint _amount) external nonReentrant onlyOwner {... */\n      pop\n      jump\t// out\n        /* \"@openzeppelin/contracts/token/ERC20/ERC20.sol\":3976:4125  function allowance(address owner, address spender) public view virtual override returns (uint256) {... */\n    tag_72:\n        /* \"@openzeppelin/contracts/token/ERC20/ERC20.sol\":4065:4072  uint256 */\n      0x00\n        /* \"@openzeppelin/contracts/token/ERC20/ERC20.sol\":4091:4102  _allowances */\n      0x01\n        /* \"@openzeppelin/contracts/token/ERC20/ERC20.sol\":4091:4109  _allowances[owner] */\n      0x00\n        /* \"@openzeppelin/contracts/token/ERC20/ERC20.sol\":4103:4108  owner */\n      dup5\n        /* \"@openzeppelin/contracts/token/ERC20/ERC20.sol\":4091:4109  _allowances[owner] */\n      0xffffffffffffffffffffffffffffffffffffffff\n      and\n      0xffffffffffffffffffffffffffffffffffffffff\n      and\n      dup2\n      mstore\n      0x20\n      add\n      swap1\n      dup2\n      mstore\n      0x20\n      add\n      0x00\n      keccak256\n        /* \"@openzeppelin/contracts/token/ERC20/ERC20.sol\":4091:4118  _allowances[owner][spender] */\n      0x00\n        /* \"@openzeppelin/contracts/token/ERC20/ERC20.sol\":4110:4117  spender */\n      dup4\n        /* \"@openzeppelin/contracts/token/ERC20/ERC20.sol\":4091:4118  _allowances[owner][spender] */\n      0xffffffffffffffffffffffffffffffffffffffff\n      and\n      0xffffffffffffffffffffffffffffffffffffffff\n      and\n      dup2\n      mstore\n      0x20\n      add\n      swap1\n      dup2\n      mstore\n      0x20\n      add\n      0x00\n      keccak256\n      sload\n        /* \"@openzeppelin/contracts/token/ERC20/ERC20.sol\":4084:4118  return _allowances[owner][spender] */\n      swap1\n      pop\n        /* \"@openzeppelin/contracts/token/ERC20/ERC20.sol\":3976:4125  function allowance(address owner, address spender) public view virtual override returns (uint256) {... */\n      swap3\n      swap2\n      pop\n      pop\n      jump\t// out\n        /* \"@openzeppelin/contracts/utils/Context.sol\":640:736  function _msgSender() internal view virtual returns (address) {... */\n    tag_83:\n        /* \"@openzeppelin/contracts/utils/Context.sol\":693:700  address */\n      0x00\n        /* \"@openzeppelin/contracts/utils/Context.sol\":719:729  msg.sender */\n      caller\n        /* \"@openzeppelin/contracts/utils/Context.sol\":712:729  return msg.sender */\n      swap1\n      pop\n        /* \"@openzeppelin/contracts/utils/Context.sol\":640:736  function _msgSender() internal view virtual returns (address) {... */\n      swap1\n      jump\t// out\n        /* \"@openzeppelin/contracts/token/ERC20/ERC20.sol\":10119:10489  function _approve(... */\n    tag_85:\n        /* \"@openzeppelin/contracts/token/ERC20/ERC20.sol\":10267:10268  0 */\n      0x00\n        /* \"@openzeppelin/contracts/token/ERC20/ERC20.sol\":10250:10269  owner != address(0) */\n      0xffffffffffffffffffffffffffffffffffffffff\n      and\n        /* \"@openzeppelin/contracts/token/ERC20/ERC20.sol\":10250:10255  owner */\n      dup4\n        /* \"@openzeppelin/contracts/token/ERC20/ERC20.sol\":10250:10269  owner != address(0) */\n      0xffffffffffffffffffffffffffffffffffffffff\n      and\n      eq\n      iszero\n        /* \"@openzeppelin/contracts/token/ERC20/ERC20.sol\":10242:10310  require(owner != address(0), \"ERC20: approve from the zero address\") */\n      tag_131\n      jumpi\n      mload(0x40)\n      0x08c379a000000000000000000000000000000000000000000000000000000000\n      dup2\n      mstore\n      0x04\n      add\n      tag_132\n      swap1\n      tag_133\n      jump\t// in\n    tag_132:\n      mload(0x40)\n      dup1\n      swap2\n      sub\n      swap1\n      revert\n    tag_131:\n        /* \"@openzeppelin/contracts/token/ERC20/ERC20.sol\":10347:10348  0 */\n      0x00\n        /* \"@openzeppelin/contracts/token/ERC20/ERC20.sol\":10328:10349  spender != address(0) */\n      0xffffffffffffffffffffffffffffffffffffffff\n      and\n        /* \"@openzeppelin/contracts/token/ERC20/ERC20.sol\":10328:10335  spender */\n      dup3\n        /* \"@openzeppelin/contracts/token/ERC20/ERC20.sol\":10328:10349  spender != address(0) */\n      0xffffffffffffffffffffffffffffffffffffffff\n      and\n      eq\n      iszero\n        /* \"@openzeppelin/contracts/token/ERC20/ERC20.sol\":10320:10388  require(spender != address(0), \"ERC20: approve to the zero address\") */\n      tag_134\n      jumpi\n      mload(0x40)\n      0x08c379a000000000000000000000000000000000000000000000000000000000\n      dup2\n      mstore\n      0x04\n      add\n      tag_135\n      swap1\n      tag_136\n      jump\t// in\n    tag_135:\n      mload(0x40)\n      dup1\n      swap2\n      sub\n      swap1\n      revert\n    tag_134:\n        /* \"@openzeppelin/contracts/token/ERC20/ERC20.sol\":10429:10435  amount */\n      dup1\n        /* \"@openzeppelin/contracts/token/ERC20/ERC20.sol\":10399:10410  _allowances */\n      0x01\n        /* \"@openzeppelin/contracts/token/ERC20/ERC20.sol\":10399:10417  _allowances[owner] */\n      0x00\n        /* \"@openzeppelin/contracts/token/ERC20/ERC20.sol\":10411:10416  owner */\n      dup6\n        /* \"@openzeppelin/contracts/token/ERC20/ERC20.sol\":10399:10417  _allowances[owner] */\n      0xffffffffffffffffffffffffffffffffffffffff\n      and\n      0xffffffffffffffffffffffffffffffffffffffff\n      and\n      dup2\n      mstore\n      0x20\n      add\n      swap1\n      dup2\n      mstore\n      0x20\n      add\n      0x00\n      keccak256\n        /* \"@openzeppelin/contracts/token/ERC20/ERC20.sol\":10399:10426  _allowances[owner][spender] */\n      0x00\n        /* \"@openzeppelin/contracts/token/ERC20/ERC20.sol\":10418:10425  spender */\n      dup5\n        /* \"@openzeppelin/contracts/token/ERC20/ERC20.sol\":10399:10426  _allowances[owner][spender] */\n      0xffffffffffffffffffffffffffffffffffffffff\n      and\n      0xffffffffffffffffffffffffffffffffffffffff\n      and\n      dup2\n      mstore\n      0x20\n      add\n      swap1\n      dup2\n      mstore\n      0x20\n      add\n      0x00\n      keccak256\n        /* \"@openzeppelin/contracts/token/ERC20/ERC20.sol\":10399:10435  _allowances[owner][spender] = amount */\n      dup2\n      swap1\n      sstore\n      pop\n        /* \"@openzeppelin/contracts/token/ERC20/ERC20.sol\":10466:10473  spender */\n      dup2\n        /* \"@openzeppelin/contracts/token/ERC20/ERC20.sol\":10450:10482  Approval(owner, spender, amount) */\n      0xffffffffffffffffffffffffffffffffffffffff\n      and\n        /* \"@openzeppelin/contracts/token/ERC20/ERC20.sol\":10459:10464  owner */\n      dup4\n        /* \"@openzeppelin/contracts/token/ERC20/ERC20.sol\":10450:10482  Approval(owner, spender, amount) */\n      0xffffffffffffffffffffffffffffffffffffffff\n      and\n      0x8c5be1e5ebec7d5bd14f71427d1e84f3dd0314c0f7b2291e5b200ac8c7c3b925\n        /* \"@openzeppelin/contracts/token/ERC20/ERC20.sol\":10475:10481  amount */\n      dup4\n        /* \"@openzeppelin/contracts/token/ERC20/ERC20.sol\":10450:10482  Approval(owner, spender, amount) */\n      mload(0x40)\n      tag_137\n      swap2\n      swap1\n      tag_31\n      jump\t// in\n    tag_137:\n      mload(0x40)\n      dup1\n      swap2\n      sub\n      swap1\n      log3\n        /* \"@openzeppelin/contracts/token/ERC20/ERC20.sol\":10119:10489  function _approve(... */\n      pop\n      pop\n      pop\n      jump\t// out\n        /* \"@openzeppelin/contracts/token/ERC20/ERC20.sol\":10770:11211  function _spendAllowance(... */\n    tag_90:\n        /* \"@openzeppelin/contracts/token/ERC20/ERC20.sol\":10900:10924  uint256 currentAllowance */\n      0x00\n        /* \"@openzeppelin/contracts/token/ERC20/ERC20.sol\":10927:10952  allowance(owner, spender) */\n      tag_139\n        /* \"@openzeppelin/contracts/token/ERC20/ERC20.sol\":10937:10942  owner */\n      dup5\n        /* \"@openzeppelin/contracts/token/ERC20/ERC20.sol\":10944:10951  spender */\n      dup5\n        /* \"@openzeppelin/contracts/token/ERC20/ERC20.sol\":10927:10936  allowance */\n      tag_72\n        /* \"@openzeppelin/contracts/token/ERC20/ERC20.sol\":10927:10952  allowance(owner, spender) */\n      jump\t// in\n    tag_139:\n        /* \"@openzeppelin/contracts/token/ERC20/ERC20.sol\":10900:10952  uint256 currentAllowance = allowance(owner, spender) */\n      swap1\n      pop\n        /* \"@openzeppelin/contracts/token/ERC20/ERC20.sol\":10986:11003  type(uint256).max */\n      0xffffffffffffffffffffffffffffffffffffffffffffffffffffffffffffffff\n        /* \"@openzeppelin/contracts/token/ERC20/ERC20.sol\":10966:10982  currentAllowance */\n      dup2\n        /* \"@openzeppelin/contracts/token/ERC20/ERC20.sol\":10966:11003  currentAllowance != type(uint256).max */\n      eq\n        /* \"@openzeppelin/contracts/token/ERC20/ERC20.sol\":10962:11205  if (currentAllowance != type(uint256).max) {... */\n      tag_140\n      jumpi\n        /* \"@openzeppelin/contracts/token/ERC20/ERC20.sol\":11047:11053  amount */\n      dup2\n        /* \"@openzeppelin/contracts/token/ERC20/ERC20.sol\":11027:11043  currentAllowance */\n      dup2\n        /* \"@openzeppelin/contracts/token/ERC20/ERC20.sol\":11027:11053  currentAllowance >= amount */\n      lt\n      iszero\n        /* \"@openzeppelin/contracts/token/ERC20/ERC20.sol\":11019:11087  require(currentAllowance >= amount, \"ERC20: insufficient allowance\") */\n      tag_141\n      jumpi\n      mload(0x40)\n      0x08c379a000000000000000000000000000000000000000000000000000000000\n      dup2\n      mstore\n      0x04\n      add\n      tag_142\n      swap1\n      tag_143\n      jump\t// in\n    tag_142:\n      mload(0x40)\n      dup1\n      swap2\n      sub\n      swap1\n      revert\n    tag_141:\n        /* \"@openzeppelin/contracts/token/ERC20/ERC20.sol\":11129:11180  _approve(owner, spender, currentAllowance - amount) */\n      tag_144\n        /* \"@openzeppelin/contracts/token/ERC20/ERC20.sol\":11138:11143  owner */\n      dup5\n        /* \"@openzeppelin/contracts/token/ERC20/ERC20.sol\":11145:11152  spender */\n      dup5\n        /* \"@openzeppelin/contracts/token/ERC20/ERC20.sol\":11173:11179  amount */\n      dup5\n        /* \"@openzeppelin/contracts/token/ERC20/ERC20.sol\":11154:11170  currentAllowance */\n      dup5\n        /* \"@openzeppelin/contracts/token/ERC20/ERC20.sol\":11154:11179  currentAllowance - amount */\n      sub\n        /* \"@openzeppelin/contracts/token/ERC20/ERC20.sol\":11129:11137  _approve */\n      tag_85\n        /* \"@openzeppelin/contracts/token/ERC20/ERC20.sol\":11129:11180  _approve(owner, spender, currentAllowance - amount) */\n      jump\t// in\n    tag_144:\n        /* \"@openzeppelin/contracts/token/ERC20/ERC20.sol\":10962:11205  if (currentAllowance != type(uint256).max) {... */\n    tag_140:\n        /* \"@openzeppelin/contracts/token/ERC20/ERC20.sol\":10890:11211  {... */\n      pop\n        /* \"@openzeppelin/contracts/token/ERC20/ERC20.sol\":10770:11211  function _spendAllowance(... */\n      pop\n      pop\n      pop\n      jump\t// out\n        /* \"@openzeppelin/contracts/token/ERC20/ERC20.sol\":7484:8135  function _transfer(... */\n    tag_92:\n        /* \"@openzeppelin/contracts/token/ERC20/ERC20.sol\":7626:7627  0 */\n      0x00\n        /* \"@openzeppelin/contracts/token/ERC20/ERC20.sol\":7610:7628  from != address(0) */\n      0xffffffffffffffffffffffffffffffffffffffff\n      and\n        /* \"@openzeppelin/contracts/token/ERC20/ERC20.sol\":7610:7614  from */\n      dup4\n        /* \"@openzeppelin/contracts/token/ERC20/ERC20.sol\":7610:7628  from != address(0) */\n      0xffffffffffffffffffffffffffffffffffffffff\n      and\n      eq\n      iszero\n        /* \"@openzeppelin/contracts/token/ERC20/ERC20.sol\":7602:7670  require(from != address(0), \"ERC20: transfer from the zero address\") */\n      tag_146\n      jumpi\n      mload(0x40)\n      0x08c379a000000000000000000000000000000000000000000000000000000000\n      dup2\n      mstore\n      0x04\n      add\n      tag_147\n      swap1\n      tag_148\n      jump\t// in\n    tag_147:\n      mload(0x40)\n      dup1\n      swap2\n      sub\n      swap1\n      revert\n    tag_146:\n        /* \"@openzeppelin/contracts/token/ERC20/ERC20.sol\":7702:7703  0 */\n      0x00\n        /* \"@openzeppelin/contracts/token/ERC20/ERC20.sol\":7688:7704  to != address(0) */\n      0xffffffffffffffffffffffffffffffffffffffff\n      and\n        /* \"@openzeppelin/contracts/token/ERC20/ERC20.sol\":7688:7690  to */\n      dup3\n        /* \"@openzeppelin/contracts/token/ERC20/ERC20.sol\":7688:7704  to != address(0) */\n      0xffffffffffffffffffffffffffffffffffffffff\n      and\n      eq\n      iszero\n        /* \"@openzeppelin/contracts/token/ERC20/ERC20.sol\":7680:7744  require(to != address(0), \"ERC20: transfer to the zero address\") */\n      tag_149\n      jumpi\n      mload(0x40)\n      0x08c379a000000000000000000000000000000000000000000000000000000000\n      dup2\n      mstore\n      0x04\n      add\n      tag_150\n      swap1\n      tag_151\n      jump\t// in\n    tag_150:\n      mload(0x40)\n      dup1\n      swap2\n      sub\n      swap1\n      revert\n    tag_149:\n        /* \"@openzeppelin/contracts/token/ERC20/ERC20.sol\":7755:7793  _beforeTokenTransfer(from, to, amount) */\n      tag_152\n        /* \"@openzeppelin/contracts/token/ERC20/ERC20.sol\":7776:7780  from */\n      dup4\n        /* \"@openzeppelin/contracts/token/ERC20/ERC20.sol\":7782:7784  to */\n      dup4\n        /* \"@openzeppelin/contracts/token/ERC20/ERC20.sol\":7786:7792  amount */\n      dup4\n        /* \"@openzeppelin/contracts/token/ERC20/ERC20.sol\":7755:7775  _beforeTokenTransfer */\n      tag_153\n        /* \"@openzeppelin/contracts/token/ERC20/ERC20.sol\":7755:7793  _beforeTokenTransfer(from, to, amount) */\n      jump\t// in\n    tag_152:\n        /* \"@openzeppelin/contracts/token/ERC20/ERC20.sol\":7804:7823  uint256 fromBalance */\n      0x00\n        /* \"@openzeppelin/contracts/token/ERC20/ERC20.sol\":7826:7835  _balances */\n      dup1\n        /* \"@openzeppelin/contracts/token/ERC20/ERC20.sol\":7826:7841  _balances[from] */\n      0x00\n        /* \"@openzeppelin/contracts/token/ERC20/ERC20.sol\":7836:7840  from */\n      dup6\n        /* \"@openzeppelin/contracts/token/ERC20/ERC20.sol\":7826:7841  _balances[from] */\n      0xffffffffffffffffffffffffffffffffffffffff\n      and\n      0xffffffffffffffffffffffffffffffffffffffff\n      and\n      dup2\n      mstore\n      0x20\n      add\n      swap1\n      dup2\n      mstore\n      0x20\n      add\n      0x00\n      keccak256\n      sload\n        /* \"@openzeppelin/contracts/token/ERC20/ERC20.sol\":7804:7841  uint256 fromBalance = _balances[from] */\n      swap1\n      pop\n        /* \"@openzeppelin/contracts/token/ERC20/ERC20.sol\":7874:7880  amount */\n      dup2\n        /* \"@openzeppelin/contracts/token/ERC20/ERC20.sol\":7859:7870  fromBalance */\n      dup2\n        /* \"@openzeppelin/contracts/token/ERC20/ERC20.sol\":7859:7880  fromBalance >= amount */\n      lt\n      iszero\n        /* \"@openzeppelin/contracts/token/ERC20/ERC20.sol\":7851:7923  require(fromBalance >= amount, \"ERC20: transfer amount exceeds balance\") */\n      tag_154\n      jumpi\n      mload(0x40)\n      0x08c379a000000000000000000000000000000000000000000000000000000000\n      dup2\n      mstore\n      0x04\n      add\n      tag_155\n      swap1\n      tag_156\n      jump\t// in\n    tag_155:\n      mload(0x40)\n      dup1\n      swap2\n      sub\n      swap1\n      revert\n    tag_154:\n        /* \"@openzeppelin/contracts/token/ERC20/ERC20.sol\":7989:7995  amount */\n      dup2\n        /* \"@openzeppelin/contracts/token/ERC20/ERC20.sol\":7975:7986  fromBalance */\n      dup2\n        /* \"@openzeppelin/contracts/token/ERC20/ERC20.sol\":7975:7995  fromBalance - amount */\n      sub\n        /* \"@openzeppelin/contracts/token/ERC20/ERC20.sol\":7957:7966  _balances */\n      0x00\n        /* \"@openzeppelin/contracts/token/ERC20/ERC20.sol\":7957:7972  _balances[from] */\n      dup1\n        /* \"@openzeppelin/contracts/token/ERC20/ERC20.sol\":7967:7971  from */\n      dup7\n        /* \"@openzeppelin/contracts/token/ERC20/ERC20.sol\":7957:7972  _balances[from] */\n      0xffffffffffffffffffffffffffffffffffffffff\n      and\n      0xffffffffffffffffffffffffffffffffffffffff\n      and\n      dup2\n      mstore\n      0x20\n      add\n      swap1\n      dup2\n      mstore\n      0x20\n      add\n      0x00\n      keccak256\n        /* \"@openzeppelin/contracts/token/ERC20/ERC20.sol\":7957:7995  _balances[from] = fromBalance - amount */\n      dup2\n      swap1\n      sstore\n      pop\n        /* \"@openzeppelin/contracts/token/ERC20/ERC20.sol\":8032:8038  amount */\n      dup2\n        /* \"@openzeppelin/contracts/token/ERC20/ERC20.sol\":8015:8024  _balances */\n      0x00\n        /* \"@openzeppelin/contracts/token/ERC20/ERC20.sol\":8015:8028  _balances[to] */\n      dup1\n        /* \"@openzeppelin/contracts/token/ERC20/ERC20.sol\":8025:8027  to */\n      dup6\n        /* \"@openzeppelin/contracts/token/ERC20/ERC20.sol\":8015:8028  _balances[to] */\n      0xffffffffffffffffffffffffffffffffffffffff\n      and\n      0xffffffffffffffffffffffffffffffffffffffff\n      and\n      dup2\n      mstore\n      0x20\n      add\n      swap1\n      dup2\n      mstore\n      0x20\n      add\n      0x00\n      keccak256\n      0x00\n        /* \"@openzeppelin/contracts/token/ERC20/ERC20.sol\":8015:8038  _balances[to] += amount */\n      dup3\n      dup3\n      sload\n      tag_157\n      swap2\n      swap1\n      tag_99\n      jump\t// in\n    tag_157:\n      swap3\n      pop\n      pop\n      dup2\n      swap1\n      sstore\n      pop\n        /* \"@openzeppelin/contracts/token/ERC20/ERC20.sol\":8069:8071  to */\n      dup3\n        /* \"@openzeppelin/contracts/token/ERC20/ERC20.sol\":8054:8080  Transfer(from, to, amount) */\n      0xffffffffffffffffffffffffffffffffffffffff\n      and\n        /* \"@openzeppelin/contracts/token/ERC20/ERC20.sol\":8063:8067  from */\n      dup5\n        /* \"@openzeppelin/contracts/token/ERC20/ERC20.sol\":8054:8080  Transfer(from, to, amount) */\n      0xffffffffffffffffffffffffffffffffffffffff\n      and\n      0xddf252ad1be2c89b69c2b068fc378daa952ba7f163c4a11628f55a4df523b3ef\n        /* \"@openzeppelin/contracts/token/ERC20/ERC20.sol\":8073:8079  amount */\n      dup5\n        /* \"@openzeppelin/contracts/token/ERC20/ERC20.sol\":8054:8080  Transfer(from, to, amount) */\n      mload(0x40)\n      tag_158\n      swap2\n      swap1\n      tag_31\n      jump\t// in\n    tag_158:\n      mload(0x40)\n      dup1\n      swap2\n      sub\n      swap1\n      log3\n        /* \"@openzeppelin/contracts/token/ERC20/ERC20.sol\":8091:8128  _afterTokenTransfer(from, to, amount) */\n      tag_159\n        /* \"@openzeppelin/contracts/token/ERC20/ERC20.sol\":8111:8115  from */\n      dup5\n        /* \"@openzeppelin/contracts/token/ERC20/ERC20.sol\":8117:8119  to */\n      dup5\n        /* \"@openzeppelin/contracts/token/ERC20/ERC20.sol\":8121:8127  amount */\n      dup5\n        /* \"@openzeppelin/contracts/token/ERC20/ERC20.sol\":8091:8110  _afterTokenTransfer */\n      tag_160\n        /* \"@openzeppelin/contracts/token/ERC20/ERC20.sol\":8091:8128  _afterTokenTransfer(from, to, amount) */\n      jump\t// in\n    tag_159:\n        /* \"@openzeppelin/contracts/token/ERC20/ERC20.sol\":7592:8135  {... */\n      pop\n        /* \"@openzeppelin/contracts/token/ERC20/ERC20.sol\":7484:8135  function _transfer(... */\n      pop\n      pop\n      pop\n      jump\t// out\n        /* \"@openzeppelin/contracts/token/ERC20/ERC20.sol\":8411:8800  function _mint(address account, uint256 amount) internal virtual {... */\n    tag_127:\n        /* \"@openzeppelin/contracts/token/ERC20/ERC20.sol\":8513:8514  0 */\n      0x00\n        /* \"@openzeppelin/contracts/token/ERC20/ERC20.sol\":8494:8515  account != address(0) */\n      0xffffffffffffffffffffffffffffffffffffffff\n      and\n        /* \"@openzeppelin/contracts/token/ERC20/ERC20.sol\":8494:8501  account */\n      dup3\n        /* \"@openzeppelin/contracts/token/ERC20/ERC20.sol\":8494:8515  account != address(0) */\n      0xffffffffffffffffffffffffffffffffffffffff\n      and\n      eq\n      iszero\n        /* \"@openzeppelin/contracts/token/ERC20/ERC20.sol\":8486:8551  require(account != address(0), \"ERC20: mint to the zero address\") */\n      tag_162\n      jumpi\n      mload(0x40)\n      0x08c379a000000000000000000000000000000000000000000000000000000000\n      dup2\n      mstore\n      0x04\n      add\n      tag_163\n      swap1\n      tag_164\n      jump\t// in\n    tag_163:\n      mload(0x40)\n      dup1\n      swap2\n      sub\n      swap1\n      revert\n    tag_162:\n        /* \"@openzeppelin/contracts/token/ERC20/ERC20.sol\":8562:8611  _beforeTokenTransfer(address(0), account, amount) */\n      tag_165\n        /* \"@openzeppelin/contracts/token/ERC20/ERC20.sol\":8591:8592  0 */\n      0x00\n        /* \"@openzeppelin/contracts/token/ERC20/ERC20.sol\":8595:8602  account */\n      dup4\n        /* \"@openzeppelin/contracts/token/ERC20/ERC20.sol\":8604:8610  amount */\n      dup4\n        /* \"@openzeppelin/contracts/token/ERC20/ERC20.sol\":8562:8582  _beforeTokenTransfer */\n      tag_153\n        /* \"@openzeppelin/contracts/token/ERC20/ERC20.sol\":8562:8611  _beforeTokenTransfer(address(0), account, amount) */\n      jump\t// in\n    tag_165:\n        /* \"@openzeppelin/contracts/token/ERC20/ERC20.sol\":8638:8644  amount */\n      dup1\n        /* \"@openzeppelin/contracts/token/ERC20/ERC20.sol\":8622:8634  _totalSupply */\n      0x02\n      0x00\n        /* \"@openzeppelin/contracts/token/ERC20/ERC20.sol\":8622:8644  _totalSupply += amount */\n      dup3\n      dup3\n      sload\n      tag_166\n      swap2\n      swap1\n      tag_99\n      jump\t// in\n    tag_166:\n      swap3\n      pop\n      pop\n      dup2\n      swap1\n      sstore\n      pop\n        /* \"@openzeppelin/contracts/token/ERC20/ERC20.sol\":8676:8682  amount */\n      dup1\n        /* \"@openzeppelin/contracts/token/ERC20/ERC20.sol\":8654:8663  _balances */\n      0x00\n        /* \"@openzeppelin/contracts/token/ERC20/ERC20.sol\":8654:8672  _balances[account] */\n      dup1\n        /* \"@openzeppelin/contracts/token/ERC20/ERC20.sol\":8664:8671  account */\n      dup5\n        /* \"@openzeppelin/contracts/token/ERC20/ERC20.sol\":8654:8672  _balances[account] */\n      0xffffffffffffffffffffffffffffffffffffffff\n      and\n      0xffffffffffffffffffffffffffffffffffffffff\n      and\n      dup2\n      mstore\n      0x20\n      add\n      swap1\n      dup2\n      mstore\n      0x20\n      add\n      0x00\n      keccak256\n      0x00\n        /* \"@openzeppelin/contracts/token/ERC20/ERC20.sol\":8654:8682  _balances[account] += amount */\n      dup3\n      dup3\n      sload\n      tag_167\n      swap2\n      swap1\n      tag_99\n      jump\t// in\n    tag_167:\n      swap3\n      pop\n      pop\n      dup2\n      swap1\n      sstore\n      pop\n        /* \"@openzeppelin/contracts/token/ERC20/ERC20.sol\":8718:8725  account */\n      dup2\n        /* \"@openzeppelin/contracts/token/ERC20/ERC20.sol\":8697:8734  Transfer(address(0), account, amount) */\n      0xffffffffffffffffffffffffffffffffffffffff\n      and\n        /* \"@openzeppelin/contracts/token/ERC20/ERC20.sol\":8714:8715  0 */\n      0x00\n        /* \"@openzeppelin/contracts/token/ERC20/ERC20.sol\":8697:8734  Transfer(address(0), account, amount) */\n      0xffffffffffffffffffffffffffffffffffffffff\n      and\n      0xddf252ad1be2c89b69c2b068fc378daa952ba7f163c4a11628f55a4df523b3ef\n        /* \"@openzeppelin/contracts/token/ERC20/ERC20.sol\":8727:8733  amount */\n      dup4\n        /* \"@openzeppelin/contracts/token/ERC20/ERC20.sol\":8697:8734  Transfer(address(0), account, amount) */\n      mload(0x40)\n      tag_168\n      swap2\n      swap1\n      tag_31\n      jump\t// in\n    tag_168:\n      mload(0x40)\n      dup1\n      swap2\n      sub\n      swap1\n      log3\n        /* \"@openzeppelin/contracts/token/ERC20/ERC20.sol\":8745:8793  _afterTokenTransfer(address(0), account, amount) */\n      tag_169\n        /* \"@openzeppelin/contracts/token/ERC20/ERC20.sol\":8773:8774  0 */\n      0x00\n        /* \"@openzeppelin/contracts/token/ERC20/ERC20.sol\":8777:8784  account */\n      dup4\n        /* \"@openzeppelin/contracts/token/ERC20/ERC20.sol\":8786:8792  amount */\n      dup4\n        /* \"@openzeppelin/contracts/token/ERC20/ERC20.sol\":8745:8764  _afterTokenTransfer */\n      tag_160\n        /* \"@openzeppelin/contracts/token/ERC20/ERC20.sol\":8745:8793  _afterTokenTransfer(address(0), account, amount) */\n      jump\t// in\n    tag_169:\n        /* \"@openzeppelin/contracts/token/ERC20/ERC20.sol\":8411:8800  function _mint(address account, uint256 amount) internal virtual {... */\n      pop\n      pop\n      jump\t// out\n        /* \"@openzeppelin/contracts/token/ERC20/ERC20.sol\":11795:11916  function _beforeTokenTransfer(... */\n    tag_153:\n      pop\n      pop\n      pop\n      jump\t// out\n        /* \"@openzeppelin/contracts/token/ERC20/ERC20.sol\":12504:12624  function _afterTokenTransfer(... */\n    tag_160:\n      pop\n      pop\n      pop\n      jump\t// out\n        /* \"#utility.yul\":7:106   */\n    tag_172:\n        /* \"#utility.yul\":59:65   */\n      0x00\n        /* \"#utility.yul\":93:98   */\n      dup2\n        /* \"#utility.yul\":87:99   */\n      mload\n        /* \"#utility.yul\":77:99   */\n      swap1\n      pop\n        /* \"#utility.yul\":7:106   */\n      swap2\n      swap1\n      pop\n      jump\t// out\n        /* \"#utility.yul\":112:281   */\n    tag_173:\n        /* \"#utility.yul\":196:207   */\n      0x00\n        /* \"#utility.yul\":230:236   */\n      dup3\n        /* \"#utility.yul\":225:228   */\n      dup3\n        /* \"#utility.yul\":218:237   */\n      mstore\n        /* \"#utility.yul\":270:274   */\n      0x20\n        /* \"#utility.yul\":265:268   */\n      dup3\n        /* \"#utility.yul\":261:275   */\n      add\n        /* \"#utility.yul\":246:275   */\n      swap1\n      pop\n        /* \"#utility.yul\":112:281   */\n      swap3\n      swap2\n      pop\n      pop\n      jump\t// out\n        /* \"#utility.yul\":287:594   */\n    tag_174:\n        /* \"#utility.yul\":355:356   */\n      0x00\n        /* \"#utility.yul\":365:478   */\n    tag_219:\n        /* \"#utility.yul\":379:385   */\n      dup4\n        /* \"#utility.yul\":376:377   */\n      dup2\n        /* \"#utility.yul\":373:386   */\n      lt\n        /* \"#utility.yul\":365:478   */\n      iszero\n      tag_221\n      jumpi\n        /* \"#utility.yul\":464:465   */\n      dup1\n        /* \"#utility.yul\":459:462   */\n      dup3\n        /* \"#utility.yul\":455:466   */\n      add\n        /* \"#utility.yul\":449:467   */\n      mload\n        /* \"#utility.yul\":445:446   */\n      dup2\n        /* \"#utility.yul\":440:443   */\n      dup5\n        /* \"#utility.yul\":436:447   */\n      add\n        /* \"#utility.yul\":429:468   */\n      mstore\n        /* \"#utility.yul\":401:403   */\n      0x20\n        /* \"#utility.yul\":398:399   */\n      dup2\n        /* \"#utility.yul\":394:404   */\n      add\n        /* \"#utility.yul\":389:404   */\n      swap1\n      pop\n        /* \"#utility.yul\":365:478   */\n      jump(tag_219)\n    tag_221:\n        /* \"#utility.yul\":496:502   */\n      dup4\n        /* \"#utility.yul\":493:494   */\n      dup2\n        /* \"#utility.yul\":490:503   */\n      gt\n        /* \"#utility.yul\":487:588   */\n      iszero\n      tag_222\n      jumpi\n        /* \"#utility.yul\":576:577   */\n      0x00\n        /* \"#utility.yul\":567:573   */\n      dup5\n        /* \"#utility.yul\":562:565   */\n      dup5\n        /* \"#utility.yul\":558:574   */\n      add\n        /* \"#utility.yul\":551:578   */\n      mstore\n        /* \"#utility.yul\":487:588   */\n    tag_222:\n        /* \"#utility.yul\":336:594   */\n      pop\n        /* \"#utility.yul\":287:594   */\n      pop\n      pop\n      pop\n      jump\t// out\n        /* \"#utility.yul\":600:702   */\n    tag_175:\n        /* \"#utility.yul\":641:647   */\n      0x00\n        /* \"#utility.yul\":692:694   */\n      0x1f\n        /* \"#utility.yul\":688:695   */\n      not\n        /* \"#utility.yul\":683:685   */\n      0x1f\n        /* \"#utility.yul\":676:681   */\n      dup4\n        /* \"#utility.yul\":672:686   */\n      add\n        /* \"#utility.yul\":668:696   */\n      and\n        /* \"#utility.yul\":658:696   */\n      swap1\n      pop\n        /* \"#utility.yul\":600:702   */\n      swap2\n      swap1\n      pop\n      jump\t// out\n        /* \"#utility.yul\":708:1072   */\n    tag_176:\n        /* \"#utility.yul\":796:799   */\n      0x00\n        /* \"#utility.yul\":824:863   */\n      tag_225\n        /* \"#utility.yul\":857:862   */\n      dup3\n        /* \"#utility.yul\":824:863   */\n      tag_172\n      jump\t// in\n    tag_225:\n        /* \"#utility.yul\":879:950   */\n      tag_226\n        /* \"#utility.yul\":943:949   */\n      dup2\n        /* \"#utility.yul\":938:941   */\n      dup6\n        /* \"#utility.yul\":879:950   */\n      tag_173\n      jump\t// in\n    tag_226:\n        /* \"#utility.yul\":872:950   */\n      swap4\n      pop\n        /* \"#utility.yul\":959:1011   */\n      tag_227\n        /* \"#utility.yul\":1004:1010   */\n      dup2\n        /* \"#utility.yul\":999:1002   */\n      dup6\n        /* \"#utility.yul\":992:996   */\n      0x20\n        /* \"#utility.yul\":985:990   */\n      dup7\n        /* \"#utility.yul\":981:997   */\n      add\n        /* \"#utility.yul\":959:1011   */\n      tag_174\n      jump\t// in\n    tag_227:\n        /* \"#utility.yul\":1036:1065   */\n      tag_228\n        /* \"#utility.yul\":1058:1064   */\n      dup2\n        /* \"#utility.yul\":1036:1065   */\n      tag_175\n      jump\t// in\n    tag_228:\n        /* \"#utility.yul\":1031:1034   */\n      dup5\n        /* \"#utility.yul\":1027:1066   */\n      add\n        /* \"#utility.yul\":1020:1066   */\n      swap2\n      pop\n        /* \"#utility.yul\":800:1072   */\n      pop\n        /* \"#utility.yul\":708:1072   */\n      swap3\n      swap2\n      pop\n      pop\n      jump\t// out\n        /* \"#utility.yul\":1078:1391   */\n    tag_21:\n        /* \"#utility.yul\":1191:1195   */\n      0x00\n        /* \"#utility.yul\":1229:1231   */\n      0x20\n        /* \"#utility.yul\":1218:1227   */\n      dup3\n        /* \"#utility.yul\":1214:1232   */\n      add\n        /* \"#utility.yul\":1206:1232   */\n      swap1\n      pop\n        /* \"#utility.yul\":1278:1287   */\n      dup2\n        /* \"#utility.yul\":1272:1276   */\n      dup2\n        /* \"#utility.yul\":1268:1288   */\n      sub\n        /* \"#utility.yul\":1264:1265   */\n      0x00\n        /* \"#utility.yul\":1253:1262   */\n      dup4\n        /* \"#utility.yul\":1249:1266   */\n      add\n        /* \"#utility.yul\":1242:1289   */\n      mstore\n        /* \"#utility.yul\":1306:1384   */\n      tag_230\n        /* \"#utility.yul\":1379:1383   */\n      dup2\n        /* \"#utility.yul\":1370:1376   */\n      dup5\n        /* \"#utility.yul\":1306:1384   */\n      tag_176\n      jump\t// in\n    tag_230:\n        /* \"#utility.yul\":1298:1384   */\n      swap1\n      pop\n        /* \"#utility.yul\":1078:1391   */\n      swap3\n      swap2\n      pop\n      pop\n      jump\t// out\n        /* \"#utility.yul\":1478:1595   */\n    tag_178:\n        /* \"#utility.yul\":1587:1588   */\n      0x00\n        /* \"#utility.yul\":1584:1585   */\n      dup1\n        /* \"#utility.yul\":1577:1589   */\n      revert\n        /* \"#utility.yul\":1724:1850   */\n    tag_180:\n        /* \"#utility.yul\":1761:1768   */\n      0x00\n        /* \"#utility.yul\":1801:1843   */\n      0xffffffffffffffffffffffffffffffffffffffff\n        /* \"#utility.yul\":1794:1799   */\n      dup3\n        /* \"#utility.yul\":1790:1844   */\n      and\n        /* \"#utility.yul\":1779:1844   */\n      swap1\n      pop\n        /* \"#utility.yul\":1724:1850   */\n      swap2\n      swap1\n      pop\n      jump\t// out\n        /* \"#utility.yul\":1856:1952   */\n    tag_181:\n        /* \"#utility.yul\":1893:1900   */\n      0x00\n        /* \"#utility.yul\":1922:1946   */\n      tag_236\n        /* \"#utility.yul\":1940:1945   */\n      dup3\n        /* \"#utility.yul\":1922:1946   */\n      tag_180\n      jump\t// in\n    tag_236:\n        /* \"#utility.yul\":1911:1946   */\n      swap1\n      pop\n        /* \"#utility.yul\":1856:1952   */\n      swap2\n      swap1\n      pop\n      jump\t// out\n        /* \"#utility.yul\":1958:2080   */\n    tag_182:\n        /* \"#utility.yul\":2031:2055   */\n      tag_238\n        /* \"#utility.yul\":2049:2054   */\n      dup2\n        /* \"#utility.yul\":2031:2055   */\n      tag_181\n      jump\t// in\n    tag_238:\n        /* \"#utility.yul\":2024:2029   */\n      dup2\n        /* \"#utility.yul\":2021:2056   */\n      eq\n        /* \"#utility.yul\":2011:2074   */\n      tag_239\n      jumpi\n        /* \"#utility.yul\":2070:2071   */\n      0x00\n        /* \"#utility.yul\":2067:2068   */\n      dup1\n        /* \"#utility.yul\":2060:2072   */\n      revert\n        /* \"#utility.yul\":2011:2074   */\n    tag_239:\n        /* \"#utility.yul\":1958:2080   */\n      pop\n      jump\t// out\n        /* \"#utility.yul\":2086:2225   */\n    tag_183:\n        /* \"#utility.yul\":2132:2137   */\n      0x00\n        /* \"#utility.yul\":2170:2176   */\n      dup2\n        /* \"#utility.yul\":2157:2177   */\n      calldataload\n        /* \"#utility.yul\":2148:2177   */\n      swap1\n      pop\n        /* \"#utility.yul\":2186:2219   */\n      tag_241\n        /* \"#utility.yul\":2213:2218   */\n      dup2\n        /* \"#utility.yul\":2186:2219   */\n      tag_182\n      jump\t// in\n    tag_241:\n        /* \"#utility.yul\":2086:2225   */\n      swap3\n      swap2\n      pop\n      pop\n      jump\t// out\n        /* \"#utility.yul\":2231:2308   */\n    tag_184:\n        /* \"#utility.yul\":2268:2275   */\n      0x00\n        /* \"#utility.yul\":2297:2302   */\n      dup2\n        /* \"#utility.yul\":2286:2302   */\n      swap1\n      pop\n        /* \"#utility.yul\":2231:2308   */\n      swap2\n      swap1\n      pop\n      jump\t// out\n        /* \"#utility.yul\":2314:2436   */\n    tag_185:\n        /* \"#utility.yul\":2387:2411   */\n      tag_244\n        /* \"#utility.yul\":2405:2410   */\n      dup2\n        /* \"#utility.yul\":2387:2411   */\n      tag_184\n      jump\t// in\n    tag_244:\n        /* \"#utility.yul\":2380:2385   */\n      dup2\n        /* \"#utility.yul\":2377:2412   */\n      eq\n        /* \"#utility.yul\":2367:2430   */\n      tag_245\n      jumpi\n        /* \"#utility.yul\":2426:2427   */\n      0x00\n        /* \"#utility.yul\":2423:2424   */\n      dup1\n        /* \"#utility.yul\":2416:2428   */\n      revert\n        /* \"#utility.yul\":2367:2430   */\n    tag_245:\n        /* \"#utility.yul\":2314:2436   */\n      pop\n      jump\t// out\n        /* \"#utility.yul\":2442:2581   */\n    tag_186:\n        /* \"#utility.yul\":2488:2493   */\n      0x00\n        /* \"#utility.yul\":2526:2532   */\n      dup2\n        /* \"#utility.yul\":2513:2533   */\n      calldataload\n        /* \"#utility.yul\":2504:2533   */\n      swap1\n      pop\n        /* \"#utility.yul\":2542:2575   */\n      tag_247\n        /* \"#utility.yul\":2569:2574   */\n      dup2\n        /* \"#utility.yul\":2542:2575   */\n      tag_185\n      jump\t// in\n    tag_247:\n        /* \"#utility.yul\":2442:2581   */\n      swap3\n      swap2\n      pop\n      pop\n      jump\t// out\n        /* \"#utility.yul\":2587:3061   */\n    tag_24:\n        /* \"#utility.yul\":2655:2661   */\n      0x00\n        /* \"#utility.yul\":2663:2669   */\n      dup1\n        /* \"#utility.yul\":2712:2714   */\n      0x40\n        /* \"#utility.yul\":2700:2709   */\n      dup4\n        /* \"#utility.yul\":2691:2698   */\n      dup6\n        /* \"#utility.yul\":2687:2710   */\n      sub\n        /* \"#utility.yul\":2683:2715   */\n      slt\n        /* \"#utility.yul\":2680:2799   */\n      iszero\n      tag_249\n      jumpi\n        /* \"#utility.yul\":2718:2797   */\n      tag_250\n      tag_178\n      jump\t// in\n    tag_250:\n        /* \"#utility.yul\":2680:2799   */\n    tag_249:\n        /* \"#utility.yul\":2838:2839   */\n      0x00\n        /* \"#utility.yul\":2863:2916   */\n      tag_251\n        /* \"#utility.yul\":2908:2915   */\n      dup6\n        /* \"#utility.yul\":2899:2905   */\n      dup3\n        /* \"#utility.yul\":2888:2897   */\n      dup7\n        /* \"#utility.yul\":2884:2906   */\n      add\n        /* \"#utility.yul\":2863:2916   */\n      tag_183\n      jump\t// in\n    tag_251:\n        /* \"#utility.yul\":2853:2916   */\n      swap3\n      pop\n        /* \"#utility.yul\":2809:2926   */\n      pop\n        /* \"#utility.yul\":2965:2967   */\n      0x20\n        /* \"#utility.yul\":2991:3044   */\n      tag_252\n        /* \"#utility.yul\":3036:3043   */\n      dup6\n        /* \"#utility.yul\":3027:3033   */\n      dup3\n        /* \"#utility.yul\":3016:3025   */\n      dup7\n        /* \"#utility.yul\":3012:3034   */\n      add\n        /* \"#utility.yul\":2991:3044   */\n      tag_186\n      jump\t// in\n    tag_252:\n        /* \"#utility.yul\":2981:3044   */\n      swap2\n      pop\n        /* \"#utility.yul\":2936:3054   */\n      pop\n        /* \"#utility.yul\":2587:3061   */\n      swap3\n      pop\n      swap3\n      swap1\n      pop\n      jump\t// out\n        /* \"#utility.yul\":3067:3157   */\n    tag_187:\n        /* \"#utility.yul\":3101:3108   */\n      0x00\n        /* \"#utility.yul\":3144:3149   */\n      dup2\n        /* \"#utility.yul\":3137:3150   */\n      iszero\n        /* \"#utility.yul\":3130:3151   */\n      iszero\n        /* \"#utility.yul\":3119:3151   */\n      swap1\n      pop\n        /* \"#utility.yul\":3067:3157   */\n      swap2\n      swap1\n      pop\n      jump\t// out\n        /* \"#utility.yul\":3163:3272   */\n    tag_188:\n        /* \"#utility.yul\":3244:3265   */\n      tag_255\n        /* \"#utility.yul\":3259:3264   */\n      dup2\n        /* \"#utility.yul\":3244:3265   */\n      tag_187\n      jump\t// in\n    tag_255:\n        /* \"#utility.yul\":3239:3242   */\n      dup3\n        /* \"#utility.yul\":3232:3266   */\n      mstore\n        /* \"#utility.yul\":3163:3272   */\n      pop\n      pop\n      jump\t// out\n        /* \"#utility.yul\":3278:3488   */\n    tag_27:\n        /* \"#utility.yul\":3365:3369   */\n      0x00\n        /* \"#utility.yul\":3403:3405   */\n      0x20\n        /* \"#utility.yul\":3392:3401   */\n      dup3\n        /* \"#utility.yul\":3388:3406   */\n      add\n        /* \"#utility.yul\":3380:3406   */\n      swap1\n      pop\n        /* \"#utility.yul\":3416:3481   */\n      tag_257\n        /* \"#utility.yul\":3478:3479   */\n      0x00\n        /* \"#utility.yul\":3467:3476   */\n      dup4\n        /* \"#utility.yul\":3463:3480   */\n      add\n        /* \"#utility.yul\":3454:3460   */\n      dup5\n        /* \"#utility.yul\":3416:3481   */\n      tag_188\n      jump\t// in\n    tag_257:\n        /* \"#utility.yul\":3278:3488   */\n      swap3\n      swap2\n      pop\n      pop\n      jump\t// out\n        /* \"#utility.yul\":3494:3612   */\n    tag_189:\n        /* \"#utility.yul\":3581:3605   */\n      tag_259\n        /* \"#utility.yul\":3599:3604   */\n      dup2\n        /* \"#utility.yul\":3581:3605   */\n      tag_184\n      jump\t// in\n    tag_259:\n        /* \"#utility.yul\":3576:3579   */\n      dup3\n        /* \"#utility.yul\":3569:3606   */\n      mstore\n        /* \"#utility.yul\":3494:3612   */\n      pop\n      pop\n      jump\t// out\n        /* \"#utility.yul\":3618:3840   */\n    tag_31:\n        /* \"#utility.yul\":3711:3715   */\n      0x00\n        /* \"#utility.yul\":3749:3751   */\n      0x20\n        /* \"#utility.yul\":3738:3747   */\n      dup3\n        /* \"#utility.yul\":3734:3752   */\n      add\n        /* \"#utility.yul\":3726:3752   */\n      swap1\n      pop\n        /* \"#utility.yul\":3762:3833   */\n      tag_261\n        /* \"#utility.yul\":3830:3831   */\n      0x00\n        /* \"#utility.yul\":3819:3828   */\n      dup4\n        /* \"#utility.yul\":3815:3832   */\n      add\n        /* \"#utility.yul\":3806:3812   */\n      dup5\n        /* \"#utility.yul\":3762:3833   */\n      tag_189\n      jump\t// in\n    tag_261:\n        /* \"#utility.yul\":3618:3840   */\n      swap3\n      swap2\n      pop\n      pop\n      jump\t// out\n        /* \"#utility.yul\":3846:4465   */\n    tag_34:\n        /* \"#utility.yul\":3923:3929   */\n      0x00\n        /* \"#utility.yul\":3931:3937   */\n      dup1\n        /* \"#utility.yul\":3939:3945   */\n      0x00\n        /* \"#utility.yul\":3988:3990   */\n      0x60\n        /* \"#utility.yul\":3976:3985   */\n      dup5\n        /* \"#utility.yul\":3967:3974   */\n      dup7\n        /* \"#utility.yul\":3963:3986   */\n      sub\n        /* \"#utility.yul\":3959:3991   */\n      slt\n        /* \"#utility.yul\":3956:4075   */\n      iszero\n      tag_263\n      jumpi\n        /* \"#utility.yul\":3994:4073   */\n      tag_264\n      tag_178\n      jump\t// in\n    tag_264:\n        /* \"#utility.yul\":3956:4075   */\n    tag_263:\n        /* \"#utility.yul\":4114:4115   */\n      0x00\n        /* \"#utility.yul\":4139:4192   */\n      tag_265\n        /* \"#utility.yul\":4184:4191   */\n      dup7\n        /* \"#utility.yul\":4175:4181   */\n      dup3\n        /* \"#utility.yul\":4164:4173   */\n      dup8\n        /* \"#utility.yul\":4160:4182   */\n      add\n        /* \"#utility.yul\":4139:4192   */\n      tag_183\n      jump\t// in\n    tag_265:\n        /* \"#utility.yul\":4129:4192   */\n      swap4\n      pop\n        /* \"#utility.yul\":4085:4202   */\n      pop\n        /* \"#utility.yul\":4241:4243   */\n      0x20\n        /* \"#utility.yul\":4267:4320   */\n      tag_266\n        /* \"#utility.yul\":4312:4319   */\n      dup7\n        /* \"#utility.yul\":4303:4309   */\n      dup3\n        /* \"#utility.yul\":4292:4301   */\n      dup8\n        /* \"#utility.yul\":4288:4310   */\n      add\n        /* \"#utility.yul\":4267:4320   */\n      tag_183\n      jump\t// in\n    tag_266:\n        /* \"#utility.yul\":4257:4320   */\n      swap3\n      pop\n        /* \"#utility.yul\":4212:4330   */\n      pop\n        /* \"#utility.yul\":4369:4371   */\n      0x40\n        /* \"#utility.yul\":4395:4448   */\n      tag_267\n        /* \"#utility.yul\":4440:4447   */\n      dup7\n        /* \"#utility.yul\":4431:4437   */\n      dup3\n        /* \"#utility.yul\":4420:4429   */\n      dup8\n        /* \"#utility.yul\":4416:4438   */\n      add\n        /* \"#utility.yul\":4395:4448   */\n      tag_186\n      jump\t// in\n    tag_267:\n        /* \"#utility.yul\":4385:4448   */\n      swap2\n      pop\n        /* \"#utility.yul\":4340:4458   */\n      pop\n        /* \"#utility.yul\":3846:4465   */\n      swap3\n      pop\n      swap3\n      pop\n      swap3\n      jump\t// out\n        /* \"#utility.yul\":4471:4557   */\n    tag_190:\n        /* \"#utility.yul\":4506:4513   */\n      0x00\n        /* \"#utility.yul\":4546:4550   */\n      0xff\n        /* \"#utility.yul\":4539:4544   */\n      dup3\n        /* \"#utility.yul\":4535:4551   */\n      and\n        /* \"#utility.yul\":4524:4551   */\n      swap1\n      pop\n        /* \"#utility.yul\":4471:4557   */\n      swap2\n      swap1\n      pop\n      jump\t// out\n        /* \"#utility.yul\":4563:4675   */\n    tag_191:\n        /* \"#utility.yul\":4646:4668   */\n      tag_270\n        /* \"#utility.yul\":4662:4667   */\n      dup2\n        /* \"#utility.yul\":4646:4668   */\n      tag_190\n      jump\t// in\n    tag_270:\n        /* \"#utility.yul\":4641:4644   */\n      dup3\n        /* \"#utility.yul\":4634:4669   */\n      mstore\n        /* \"#utility.yul\":4563:4675   */\n      pop\n      pop\n      jump\t// out\n        /* \"#utility.yul\":4681:4895   */\n    tag_40:\n        /* \"#utility.yul\":4770:4774   */\n      0x00\n        /* \"#utility.yul\":4808:4810   */\n      0x20\n        /* \"#utility.yul\":4797:4806   */\n      dup3\n        /* \"#utility.yul\":4793:4811   */\n      add\n        /* \"#utility.yul\":4785:4811   */\n      swap1\n      pop\n        /* \"#utility.yul\":4821:4888   */\n      tag_272\n        /* \"#utility.yul\":4885:4886   */\n      0x00\n        /* \"#utility.yul\":4874:4883   */\n      dup4\n        /* \"#utility.yul\":4870:4887   */\n      add\n        /* \"#utility.yul\":4861:4867   */\n      dup5\n        /* \"#utility.yul\":4821:4888   */\n      tag_191\n      jump\t// in\n    tag_272:\n        /* \"#utility.yul\":4681:4895   */\n      swap3\n      swap2\n      pop\n      pop\n      jump\t// out\n        /* \"#utility.yul\":4901:5230   */\n    tag_47:\n        /* \"#utility.yul\":4960:4966   */\n      0x00\n        /* \"#utility.yul\":5009:5011   */\n      0x20\n        /* \"#utility.yul\":4997:5006   */\n      dup3\n        /* \"#utility.yul\":4988:4995   */\n      dup5\n        /* \"#utility.yul\":4984:5007   */\n      sub\n        /* \"#utility.yul\":4980:5012   */\n      slt\n        /* \"#utility.yul\":4977:5096   */\n      iszero\n      tag_274\n      jumpi\n        /* \"#utility.yul\":5015:5094   */\n      tag_275\n      tag_178\n      jump\t// in\n    tag_275:\n        /* \"#utility.yul\":4977:5096   */\n    tag_274:\n        /* \"#utility.yul\":5135:5136   */\n      0x00\n        /* \"#utility.yul\":5160:5213   */\n      tag_276\n        /* \"#utility.yul\":5205:5212   */\n      dup5\n        /* \"#utility.yul\":5196:5202   */\n      dup3\n        /* \"#utility.yul\":5185:5194   */\n      dup6\n        /* \"#utility.yul\":5181:5203   */\n      add\n        /* \"#utility.yul\":5160:5213   */\n      tag_183\n      jump\t// in\n    tag_276:\n        /* \"#utility.yul\":5150:5213   */\n      swap2\n      pop\n        /* \"#utility.yul\":5106:5223   */\n      pop\n        /* \"#utility.yul\":4901:5230   */\n      swap3\n      swap2\n      pop\n      pop\n      jump\t// out\n        /* \"#utility.yul\":5236:5354   */\n    tag_192:\n        /* \"#utility.yul\":5323:5347   */\n      tag_278\n        /* \"#utility.yul\":5341:5346   */\n      dup2\n        /* \"#utility.yul\":5323:5347   */\n      tag_181\n      jump\t// in\n    tag_278:\n        /* \"#utility.yul\":5318:5321   */\n      dup3\n        /* \"#utility.yul\":5311:5348   */\n      mstore\n        /* \"#utility.yul\":5236:5354   */\n      pop\n      pop\n      jump\t// out\n        /* \"#utility.yul\":5360:5582   */\n    tag_53:\n        /* \"#utility.yul\":5453:5457   */\n      0x00\n        /* \"#utility.yul\":5491:5493   */\n      0x20\n        /* \"#utility.yul\":5480:5489   */\n      dup3\n        /* \"#utility.yul\":5476:5494   */\n      add\n        /* \"#utility.yul\":5468:5494   */\n      swap1\n      pop\n        /* \"#utility.yul\":5504:5575   */\n      tag_280\n        /* \"#utility.yul\":5572:5573   */\n      0x00\n        /* \"#utility.yul\":5561:5570   */\n      dup4\n        /* \"#utility.yul\":5557:5574   */\n      add\n        /* \"#utility.yul\":5548:5554   */\n      dup5\n        /* \"#utility.yul\":5504:5575   */\n      tag_192\n      jump\t// in\n    tag_280:\n        /* \"#utility.yul\":5360:5582   */\n      swap3\n      swap2\n      pop\n      pop\n      jump\t// out\n        /* \"#utility.yul\":5588:5917   */\n    tag_67:\n        /* \"#utility.yul\":5647:5653   */\n      0x00\n        /* \"#utility.yul\":5696:5698   */\n      0x20\n        /* \"#utility.yul\":5684:5693   */\n      dup3\n        /* \"#utility.yul\":5675:5682   */\n      dup5\n        /* \"#utility.yul\":5671:5694   */\n      sub\n        /* \"#utility.yul\":5667:5699   */\n      slt\n        /* \"#utility.yul\":5664:5783   */\n      iszero\n      tag_282\n      jumpi\n        /* \"#utility.yul\":5702:5781   */\n      tag_283\n      tag_178\n      jump\t// in\n    tag_283:\n        /* \"#utility.yul\":5664:5783   */\n    tag_282:\n        /* \"#utility.yul\":5822:5823   */\n      0x00\n        /* \"#utility.yul\":5847:5900   */\n      tag_284\n        /* \"#utility.yul\":5892:5899   */\n      dup5\n        /* \"#utility.yul\":5883:5889   */\n      dup3\n        /* \"#utility.yul\":5872:5881   */\n      dup6\n        /* \"#utility.yul\":5868:5890   */\n      add\n        /* \"#utility.yul\":5847:5900   */\n      tag_186\n      jump\t// in\n    tag_284:\n        /* \"#utility.yul\":5837:5900   */\n      swap2\n      pop\n        /* \"#utility.yul\":5793:5910   */\n      pop\n        /* \"#utility.yul\":5588:5917   */\n      swap3\n      swap2\n      pop\n      pop\n      jump\t// out\n        /* \"#utility.yul\":5923:6397   */\n    tag_71:\n        /* \"#utility.yul\":5991:5997   */\n      0x00\n        /* \"#utility.yul\":5999:6005   */\n      dup1\n        /* \"#utility.yul\":6048:6050   */\n      0x40\n        /* \"#utility.yul\":6036:6045   */\n      dup4\n        /* \"#utility.yul\":6027:6034   */\n      dup6\n        /* \"#utility.yul\":6023:6046   */\n      sub\n        /* \"#utility.yul\":6019:6051   */\n      slt\n        /* \"#utility.yul\":6016:6135   */\n      iszero\n      tag_286\n      jumpi\n        /* \"#utility.yul\":6054:6133   */\n      tag_287\n      tag_178\n      jump\t// in\n    tag_287:\n        /* \"#utility.yul\":6016:6135   */\n    tag_286:\n        /* \"#utility.yul\":6174:6175   */\n      0x00\n        /* \"#utility.yul\":6199:6252   */\n      tag_288\n        /* \"#utility.yul\":6244:6251   */\n      dup6\n        /* \"#utility.yul\":6235:6241   */\n      dup3\n        /* \"#utility.yul\":6224:6233   */\n      dup7\n        /* \"#utility.yul\":6220:6242   */\n      add\n        /* \"#utility.yul\":6199:6252   */\n      tag_183\n      jump\t// in\n    tag_288:\n        /* \"#utility.yul\":6189:6252   */\n      swap3\n      pop\n        /* \"#utility.yul\":6145:6262   */\n      pop\n        /* \"#utility.yul\":6301:6303   */\n      0x20\n        /* \"#utility.yul\":6327:6380   */\n      tag_289\n        /* \"#utility.yul\":6372:6379   */\n      dup6\n        /* \"#utility.yul\":6363:6369   */\n      dup3\n        /* \"#utility.yul\":6352:6361   */\n      dup7\n        /* \"#utility.yul\":6348:6370   */\n      add\n        /* \"#utility.yul\":6327:6380   */\n      tag_183\n      jump\t// in\n    tag_289:\n        /* \"#utility.yul\":6317:6380   */\n      swap2\n      pop\n        /* \"#utility.yul\":6272:6390   */\n      pop\n        /* \"#utility.yul\":5923:6397   */\n      swap3\n      pop\n      swap3\n      swap1\n      pop\n      jump\t// out\n        /* \"#utility.yul\":6403:6583   */\n    tag_193:\n        /* \"#utility.yul\":6451:6528   */\n      0x4e487b7100000000000000000000000000000000000000000000000000000000\n        /* \"#utility.yul\":6448:6449   */\n      0x00\n        /* \"#utility.yul\":6441:6529   */\n      mstore\n        /* \"#utility.yul\":6548:6552   */\n      0x22\n        /* \"#utility.yul\":6545:6546   */\n      0x04\n        /* \"#utility.yul\":6538:6553   */\n      mstore\n        /* \"#utility.yul\":6572:6576   */\n      0x24\n        /* \"#utility.yul\":6569:6570   */\n      0x00\n        /* \"#utility.yul\":6562:6577   */\n      revert\n        /* \"#utility.yul\":6589:6909   */\n    tag_76:\n        /* \"#utility.yul\":6633:6639   */\n      0x00\n        /* \"#utility.yul\":6670:6671   */\n      0x02\n        /* \"#utility.yul\":6664:6668   */\n      dup3\n        /* \"#utility.yul\":6660:6672   */\n      div\n        /* \"#utility.yul\":6650:6672   */\n      swap1\n      pop\n        /* \"#utility.yul\":6717:6718   */\n      0x01\n        /* \"#utility.yul\":6711:6715   */\n      dup3\n        /* \"#utility.yul\":6707:6719   */\n      and\n        /* \"#utility.yul\":6738:6756   */\n      dup1\n        /* \"#utility.yul\":6728:6809   */\n      tag_292\n      jumpi\n        /* \"#utility.yul\":6794:6798   */\n      0x7f\n        /* \"#utility.yul\":6786:6792   */\n      dup3\n        /* \"#utility.yul\":6782:6799   */\n      and\n        /* \"#utility.yul\":6772:6799   */\n      swap2\n      pop\n        /* \"#utility.yul\":6728:6809   */\n    tag_292:\n        /* \"#utility.yul\":6856:6858   */\n      0x20\n        /* \"#utility.yul\":6848:6854   */\n      dup3\n        /* \"#utility.yul\":6845:6859   */\n      lt\n        /* \"#utility.yul\":6825:6843   */\n      dup2\n        /* \"#utility.yul\":6822:6860   */\n      eq\n        /* \"#utility.yul\":6819:6903   */\n      iszero\n      tag_293\n      jumpi\n        /* \"#utility.yul\":6875:6893   */\n      tag_294\n      tag_193\n      jump\t// in\n    tag_294:\n        /* \"#utility.yul\":6819:6903   */\n    tag_293:\n        /* \"#utility.yul\":6640:6909   */\n      pop\n        /* \"#utility.yul\":6589:6909   */\n      swap2\n      swap1\n      pop\n      jump\t// out\n        /* \"#utility.yul\":6915:7095   */\n    tag_194:\n        /* \"#utility.yul\":6963:7040   */\n      0x4e487b7100000000000000000000000000000000000000000000000000000000\n        /* \"#utility.yul\":6960:6961   */\n      0x00\n        /* \"#utility.yul\":6953:7041   */\n      mstore\n        /* \"#utility.yul\":7060:7064   */\n      0x11\n        /* \"#utility.yul\":7057:7058   */\n      0x04\n        /* \"#utility.yul\":7050:7065   */\n      mstore\n        /* \"#utility.yul\":7084:7088   */\n      0x24\n        /* \"#utility.yul\":7081:7082   */\n      0x00\n        /* \"#utility.yul\":7074:7089   */\n      revert\n        /* \"#utility.yul\":7101:7406   */\n    tag_99:\n        /* \"#utility.yul\":7141:7144   */\n      0x00\n        /* \"#utility.yul\":7160:7180   */\n      tag_297\n        /* \"#utility.yul\":7178:7179   */\n      dup3\n        /* \"#utility.yul\":7160:7180   */\n      tag_184\n      jump\t// in\n    tag_297:\n        /* \"#utility.yul\":7155:7180   */\n      swap2\n      pop\n        /* \"#utility.yul\":7194:7214   */\n      tag_298\n        /* \"#utility.yul\":7212:7213   */\n      dup4\n        /* \"#utility.yul\":7194:7214   */\n      tag_184\n      jump\t// in\n    tag_298:\n        /* \"#utility.yul\":7189:7214   */\n      swap3\n      pop\n        /* \"#utility.yul\":7348:7349   */\n      dup3\n        /* \"#utility.yul\":7280:7346   */\n      0xffffffffffffffffffffffffffffffffffffffffffffffffffffffffffffffff\n        /* \"#utility.yul\":7276:7350   */\n      sub\n        /* \"#utility.yul\":7273:7274   */\n      dup3\n        /* \"#utility.yul\":7270:7351   */\n      gt\n        /* \"#utility.yul\":7267:7374   */\n      iszero\n      tag_299\n      jumpi\n        /* \"#utility.yul\":7354:7372   */\n      tag_300\n      tag_194\n      jump\t// in\n    tag_300:\n        /* \"#utility.yul\":7267:7374   */\n    tag_299:\n        /* \"#utility.yul\":7398:7399   */\n      dup3\n        /* \"#utility.yul\":7395:7396   */\n      dup3\n        /* \"#utility.yul\":7391:7400   */\n      add\n        /* \"#utility.yul\":7384:7400   */\n      swap1\n      pop\n        /* \"#utility.yul\":7101:7406   */\n      swap3\n      swap2\n      pop\n      pop\n      jump\t// out\n        /* \"#utility.yul\":7412:7636   */\n    tag_195:\n        /* \"#utility.yul\":7552:7586   */\n      0x45524332303a2064656372656173656420616c6c6f77616e63652062656c6f77\n        /* \"#utility.yul\":7548:7549   */\n      0x00\n        /* \"#utility.yul\":7540:7546   */\n      dup3\n        /* \"#utility.yul\":7536:7550   */\n      add\n        /* \"#utility.yul\":7529:7587   */\n      mstore\n        /* \"#utility.yul\":7621:7628   */\n      0x207a65726f000000000000000000000000000000000000000000000000000000\n        /* \"#utility.yul\":7616:7618   */\n      0x20\n        /* \"#utility.yul\":7608:7614   */\n      dup3\n        /* \"#utility.yul\":7604:7619   */\n      add\n        /* \"#utility.yul\":7597:7629   */\n      mstore\n        /* \"#utility.yul\":7412:7636   */\n      pop\n      jump\t// out\n        /* \"#utility.yul\":7642:8008   */\n    tag_196:\n        /* \"#utility.yul\":7784:7787   */\n      0x00\n        /* \"#utility.yul\":7805:7872   */\n      tag_303\n        /* \"#utility.yul\":7869:7871   */\n      0x25\n        /* \"#utility.yul\":7864:7867   */\n      dup4\n        /* \"#utility.yul\":7805:7872   */\n      tag_173\n      jump\t// in\n    tag_303:\n        /* \"#utility.yul\":7798:7872   */\n      swap2\n      pop\n        /* \"#utility.yul\":7881:7974   */\n      tag_304\n        /* \"#utility.yul\":7970:7973   */\n      dup3\n        /* \"#utility.yul\":7881:7974   */\n      tag_195\n      jump\t// in\n    tag_304:\n        /* \"#utility.yul\":7999:8001   */\n      0x40\n        /* \"#utility.yul\":7994:7997   */\n      dup3\n        /* \"#utility.yul\":7990:8002   */\n      add\n        /* \"#utility.yul\":7983:8002   */\n      swap1\n      pop\n        /* \"#utility.yul\":7642:8008   */\n      swap2\n      swap1\n      pop\n      jump\t// out\n        /* \"#utility.yul\":8014:8433   */\n    tag_112:\n        /* \"#utility.yul\":8180:8184   */\n      0x00\n        /* \"#utility.yul\":8218:8220   */\n      0x20\n        /* \"#utility.yul\":8207:8216   */\n      dup3\n        /* \"#utility.yul\":8203:8221   */\n      add\n        /* \"#utility.yul\":8195:8221   */\n      swap1\n      pop\n        /* \"#utility.yul\":8267:8276   */\n      dup2\n        /* \"#utility.yul\":8261:8265   */\n      dup2\n        /* \"#utility.yul\":8257:8277   */\n      sub\n        /* \"#utility.yul\":8253:8254   */\n      0x00\n        /* \"#utility.yul\":8242:8251   */\n      dup4\n        /* \"#utility.yul\":8238:8255   */\n      add\n        /* \"#utility.yul\":8231:8278   */\n      mstore\n        /* \"#utility.yul\":8295:8426   */\n      tag_306\n        /* \"#utility.yul\":8421:8425   */\n      dup2\n        /* \"#utility.yul\":8295:8426   */\n      tag_196\n      jump\t// in\n    tag_306:\n        /* \"#utility.yul\":8287:8426   */\n      swap1\n      pop\n        /* \"#utility.yul\":8014:8433   */\n      swap2\n      swap1\n      pop\n      jump\t// out\n        /* \"#utility.yul\":8439:8620   */\n    tag_197:\n        /* \"#utility.yul\":8579:8612   */\n      0x5265656e7472616e637947756172643a207265656e7472616e742063616c6c00\n        /* \"#utility.yul\":8575:8576   */\n      0x00\n        /* \"#utility.yul\":8567:8573   */\n      dup3\n        /* \"#utility.yul\":8563:8577   */\n      add\n        /* \"#utility.yul\":8556:8613   */\n      mstore\n        /* \"#utility.yul\":8439:8620   */\n      pop\n      jump\t// out\n        /* \"#utility.yul\":8626:8992   */\n    tag_198:\n        /* \"#utility.yul\":8768:8771   */\n      0x00\n        /* \"#utility.yul\":8789:8856   */\n      tag_309\n        /* \"#utility.yul\":8853:8855   */\n      0x1f\n        /* \"#utility.yul\":8848:8851   */\n      dup4\n        /* \"#utility.yul\":8789:8856   */\n      tag_173\n      jump\t// in\n    tag_309:\n        /* \"#utility.yul\":8782:8856   */\n      swap2\n      pop\n        /* \"#utility.yul\":8865:8958   */\n      tag_310\n        /* \"#utility.yul\":8954:8957   */\n      dup3\n        /* \"#utility.yul\":8865:8958   */\n      tag_197\n      jump\t// in\n    tag_310:\n        /* \"#utility.yul\":8983:8985   */\n      0x20\n        /* \"#utility.yul\":8978:8981   */\n      dup3\n        /* \"#utility.yul\":8974:8986   */\n      add\n        /* \"#utility.yul\":8967:8986   */\n      swap1\n      pop\n        /* \"#utility.yul\":8626:8992   */\n      swap2\n      swap1\n      pop\n      jump\t// out\n        /* \"#utility.yul\":8998:9417   */\n    tag_120:\n        /* \"#utility.yul\":9164:9168   */\n      0x00\n        /* \"#utility.yul\":9202:9204   */\n      0x20\n        /* \"#utility.yul\":9191:9200   */\n      dup3\n        /* \"#utility.yul\":9187:9205   */\n      add\n        /* \"#utility.yul\":9179:9205   */\n      swap1\n      pop\n        /* \"#utility.yul\":9251:9260   */\n      dup2\n        /* \"#utility.yul\":9245:9249   */\n      dup2\n        /* \"#utility.yul\":9241:9261   */\n      sub\n        /* \"#utility.yul\":9237:9238   */\n      0x00\n        /* \"#utility.yul\":9226:9235   */\n      dup4\n        /* \"#utility.yul\":9222:9239   */\n      add\n        /* \"#utility.yul\":9215:9262   */\n      mstore\n        /* \"#utility.yul\":9279:9410   */\n      tag_312\n        /* \"#utility.yul\":9405:9409   */\n      dup2\n        /* \"#utility.yul\":9279:9410   */\n      tag_198\n      jump\t// in\n    tag_312:\n        /* \"#utility.yul\":9271:9410   */\n      swap1\n      pop\n        /* \"#utility.yul\":8998:9417   */\n      swap2\n      swap1\n      pop\n      jump\t// out\n        /* \"#utility.yul\":9423:9594   */\n    tag_199:\n        /* \"#utility.yul\":9563:9586   */\n      0x4f6e6c79206f776e657220697320616c6c6f7765640000000000000000000000\n        /* \"#utility.yul\":9559:9560   */\n      0x00\n        /* \"#utility.yul\":9551:9557   */\n      dup3\n        /* \"#utility.yul\":9547:9561   */\n      add\n        /* \"#utility.yul\":9540:9587   */\n      mstore\n        /* \"#utility.yul\":9423:9594   */\n      pop\n      jump\t// out\n        /* \"#utility.yul\":9600:9966   */\n    tag_200:\n        /* \"#utility.yul\":9742:9745   */\n      0x00\n        /* \"#utility.yul\":9763:9830   */\n      tag_315\n        /* \"#utility.yul\":9827:9829   */\n      0x15\n        /* \"#utility.yul\":9822:9825   */\n      dup4\n        /* \"#utility.yul\":9763:9830   */\n      tag_173\n      jump\t// in\n    tag_315:\n        /* \"#utility.yul\":9756:9830   */\n      swap2\n      pop\n        /* \"#utility.yul\":9839:9932   */\n      tag_316\n        /* \"#utility.yul\":9928:9931   */\n      dup3\n        /* \"#utility.yul\":9839:9932   */\n      tag_199\n      jump\t// in\n    tag_316:\n        /* \"#utility.yul\":9957:9959   */\n      0x20\n        /* \"#utility.yul\":9952:9955   */\n      dup3\n        /* \"#utility.yul\":9948:9960   */\n      add\n        /* \"#utility.yul\":9941:9960   */\n      swap1\n      pop\n        /* \"#utility.yul\":9600:9966   */\n      swap2\n      swap1\n      pop\n      jump\t// out\n        /* \"#utility.yul\":9972:10391   */\n    tag_124:\n        /* \"#utility.yul\":10138:10142   */\n      0x00\n        /* \"#utility.yul\":10176:10178   */\n      0x20\n        /* \"#utility.yul\":10165:10174   */\n      dup3\n        /* \"#utility.yul\":10161:10179   */\n      add\n        /* \"#utility.yul\":10153:10179   */\n      swap1\n      pop\n        /* \"#utility.yul\":10225:10234   */\n      dup2\n        /* \"#utility.yul\":10219:10223   */\n      dup2\n        /* \"#utility.yul\":10215:10235   */\n      sub\n        /* \"#utility.yul\":10211:10212   */\n      0x00\n        /* \"#utility.yul\":10200:10209   */\n      dup4\n        /* \"#utility.yul\":10196:10213   */\n      add\n        /* \"#utility.yul\":10189:10236   */\n      mstore\n        /* \"#utility.yul\":10253:10384   */\n      tag_318\n        /* \"#utility.yul\":10379:10383   */\n      dup2\n        /* \"#utility.yul\":10253:10384   */\n      tag_200\n      jump\t// in\n    tag_318:\n        /* \"#utility.yul\":10245:10384   */\n      swap1\n      pop\n        /* \"#utility.yul\":9972:10391   */\n      swap2\n      swap1\n      pop\n      jump\t// out\n        /* \"#utility.yul\":10397:10620   */\n    tag_201:\n        /* \"#utility.yul\":10537:10571   */\n      0x45524332303a20617070726f76652066726f6d20746865207a65726f20616464\n        /* \"#utility.yul\":10533:10534   */\n      0x00\n        /* \"#utility.yul\":10525:10531   */\n      dup3\n        /* \"#utility.yul\":10521:10535   */\n      add\n        /* \"#utility.yul\":10514:10572   */\n      mstore\n        /* \"#utility.yul\":10606:10612   */\n      0x7265737300000000000000000000000000000000000000000000000000000000\n        /* \"#utility.yul\":10601:10603   */\n      0x20\n        /* \"#utility.yul\":10593:10599   */\n      dup3\n        /* \"#utility.yul\":10589:10604   */\n      add\n        /* \"#utility.yul\":10582:10613   */\n      mstore\n        /* \"#utility.yul\":10397:10620   */\n      pop\n      jump\t// out\n        /* \"#utility.yul\":10626:10992   */\n    tag_202:\n        /* \"#utility.yul\":10768:10771   */\n      0x00\n        /* \"#utility.yul\":10789:10856   */\n      tag_321\n        /* \"#utility.yul\":10853:10855   */\n      0x24\n        /* \"#utility.yul\":10848:10851   */\n      dup4\n        /* \"#utility.yul\":10789:10856   */\n      tag_173\n      jump\t// in\n    tag_321:\n        /* \"#utility.yul\":10782:10856   */\n      swap2\n      pop\n        /* \"#utility.yul\":10865:10958   */\n      tag_322\n        /* \"#utility.yul\":10954:10957   */\n      dup3\n        /* \"#utility.yul\":10865:10958   */\n      tag_201\n      jump\t// in\n    tag_322:\n        /* \"#utility.yul\":10983:10985   */\n      0x40\n        /* \"#utility.yul\":10978:10981   */\n      dup3\n        /* \"#utility.yul\":10974:10986   */\n      add\n        /* \"#utility.yul\":10967:10986   */\n      swap1\n      pop\n        /* \"#utility.yul\":10626:10992   */\n      swap2\n      swap1\n      pop\n      jump\t// out\n        /* \"#utility.yul\":10998:11417   */\n    tag_133:\n        /* \"#utility.yul\":11164:11168   */\n      0x00\n        /* \"#utility.yul\":11202:11204   */\n      0x20\n        /* \"#utility.yul\":11191:11200   */\n      dup3\n        /* \"#utility.yul\":11187:11205   */\n      add\n        /* \"#utility.yul\":11179:11205   */\n      swap1\n      pop\n        /* \"#utility.yul\":11251:11260   */\n      dup2\n        /* \"#utility.yul\":11245:11249   */\n      dup2\n        /* \"#utility.yul\":11241:11261   */\n      sub\n        /* \"#utility.yul\":11237:11238   */\n      0x00\n        /* \"#utility.yul\":11226:11235   */\n      dup4\n        /* \"#utility.yul\":11222:11239   */\n      add\n        /* \"#utility.yul\":11215:11262   */\n      mstore\n        /* \"#utility.yul\":11279:11410   */\n      tag_324\n        /* \"#utility.yul\":11405:11409   */\n      dup2\n        /* \"#utility.yul\":11279:11410   */\n      tag_202\n      jump\t// in\n    tag_324:\n        /* \"#utility.yul\":11271:11410   */\n      swap1\n      pop\n        /* \"#utility.yul\":10998:11417   */\n      swap2\n      swap1\n      pop\n      jump\t// out\n        /* \"#utility.yul\":11423:11644   */\n    tag_203:\n        /* \"#utility.yul\":11563:11597   */\n      0x45524332303a20617070726f766520746f20746865207a65726f206164647265\n        /* \"#utility.yul\":11559:11560   */\n      0x00\n        /* \"#utility.yul\":11551:11557   */\n      dup3\n        /* \"#utility.yul\":11547:11561   */\n      add\n        /* \"#utility.yul\":11540:11598   */\n      mstore\n        /* \"#utility.yul\":11632:11636   */\n      0x7373000000000000000000000000000000000000000000000000000000000000\n        /* \"#utility.yul\":11627:11629   */\n      0x20\n        /* \"#utility.yul\":11619:11625   */\n      dup3\n        /* \"#utility.yul\":11615:11630   */\n      add\n        /* \"#utility.yul\":11608:11637   */\n      mstore\n        /* \"#utility.yul\":11423:11644   */\n      pop\n      jump\t// out\n        /* \"#utility.yul\":11650:12016   */\n    tag_204:\n        /* \"#utility.yul\":11792:11795   */\n      0x00\n        /* \"#utility.yul\":11813:11880   */\n      tag_327\n        /* \"#utility.yul\":11877:11879   */\n      0x22\n        /* \"#utility.yul\":11872:11875   */\n      dup4\n        /* \"#utility.yul\":11813:11880   */\n      tag_173\n      jump\t// in\n    tag_327:\n        /* \"#utility.yul\":11806:11880   */\n      swap2\n      pop\n        /* \"#utility.yul\":11889:11982   */\n      tag_328\n        /* \"#utility.yul\":11978:11981   */\n      dup3\n        /* \"#utility.yul\":11889:11982   */\n      tag_203\n      jump\t// in\n    tag_328:\n        /* \"#utility.yul\":12007:12009   */\n      0x40\n        /* \"#utility.yul\":12002:12005   */\n      dup3\n        /* \"#utility.yul\":11998:12010   */\n      add\n        /* \"#utility.yul\":11991:12010   */\n      swap1\n      pop\n        /* \"#utility.yul\":11650:12016   */\n      swap2\n      swap1\n      pop\n      jump\t// out\n        /* \"#utility.yul\":12022:12441   */\n    tag_136:\n        /* \"#utility.yul\":12188:12192   */\n      0x00\n        /* \"#utility.yul\":12226:12228   */\n      0x20\n        /* \"#utility.yul\":12215:12224   */\n      dup3\n        /* \"#utility.yul\":12211:12229   */\n      add\n        /* \"#utility.yul\":12203:12229   */\n      swap1\n      pop\n        /* \"#utility.yul\":12275:12284   */\n      dup2\n        /* \"#utility.yul\":12269:12273   */\n      dup2\n        /* \"#utility.yul\":12265:12285   */\n      sub\n        /* \"#utility.yul\":12261:12262   */\n      0x00\n        /* \"#utility.yul\":12250:12259   */\n      dup4\n        /* \"#utility.yul\":12246:12263   */\n      add\n        /* \"#utility.yul\":12239:12286   */\n      mstore\n        /* \"#utility.yul\":12303:12434   */\n      tag_330\n        /* \"#utility.yul\":12429:12433   */\n      dup2\n        /* \"#utility.yul\":12303:12434   */\n      tag_204\n      jump\t// in\n    tag_330:\n        /* \"#utility.yul\":12295:12434   */\n      swap1\n      pop\n        /* \"#utility.yul\":12022:12441   */\n      swap2\n      swap1\n      pop\n      jump\t// out\n        /* \"#utility.yul\":12447:12626   */\n    tag_205:\n        /* \"#utility.yul\":12587:12618   */\n      0x45524332303a20696e73756666696369656e7420616c6c6f77616e6365000000\n        /* \"#utility.yul\":12583:12584   */\n      0x00\n        /* \"#utility.yul\":12575:12581   */\n      dup3\n        /* \"#utility.yul\":12571:12585   */\n      add\n        /* \"#utility.yul\":12564:12619   */\n      mstore\n        /* \"#utility.yul\":12447:12626   */\n      pop\n      jump\t// out\n        /* \"#utility.yul\":12632:12998   */\n    tag_206:\n        /* \"#utility.yul\":12774:12777   */\n      0x00\n        /* \"#utility.yul\":12795:12862   */\n      tag_333\n        /* \"#utility.yul\":12859:12861   */\n      0x1d\n        /* \"#utility.yul\":12854:12857   */\n      dup4\n        /* \"#utility.yul\":12795:12862   */\n      tag_173\n      jump\t// in\n    tag_333:\n        /* \"#utility.yul\":12788:12862   */\n      swap2\n      pop\n        /* \"#utility.yul\":12871:12964   */\n      tag_334\n        /* \"#utility.yul\":12960:12963   */\n      dup3\n        /* \"#utility.yul\":12871:12964   */\n      tag_205\n      jump\t// in\n    tag_334:\n        /* \"#utility.yul\":12989:12991   */\n      0x20\n        /* \"#utility.yul\":12984:12987   */\n      dup3\n        /* \"#utility.yul\":12980:12992   */\n      add\n        /* \"#utility.yul\":12973:12992   */\n      swap1\n      pop\n        /* \"#utility.yul\":12632:12998   */\n      swap2\n      swap1\n      pop\n      jump\t// out\n        /* \"#utility.yul\":13004:13423   */\n    tag_143:\n        /* \"#utility.yul\":13170:13174   */\n      0x00\n        /* \"#utility.yul\":13208:13210   */\n      0x20\n        /* \"#utility.yul\":13197:13206   */\n      dup3\n        /* \"#utility.yul\":13193:13211   */\n      add\n        /* \"#utility.yul\":13185:13211   */\n      swap1\n      pop\n        /* \"#utility.yul\":13257:13266   */\n      dup2\n        /* \"#utility.yul\":13251:13255   */\n      dup2\n        /* \"#utility.yul\":13247:13267   */\n      sub\n        /* \"#utility.yul\":13243:13244   */\n      0x00\n        /* \"#utility.yul\":13232:13241   */\n      dup4\n        /* \"#utility.yul\":13228:13245   */\n      add\n        /* \"#utility.yul\":13221:13268   */\n      mstore\n        /* \"#utility.yul\":13285:13416   */\n      tag_336\n        /* \"#utility.yul\":13411:13415   */\n      dup2\n        /* \"#utility.yul\":13285:13416   */\n      tag_206\n      jump\t// in\n    tag_336:\n        /* \"#utility.yul\":13277:13416   */\n      swap1\n      pop\n        /* \"#utility.yul\":13004:13423   */\n      swap2\n      swap1\n      pop\n      jump\t// out\n        /* \"#utility.yul\":13429:13653   */\n    tag_207:\n        /* \"#utility.yul\":13569:13603   */\n      0x45524332303a207472616e736665722066726f6d20746865207a65726f206164\n        /* \"#utility.yul\":13565:13566   */\n      0x00\n        /* \"#utility.yul\":13557:13563   */\n      dup3\n        /* \"#utility.yul\":13553:13567   */\n      add\n        /* \"#utility.yul\":13546:13604   */\n      mstore\n        /* \"#utility.yul\":13638:13645   */\n      0x6472657373000000000000000000000000000000000000000000000000000000\n        /* \"#utility.yul\":13633:13635   */\n      0x20\n        /* \"#utility.yul\":13625:13631   */\n      dup3\n        /* \"#utility.yul\":13621:13636   */\n      add\n        /* \"#utility.yul\":13614:13646   */\n      mstore\n        /* \"#utility.yul\":13429:13653   */\n      pop\n      jump\t// out\n        /* \"#utility.yul\":13659:14025   */\n    tag_208:\n        /* \"#utility.yul\":13801:13804   */\n      0x00\n        /* \"#utility.yul\":13822:13889   */\n      tag_339\n        /* \"#utility.yul\":13886:13888   */\n      0x25\n        /* \"#utility.yul\":13881:13884   */\n      dup4\n        /* \"#utility.yul\":13822:13889   */\n      tag_173\n      jump\t// in\n    tag_339:\n        /* \"#utility.yul\":13815:13889   */\n      swap2\n      pop\n        /* \"#utility.yul\":13898:13991   */\n      tag_340\n        /* \"#utility.yul\":13987:13990   */\n      dup3\n        /* \"#utility.yul\":13898:13991   */\n      tag_207\n      jump\t// in\n    tag_340:\n        /* \"#utility.yul\":14016:14018   */\n      0x40\n        /* \"#utility.yul\":14011:14014   */\n      dup3\n        /* \"#utility.yul\":14007:14019   */\n      add\n        /* \"#utility.yul\":14000:14019   */\n      swap1\n      pop\n        /* \"#utility.yul\":13659:14025   */\n      swap2\n      swap1\n      pop\n      jump\t// out\n        /* \"#utility.yul\":14031:14450   */\n    tag_148:\n        /* \"#utility.yul\":14197:14201   */\n      0x00\n        /* \"#utility.yul\":14235:14237   */\n      0x20\n        /* \"#utility.yul\":14224:14233   */\n      dup3\n        /* \"#utility.yul\":14220:14238   */\n      add\n        /* \"#utility.yul\":14212:14238   */\n      swap1\n      pop\n        /* \"#utility.yul\":14284:14293   */\n      dup2\n        /* \"#utility.yul\":14278:14282   */\n      dup2\n        /* \"#utility.yul\":14274:14294   */\n      sub\n        /* \"#utility.yul\":14270:14271   */\n      0x00\n        /* \"#utility.yul\":14259:14268   */\n      dup4\n        /* \"#utility.yul\":14255:14272   */\n      add\n        /* \"#utility.yul\":14248:14295   */\n      mstore\n        /* \"#utility.yul\":14312:14443   */\n      tag_342\n        /* \"#utility.yul\":14438:14442   */\n      dup2\n        /* \"#utility.yul\":14312:14443   */\n      tag_208\n      jump\t// in\n    tag_342:\n        /* \"#utility.yul\":14304:14443   */\n      swap1\n      pop\n        /* \"#utility.yul\":14031:14450   */\n      swap2\n      swap1\n      pop\n      jump\t// out\n        /* \"#utility.yul\":14456:14678   */\n    tag_209:\n        /* \"#utility.yul\":14596:14630   */\n      0x45524332303a207472616e7366657220746f20746865207a65726f2061646472\n        /* \"#utility.yul\":14592:14593   */\n      0x00\n        /* \"#utility.yul\":14584:14590   */\n      dup3\n        /* \"#utility.yul\":14580:14594   */\n      add\n        /* \"#utility.yul\":14573:14631   */\n      mstore\n        /* \"#utility.yul\":14665:14670   */\n      0x6573730000000000000000000000000000000000000000000000000000000000\n        /* \"#utility.yul\":14660:14662   */\n      0x20\n        /* \"#utility.yul\":14652:14658   */\n      dup3\n        /* \"#utility.yul\":14648:14663   */\n      add\n        /* \"#utility.yul\":14641:14671   */\n      mstore\n        /* \"#utility.yul\":14456:14678   */\n      pop\n      jump\t// out\n        /* \"#utility.yul\":14684:15050   */\n    tag_210:\n        /* \"#utility.yul\":14826:14829   */\n      0x00\n        /* \"#utility.yul\":14847:14914   */\n      tag_345\n        /* \"#utility.yul\":14911:14913   */\n      0x23\n        /* \"#utility.yul\":14906:14909   */\n      dup4\n        /* \"#utility.yul\":14847:14914   */\n      tag_173\n      jump\t// in\n    tag_345:\n        /* \"#utility.yul\":14840:14914   */\n      swap2\n      pop\n        /* \"#utility.yul\":14923:15016   */\n      tag_346\n        /* \"#utility.yul\":15012:15015   */\n      dup3\n        /* \"#utility.yul\":14923:15016   */\n      tag_209\n      jump\t// in\n    tag_346:\n        /* \"#utility.yul\":15041:15043   */\n      0x40\n        /* \"#utility.yul\":15036:15039   */\n      dup3\n        /* \"#utility.yul\":15032:15044   */\n      add\n        /* \"#utility.yul\":15025:15044   */\n      swap1\n      pop\n        /* \"#utility.yul\":14684:15050   */\n      swap2\n      swap1\n      pop\n      jump\t// out\n        /* \"#utility.yul\":15056:15475   */\n    tag_151:\n        /* \"#utility.yul\":15222:15226   */\n      0x00\n        /* \"#utility.yul\":15260:15262   */\n      0x20\n        /* \"#utility.yul\":15249:15258   */\n      dup3\n        /* \"#utility.yul\":15245:15263   */\n      add\n        /* \"#utility.yul\":15237:15263   */\n      swap1\n      pop\n        /* \"#utility.yul\":15309:15318   */\n      dup2\n        /* \"#utility.yul\":15303:15307   */\n      dup2\n        /* \"#utility.yul\":15299:15319   */\n      sub\n        /* \"#utility.yul\":15295:15296   */\n      0x00\n        /* \"#utility.yul\":15284:15293   */\n      dup4\n        /* \"#utility.yul\":15280:15297   */\n      add\n        /* \"#utility.yul\":15273:15320   */\n      mstore\n        /* \"#utility.yul\":15337:15468   */\n      tag_348\n        /* \"#utility.yul\":15463:15467   */\n      dup2\n        /* \"#utility.yul\":15337:15468   */\n      tag_210\n      jump\t// in\n    tag_348:\n        /* \"#utility.yul\":15329:15468   */\n      swap1\n      pop\n        /* \"#utility.yul\":15056:15475   */\n      swap2\n      swap1\n      pop\n      jump\t// out\n        /* \"#utility.yul\":15481:15706   */\n    tag_211:\n        /* \"#utility.yul\":15621:15655   */\n      0x45524332303a207472616e7366657220616d6f756e7420657863656564732062\n        /* \"#utility.yul\":15617:15618   */\n      0x00\n        /* \"#utility.yul\":15609:15615   */\n      dup3\n        /* \"#utility.yul\":15605:15619   */\n      add\n        /* \"#utility.yul\":15598:15656   */\n      mstore\n        /* \"#utility.yul\":15690:15698   */\n      0x616c616e63650000000000000000000000000000000000000000000000000000\n        /* \"#utility.yul\":15685:15687   */\n      0x20\n        /* \"#utility.yul\":15677:15683   */\n      dup3\n        /* \"#utility.yul\":15673:15688   */\n      add\n        /* \"#utility.yul\":15666:15699   */\n      mstore\n        /* \"#utility.yul\":15481:15706   */\n      pop\n      jump\t// out\n        /* \"#utility.yul\":15712:16078   */\n    tag_212:\n        /* \"#utility.yul\":15854:15857   */\n      0x00\n        /* \"#utility.yul\":15875:15942   */\n      tag_351\n        /* \"#utility.yul\":15939:15941   */\n      0x26\n        /* \"#utility.yul\":15934:15937   */\n      dup4\n        /* \"#utility.yul\":15875:15942   */\n      tag_173\n      jump\t// in\n    tag_351:\n        /* \"#utility.yul\":15868:15942   */\n      swap2\n      pop\n        /* \"#utility.yul\":15951:16044   */\n      tag_352\n        /* \"#utility.yul\":16040:16043   */\n      dup3\n        /* \"#utility.yul\":15951:16044   */\n      tag_211\n      jump\t// in\n    tag_352:\n        /* \"#utility.yul\":16069:16071   */\n      0x40\n        /* \"#utility.yul\":16064:16067   */\n      dup3\n        /* \"#utility.yul\":16060:16072   */\n      add\n        /* \"#utility.yul\":16053:16072   */\n      swap1\n      pop\n        /* \"#utility.yul\":15712:16078   */\n      swap2\n      swap1\n      pop\n      jump\t// out\n        /* \"#utility.yul\":16084:16503   */\n    tag_156:\n        /* \"#utility.yul\":16250:16254   */\n      0x00\n        /* \"#utility.yul\":16288:16290   */\n      0x20\n        /* \"#utility.yul\":16277:16286   */\n      dup3\n        /* \"#utility.yul\":16273:16291   */\n      add\n        /* \"#utility.yul\":16265:16291   */\n      swap1\n      pop\n        /* \"#utility.yul\":16337:16346   */\n      dup2\n        /* \"#utility.yul\":16331:16335   */\n      dup2\n        /* \"#utility.yul\":16327:16347   */\n      sub\n        /* \"#utility.yul\":16323:16324   */\n      0x00\n        /* \"#utility.yul\":16312:16321   */\n      dup4\n        /* \"#utility.yul\":16308:16325   */\n      add\n        /* \"#utility.yul\":16301:16348   */\n      mstore\n        /* \"#utility.yul\":16365:16496   */\n      tag_354\n        /* \"#utility.yul\":16491:16495   */\n      dup2\n        /* \"#utility.yul\":16365:16496   */\n      tag_212\n      jump\t// in\n    tag_354:\n        /* \"#utility.yul\":16357:16496   */\n      swap1\n      pop\n        /* \"#utility.yul\":16084:16503   */\n      swap2\n      swap1\n      pop\n      jump\t// out\n        /* \"#utility.yul\":16509:16690   */\n    tag_213:\n        /* \"#utility.yul\":16649:16682   */\n      0x45524332303a206d696e7420746f20746865207a65726f206164647265737300\n        /* \"#utility.yul\":16645:16646   */\n      0x00\n        /* \"#utility.yul\":16637:16643   */\n      dup3\n        /* \"#utility.yul\":16633:16647   */\n      add\n        /* \"#utility.yul\":16626:16683   */\n      mstore\n        /* \"#utility.yul\":16509:16690   */\n      pop\n      jump\t// out\n        /* \"#utility.yul\":16696:17062   */\n    tag_214:\n        /* \"#utility.yul\":16838:16841   */\n      0x00\n        /* \"#utility.yul\":16859:16926   */\n      tag_357\n        /* \"#utility.yul\":16923:16925   */\n      0x1f\n        /* \"#utility.yul\":16918:16921   */\n      dup4\n        /* \"#utility.yul\":16859:16926   */\n      tag_173\n      jump\t// in\n    tag_357:\n        /* \"#utility.yul\":16852:16926   */\n      swap2\n      pop\n        /* \"#utility.yul\":16935:17028   */\n      tag_358\n        /* \"#utility.yul\":17024:17027   */\n      dup3\n        /* \"#utility.yul\":16935:17028   */\n      tag_213\n      jump\t// in\n    tag_358:\n        /* \"#utility.yul\":17053:17055   */\n      0x20\n        /* \"#utility.yul\":17048:17051   */\n      dup3\n        /* \"#utility.yul\":17044:17056   */\n      add\n        /* \"#utility.yul\":17037:17056   */\n      swap1\n      pop\n        /* \"#utility.yul\":16696:17062   */\n      swap2\n      swap1\n      pop\n      jump\t// out\n        /* \"#utility.yul\":17068:17487   */\n    tag_164:\n        /* \"#utility.yul\":17234:17238   */\n      0x00\n        /* \"#utility.yul\":17272:17274   */\n      0x20\n        /* \"#utility.yul\":17261:17270   */\n      dup3\n        /* \"#utility.yul\":17257:17275   */\n      add\n        /* \"#utility.yul\":17249:17275   */\n      swap1\n      pop\n        /* \"#utility.yul\":17321:17330   */\n      dup2\n        /* \"#utility.yul\":17315:17319   */\n      dup2\n        /* \"#utility.yul\":17311:17331   */\n      sub\n        /* \"#utility.yul\":17307:17308   */\n      0x00\n        /* \"#utility.yul\":17296:17305   */\n      dup4\n        /* \"#utility.yul\":17292:17309   */\n      add\n        /* \"#utility.yul\":17285:17332   */\n      mstore\n        /* \"#utility.yul\":17349:17480   */\n      tag_360\n        /* \"#utility.yul\":17475:17479   */\n      dup2\n        /* \"#utility.yul\":17349:17480   */\n      tag_214\n      jump\t// in\n    tag_360:\n        /* \"#utility.yul\":17341:17480   */\n      swap1\n      pop\n        /* \"#utility.yul\":17068:17487   */\n      swap2\n      swap1\n      pop\n      jump\t// out\n\n    auxdata: 0xa2646970667358221220d7480165db1baf656098489ebc9ce8009c13a1aea3a2582530c28a2021b245f764736f6c63430008090033\n}\n",
				"bytecode": {
					"linkReferences": {},
					"object": "60806040523480156200001157600080fd5b5060405162001b0338038062001b0383398181016040528101906200003791906200030b565b8181816003908051906020019062000051929190620000be565b5080600490805190602001906200006a929190620000be565b505050600160058190555033600660006101000a81548173ffffffffffffffffffffffffffffffffffffffff021916908373ffffffffffffffffffffffffffffffffffffffff1602179055505050620003f5565b828054620000cc90620003bf565b90600052602060002090601f016020900481019282620000f057600085556200013c565b82601f106200010b57805160ff19168380011785556200013c565b828001600101855582156200013c579182015b828111156200013b5782518255916020019190600101906200011e565b5b5090506200014b91906200014f565b5090565b5b808211156200016a57600081600090555060010162000150565b5090565b6000604051905090565b600080fd5b600080fd5b600080fd5b600080fd5b6000601f19601f8301169050919050565b7f4e487b7100000000000000000000000000000000000000000000000000000000600052604160045260246000fd5b620001d7826200018c565b810181811067ffffffffffffffff82111715620001f957620001f86200019d565b5b80604052505050565b60006200020e6200016e565b90506200021c8282620001cc565b919050565b600067ffffffffffffffff8211156200023f576200023e6200019d565b5b6200024a826200018c565b9050602081019050919050565b60005b83811015620002775780820151818401526020810190506200025a565b8381111562000287576000848401525b50505050565b6000620002a46200029e8462000221565b62000202565b905082815260208101848484011115620002c357620002c262000187565b5b620002d084828562000257565b509392505050565b600082601f830112620002f057620002ef62000182565b5b8151620003028482602086016200028d565b91505092915050565b6000806040838503121562000325576200032462000178565b5b600083015167ffffffffffffffff8111156200034657620003456200017d565b5b6200035485828601620002d8565b925050602083015167ffffffffffffffff8111156200037857620003776200017d565b5b6200038685828601620002d8565b9150509250929050565b7f4e487b7100000000000000000000000000000000000000000000000000000000600052602260045260246000fd5b60006002820490506001821680620003d857607f821691505b60208210811415620003ef57620003ee62000390565b5b50919050565b6116fe80620004056000396000f3fe608060405234801561001057600080fd5b50600436106100cf5760003560e01c806370a082311161008c578063a457c2d711610066578063a457c2d71461022a578063a9059cbb1461025a578063c634d0321461028a578063dd62ed3e146102a6576100cf565b806370a08231146101be5780638da5cb5b146101ee57806395d89b411461020c576100cf565b806306fdde03146100d4578063095ea7b3146100f257806318160ddd1461012257806323b872dd14610140578063313ce56714610170578063395093511461018e575b600080fd5b6100dc6102d6565b6040516100e99190610e1d565b60405180910390f35b61010c60048036038101906101079190610ed8565b610368565b6040516101199190610f33565b60405180910390f35b61012a61038b565b6040516101379190610f5d565b60405180910390f35b61015a60048036038101906101559190610f78565b610395565b6040516101679190610f33565b60405180910390f35b6101786103c4565b6040516101859190610fe7565b60405180910390f35b6101a860048036038101906101a39190610ed8565b6103cd565b6040516101b59190610f33565b60405180910390f35b6101d860048036038101906101d39190611002565b610404565b6040516101e59190610f5d565b60405180910390f35b6101f661044c565b604051610203919061103e565b60405180910390f35b610214610472565b6040516102219190610e1d565b60405180910390f35b610244600480360381019061023f9190610ed8565b610504565b6040516102519190610f33565b60405180910390f35b610274600480360381019061026f9190610ed8565b61057b565b6040516102819190610f33565b60405180910390f35b6102a4600480360381019061029f9190611059565b61059e565b005b6102c060048036038101906102bb9190611086565b6106b3565b6040516102cd9190610f5d565b60405180910390f35b6060600380546102e5906110f5565b80601f0160208091040260200160405190810160405280929190818152602001828054610311906110f5565b801561035e5780601f106103335761010080835404028352916020019161035e565b820191906000526020600020905b81548152906001019060200180831161034157829003601f168201915b5050505050905090565b60008061037361073a565b9050610380818585610742565b600191505092915050565b6000600254905090565b6000806103a061073a565b90506103ad85828561090d565b6103b8858585610999565b60019150509392505050565b60006012905090565b6000806103d861073a565b90506103f98185856103ea85896106b3565b6103f49190611156565b610742565b600191505092915050565b60008060008373ffffffffffffffffffffffffffffffffffffffff1673ffffffffffffffffffffffffffffffffffffffff168152602001908152602001600020549050919050565b600660009054906101000a900473ffffffffffffffffffffffffffffffffffffffff1681565b606060048054610481906110f5565b80601f01602080910402602001604051908101604052809291908181526020018280546104ad906110f5565b80156104fa5780601f106104cf576101008083540402835291602001916104fa565b820191906000526020600020905b8154815290600101906020018083116104dd57829003601f168201915b5050505050905090565b60008061050f61073a565b9050600061051d82866106b3565b905083811015610562576040517f08c379a00000000000000000000000000000000000000000000000000000000081526004016105599061121e565b60405180910390fd5b61056f8286868403610742565b60019250505092915050565b60008061058661073a565b9050610593818585610999565b600191505092915050565b600260055414156105e4576040517f08c379a00000000000000000000000000000000000000000000000000000000081526004016105db9061128a565b60405180910390fd5b60026005819055503373ffffffffffffffffffffffffffffffffffffffff16600660009054906101000a900473ffffffffffffffffffffffffffffffffffffffff1673ffffffffffffffffffffffffffffffffffffffff161461067c576040517f08c379a0000000000000000000000000000000000000000000000000000000008152600401610673906112f6565b60405180910390fd5b6106a8600660009054906101000a900473ffffffffffffffffffffffffffffffffffffffff1682610c1a565b600160058190555050565b6000600160008473ffffffffffffffffffffffffffffffffffffffff1673ffffffffffffffffffffffffffffffffffffffff16815260200190815260200160002060008373ffffffffffffffffffffffffffffffffffffffff1673ffffffffffffffffffffffffffffffffffffffff16815260200190815260200160002054905092915050565b600033905090565b600073ffffffffffffffffffffffffffffffffffffffff168373ffffffffffffffffffffffffffffffffffffffff1614156107b2576040517f08c379a00000000000000000000000000000000000000000000000000000000081526004016107a990611388565b60405180910390fd5b600073ffffffffffffffffffffffffffffffffffffffff168273ffffffffffffffffffffffffffffffffffffffff161415610822576040517f08c379a00000000000000000000000000000000000000000000000000000000081526004016108199061141a565b60405180910390fd5b80600160008573ffffffffffffffffffffffffffffffffffffffff1673ffffffffffffffffffffffffffffffffffffffff16815260200190815260200160002060008473ffffffffffffffffffffffffffffffffffffffff1673ffffffffffffffffffffffffffffffffffffffff168152602001908152602001600020819055508173ffffffffffffffffffffffffffffffffffffffff168373ffffffffffffffffffffffffffffffffffffffff167f8c5be1e5ebec7d5bd14f71427d1e84f3dd0314c0f7b2291e5b200ac8c7c3b925836040516109009190610f5d565b60405180910390a3505050565b600061091984846106b3565b90507fffffffffffffffffffffffffffffffffffffffffffffffffffffffffffffffff81146109935781811015610985576040517f08c379a000000000000000000000000000000000000000000000000000000000815260040161097c90611486565b60405180910390fd5b6109928484848403610742565b5b50505050565b600073ffffffffffffffffffffffffffffffffffffffff168373ffffffffffffffffffffffffffffffffffffffff161415610a09576040517f08c379a0000000000000000000000000000000000000000000000000000000008152600401610a0090611518565b60405180910390fd5b600073ffffffffffffffffffffffffffffffffffffffff168273ffffffffffffffffffffffffffffffffffffffff161415610a79576040517f08c379a0000000000000000000000000000000000000000000000000000000008152600401610a70906115aa565b60405180910390fd5b610a84838383610d7a565b60008060008573ffffffffffffffffffffffffffffffffffffffff1673ffffffffffffffffffffffffffffffffffffffff16815260200190815260200160002054905081811015610b0a576040517f08c379a0000000000000000000000000000000000000000000000000000000008152600401610b019061163c565b60405180910390fd5b8181036000808673ffffffffffffffffffffffffffffffffffffffff1673ffffffffffffffffffffffffffffffffffffffff16815260200190815260200160002081905550816000808573ffffffffffffffffffffffffffffffffffffffff1673ffffffffffffffffffffffffffffffffffffffff1681526020019081526020016000206000828254610b9d9190611156565b925050819055508273ffffffffffffffffffffffffffffffffffffffff168473ffffffffffffffffffffffffffffffffffffffff167fddf252ad1be2c89b69c2b068fc378daa952ba7f163c4a11628f55a4df523b3ef84604051610c019190610f5d565b60405180910390a3610c14848484610d7f565b50505050565b600073ffffffffffffffffffffffffffffffffffffffff168273ffffffffffffffffffffffffffffffffffffffff161415610c8a576040517f08c379a0000000000000000000000000000000000000000000000000000000008152600401610c81906116a8565b60405180910390fd5b610c9660008383610d7a565b8060026000828254610ca89190611156565b92505081905550806000808473ffffffffffffffffffffffffffffffffffffffff1673ffffffffffffffffffffffffffffffffffffffff1681526020019081526020016000206000828254610cfd9190611156565b925050819055508173ffffffffffffffffffffffffffffffffffffffff16600073ffffffffffffffffffffffffffffffffffffffff167fddf252ad1be2c89b69c2b068fc378daa952ba7f163c4a11628f55a4df523b3ef83604051610d629190610f5d565b60405180910390a3610d7660008383610d7f565b5050565b505050565b505050565b600081519050919050565b600082825260208201905092915050565b60005b83811015610dbe578082015181840152602081019050610da3565b83811115610dcd576000848401525b50505050565b6000601f19601f8301169050919050565b6000610def82610d84565b610df98185610d8f565b9350610e09818560208601610da0565b610e1281610dd3565b840191505092915050565b60006020820190508181036000830152610e378184610de4565b905092915050565b600080fd5b600073ffffffffffffffffffffffffffffffffffffffff82169050919050565b6000610e6f82610e44565b9050919050565b610e7f81610e64565b8114610e8a57600080fd5b50565b600081359050610e9c81610e76565b92915050565b6000819050919050565b610eb581610ea2565b8114610ec057600080fd5b50565b600081359050610ed281610eac565b92915050565b60008060408385031215610eef57610eee610e3f565b5b6000610efd85828601610e8d565b9250506020610f0e85828601610ec3565b9150509250929050565b60008115159050919050565b610f2d81610f18565b82525050565b6000602082019050610f486000830184610f24565b92915050565b610f5781610ea2565b82525050565b6000602082019050610f726000830184610f4e565b92915050565b600080600060608486031215610f9157610f90610e3f565b5b6000610f9f86828701610e8d565b9350506020610fb086828701610e8d565b9250506040610fc186828701610ec3565b9150509250925092565b600060ff82169050919050565b610fe181610fcb565b82525050565b6000602082019050610ffc6000830184610fd8565b92915050565b60006020828403121561101857611017610e3f565b5b600061102684828501610e8d565b91505092915050565b61103881610e64565b82525050565b6000602082019050611053600083018461102f565b92915050565b60006020828403121561106f5761106e610e3f565b5b600061107d84828501610ec3565b91505092915050565b6000806040838503121561109d5761109c610e3f565b5b60006110ab85828601610e8d565b92505060206110bc85828601610e8d565b9150509250929050565b7f4e487b7100000000000000000000000000000000000000000000000000000000600052602260045260246000fd5b6000600282049050600182168061110d57607f821691505b60208210811415611121576111206110c6565b5b50919050565b7f4e487b7100000000000000000000000000000000000000000000000000000000600052601160045260246000fd5b600061116182610ea2565b915061116c83610ea2565b9250827fffffffffffffffffffffffffffffffffffffffffffffffffffffffffffffffff038211156111a1576111a0611127565b5b828201905092915050565b7f45524332303a2064656372656173656420616c6c6f77616e63652062656c6f7760008201527f207a65726f000000000000000000000000000000000000000000000000000000602082015250565b6000611208602583610d8f565b9150611213826111ac565b604082019050919050565b60006020820190508181036000830152611237816111fb565b9050919050565b7f5265656e7472616e637947756172643a207265656e7472616e742063616c6c00600082015250565b6000611274601f83610d8f565b915061127f8261123e565b602082019050919050565b600060208201905081810360008301526112a381611267565b9050919050565b7f4f6e6c79206f776e657220697320616c6c6f7765640000000000000000000000600082015250565b60006112e0601583610d8f565b91506112eb826112aa565b602082019050919050565b6000602082019050818103600083015261130f816112d3565b9050919050565b7f45524332303a20617070726f76652066726f6d20746865207a65726f2061646460008201527f7265737300000000000000000000000000000000000000000000000000000000602082015250565b6000611372602483610d8f565b915061137d82611316565b604082019050919050565b600060208201905081810360008301526113a181611365565b9050919050565b7f45524332303a20617070726f766520746f20746865207a65726f20616464726560008201527f7373000000000000000000000000000000000000000000000000000000000000602082015250565b6000611404602283610d8f565b915061140f826113a8565b604082019050919050565b60006020820190508181036000830152611433816113f7565b9050919050565b7f45524332303a20696e73756666696369656e7420616c6c6f77616e6365000000600082015250565b6000611470601d83610d8f565b915061147b8261143a565b602082019050919050565b6000602082019050818103600083015261149f81611463565b9050919050565b7f45524332303a207472616e736665722066726f6d20746865207a65726f20616460008201527f6472657373000000000000000000000000000000000000000000000000000000602082015250565b6000611502602583610d8f565b915061150d826114a6565b604082019050919050565b60006020820190508181036000830152611531816114f5565b9050919050565b7f45524332303a207472616e7366657220746f20746865207a65726f206164647260008201527f6573730000000000000000000000000000000000000000000000000000000000602082015250565b6000611594602383610d8f565b915061159f82611538565b604082019050919050565b600060208201905081810360008301526115c381611587565b9050919050565b7f45524332303a207472616e7366657220616d6f756e742065786365656473206260008201527f616c616e63650000000000000000000000000000000000000000000000000000602082015250565b6000611626602683610d8f565b9150611631826115ca565b604082019050919050565b6000602082019050818103600083015261165581611619565b9050919050565b7f45524332303a206d696e7420746f20746865207a65726f206164647265737300600082015250565b6000611692601f83610d8f565b915061169d8261165c565b602082019050919050565b600060208201905081810360008301526116c181611685565b905091905056fea2646970667358221220d7480165db1baf656098489ebc9ce8009c13a1aea3a2582530c28a2021b245f764736f6c63430008090033",
					"opcodes": "PUSH1 0x80 PUSH1 0x40 MSTORE CALLVALUE DUP1 ISZERO PUSH3 0x11 JUMPI PUSH1 0x0 DUP1 REVERT JUMPDEST POP PUSH1 0x40 MLOAD PUSH3 0x1B03 CODESIZE SUB DUP1 PUSH3 0x1B03 DUP4 CODECOPY DUP2 DUP2 ADD PUSH1 0x40 MSTORE DUP2 ADD SWAP1 PUSH3 0x37 SWAP2 SWAP1 PUSH3 0x30B JUMP JUMPDEST DUP2 DUP2 DUP2 PUSH1 0x3 SWAP1 DUP1 MLOAD SWAP1 PUSH1 0x20 ADD SWAP1 PUSH3 0x51 SWAP3 SWAP2 SWAP1 PUSH3 0xBE JUMP JUMPDEST POP DUP1 PUSH1 0x4 SWAP1 DUP1 MLOAD SWAP1 PUSH1 0x20 ADD SWAP1 PUSH3 0x6A SWAP3 SWAP2 SWAP1 PUSH3 0xBE JUMP JUMPDEST POP POP POP PUSH1 0x1 PUSH1 0x5 DUP2 SWAP1 SSTORE POP CALLER PUSH1 0x6 PUSH1 0x0 PUSH2 0x100 EXP DUP2 SLOAD DUP2 PUSH20 0xFFFFFFFFFFFFFFFFFFFFFFFFFFFFFFFFFFFFFFFF MUL NOT AND SWAP1 DUP4 PUSH20 0xFFFFFFFFFFFFFFFFFFFFFFFFFFFFFFFFFFFFFFFF AND MUL OR SWAP1 SSTORE POP POP POP PUSH3 0x3F5 JUMP JUMPDEST DUP3 DUP1 SLOAD PUSH3 0xCC SWAP1 PUSH3 0x3BF JUMP JUMPDEST SWAP1 PUSH1 0x0 MSTORE PUSH1 0x20 PUSH1 0x0 KECCAK256 SWAP1 PUSH1 0x1F ADD PUSH1 0x20 SWAP1 DIV DUP2 ADD SWAP3 DUP3 PUSH3 0xF0 JUMPI PUSH1 0x0 DUP6 SSTORE PUSH3 0x13C JUMP JUMPDEST DUP3 PUSH1 0x1F LT PUSH3 0x10B JUMPI DUP1 MLOAD PUSH1 0xFF NOT AND DUP4 DUP1 ADD OR DUP6 SSTORE PUSH3 0x13C JUMP JUMPDEST DUP3 DUP1 ADD PUSH1 0x1 ADD DUP6 SSTORE DUP3 ISZERO PUSH3 0x13C JUMPI SWAP2 DUP3 ADD JUMPDEST DUP3 DUP2 GT ISZERO PUSH3 0x13B JUMPI DUP3 MLOAD DUP3 SSTORE SWAP2 PUSH1 0x20 ADD SWAP2 SWAP1 PUSH1 0x1 ADD SWAP1 PUSH3 0x11E JUMP JUMPDEST JUMPDEST POP SWAP1 POP PUSH3 0x14B SWAP2 SWAP1 PUSH3 0x14F JUMP JUMPDEST POP SWAP1 JUMP JUMPDEST JUMPDEST DUP1 DUP3 GT ISZERO PUSH3 0x16A JUMPI PUSH1 0x0 DUP2 PUSH1 0x0 SWAP1 SSTORE POP PUSH1 0x1 ADD PUSH3 0x150 JUMP JUMPDEST POP SWAP1 JUMP JUMPDEST PUSH1 0x0 PUSH1 0x40 MLOAD SWAP1 POP SWAP1 JUMP JUMPDEST PUSH1 0x0 DUP1 REVERT JUMPDEST PUSH1 0x0 DUP1 REVERT JUMPDEST PUSH1 0x0 DUP1 REVERT JUMPDEST PUSH1 0x0 DUP1 REVERT JUMPDEST PUSH1 0x0 PUSH1 0x1F NOT PUSH1 0x1F DUP4 ADD AND SWAP1 POP SWAP2 SWAP1 POP JUMP JUMPDEST PUSH32 0x4E487B7100000000000000000000000000000000000000000000000000000000 PUSH1 0x0 MSTORE PUSH1 0x41 PUSH1 0x4 MSTORE PUSH1 0x24 PUSH1 0x0 REVERT JUMPDEST PUSH3 0x1D7 DUP3 PUSH3 0x18C JUMP JUMPDEST DUP2 ADD DUP2 DUP2 LT PUSH8 0xFFFFFFFFFFFFFFFF DUP3 GT OR ISZERO PUSH3 0x1F9 JUMPI PUSH3 0x1F8 PUSH3 0x19D JUMP JUMPDEST JUMPDEST DUP1 PUSH1 0x40 MSTORE POP POP POP JUMP JUMPDEST PUSH1 0x0 PUSH3 0x20E PUSH3 0x16E JUMP JUMPDEST SWAP1 POP PUSH3 0x21C DUP3 DUP3 PUSH3 0x1CC JUMP JUMPDEST SWAP2 SWAP1 POP JUMP JUMPDEST PUSH1 0x0 PUSH8 0xFFFFFFFFFFFFFFFF DUP3 GT ISZERO PUSH3 0x23F JUMPI PUSH3 0x23E PUSH3 0x19D JUMP JUMPDEST JUMPDEST PUSH3 0x24A DUP3 PUSH3 0x18C JUMP JUMPDEST SWAP1 POP PUSH1 0x20 DUP2 ADD SWAP1 POP SWAP2 SWAP1 POP JUMP JUMPDEST PUSH1 0x0 JUMPDEST DUP4 DUP2 LT ISZERO PUSH3 0x277 JUMPI DUP1 DUP3 ADD MLOAD DUP2 DUP5 ADD MSTORE PUSH1 0x20 DUP2 ADD SWAP1 POP PUSH3 0x25A JUMP JUMPDEST DUP4 DUP2 GT ISZERO PUSH3 0x287 JUMPI PUSH1 0x0 DUP5 DUP5 ADD MSTORE JUMPDEST POP POP POP POP JUMP JUMPDEST PUSH1 0x0 PUSH3 0x2A4 PUSH3 0x29E DUP5 PUSH3 0x221 JUMP JUMPDEST PUSH3 0x202 JUMP JUMPDEST SWAP1 POP DUP3 DUP2 MSTORE PUSH1 0x20 DUP2 ADD DUP5 DUP5 DUP5 ADD GT ISZERO PUSH3 0x2C3 JUMPI PUSH3 0x2C2 PUSH3 0x187 JUMP JUMPDEST JUMPDEST PUSH3 0x2D0 DUP5 DUP3 DUP6 PUSH3 0x257 JUMP JUMPDEST POP SWAP4 SWAP3 POP POP POP JUMP JUMPDEST PUSH1 0x0 DUP3 PUSH1 0x1F DUP4 ADD SLT PUSH3 0x2F0 JUMPI PUSH3 0x2EF PUSH3 0x182 JUMP JUMPDEST JUMPDEST DUP2 MLOAD PUSH3 0x302 DUP5 DUP3 PUSH1 0x20 DUP7 ADD PUSH3 0x28D JUMP JUMPDEST SWAP2 POP POP SWAP3 SWAP2 POP POP JUMP JUMPDEST PUSH1 0x0 DUP1 PUSH1 0x40 DUP4 DUP6 SUB SLT ISZERO PUSH3 0x325 JUMPI PUSH3 0x324 PUSH3 0x178 JUMP JUMPDEST JUMPDEST PUSH1 0x0 DUP4 ADD MLOAD PUSH8 0xFFFFFFFFFFFFFFFF DUP2 GT ISZERO PUSH3 0x346 JUMPI PUSH3 0x345 PUSH3 0x17D JUMP JUMPDEST JUMPDEST PUSH3 0x354 DUP6 DUP3 DUP7 ADD PUSH3 0x2D8 JUMP JUMPDEST SWAP3 POP POP PUSH1 0x20 DUP4 ADD MLOAD PUSH8 0xFFFFFFFFFFFFFFFF DUP2 GT ISZERO PUSH3 0x378 JUMPI PUSH3 0x377 PUSH3 0x17D JUMP JUMPDEST JUMPDEST PUSH3 0x386 DUP6 DUP3 DUP7 ADD PUSH3 0x2D8 JUMP JUMPDEST SWAP2 POP POP SWAP3 POP SWAP3 SWAP1 POP JUMP JUMPDEST PUSH32 0x4E487B7100000000000000000000000000000000000000000000000000000000 PUSH1 0x0 MSTORE PUSH1 0x22 PUSH1 0x4 MSTORE PUSH1 0x24 PUSH1 0x0 REVERT JUMPDEST PUSH1 0x0 PUSH1 0x2 DUP3 DIV SWAP1 POP PUSH1 0x1 DUP3 AND DUP1 PUSH3 0x3D8 JUMPI PUSH1 0x7F DUP3 AND SWAP2 POP JUMPDEST PUSH1 0x20 DUP3 LT DUP2 EQ ISZERO PUSH3 0x3EF JUMPI PUSH3 0x3EE PUSH3 0x390 JUMP JUMPDEST JUMPDEST POP SWAP2 SWAP1 POP JUMP JUMPDEST PUSH2 0x16FE DUP1 PUSH3 0x405 PUSH1 0x0 CODECOPY PUSH1 0x0 RETURN INVALID PUSH1 0x80 PUSH1 0x40 MSTORE CALLVALUE DUP1 ISZERO PUSH2 0x10 JUMPI PUSH1 0x0 DUP1 REVERT JUMPDEST POP PUSH1 0x4 CALLDATASIZE LT PUSH2 0xCF JUMPI PUSH1 0x0 CALLDATALOAD PUSH1 0xE0 SHR DUP1 PUSH4 0x70A08231 GT PUSH2 0x8C JUMPI DUP1 PUSH4 0xA457C2D7 GT PUSH2 0x66 JUMPI DUP1 PUSH4 0xA457C2D7 EQ PUSH2 0x22A JUMPI DUP1 PUSH4 0xA9059CBB EQ PUSH2 0x25A JUMPI DUP1 PUSH4 0xC634D032 EQ PUSH2 0x28A JUMPI DUP1 PUSH4 0xDD62ED3E EQ PUSH2 0x2A6 JUMPI PUSH2 0xCF JUMP JUMPDEST DUP1 PUSH4 0x70A08231 EQ PUSH2 0x1BE JUMPI DUP1 PUSH4 0x8DA5CB5B EQ PUSH2 0x1EE JUMPI DUP1 PUSH4 0x95D89B41 EQ PUSH2 0x20C JUMPI PUSH2 0xCF JUMP JUMPDEST DUP1 PUSH4 0x6FDDE03 EQ PUSH2 0xD4 JUMPI DUP1 PUSH4 0x95EA7B3 EQ PUSH2 0xF2 JUMPI DUP1 PUSH4 0x18160DDD EQ PUSH2 0x122 JUMPI DUP1 PUSH4 0x23B872DD EQ PUSH2 0x140 JUMPI DUP1 PUSH4 0x313CE567 EQ PUSH2 0x170 JUMPI DUP1 PUSH4 0x39509351 EQ PUSH2 0x18E JUMPI JUMPDEST PUSH1 0x0 DUP1 REVERT JUMPDEST PUSH2 0xDC PUSH2 0x2D6 JUMP JUMPDEST PUSH1 0x40 MLOAD PUSH2 0xE9 SWAP2 SWAP1 PUSH2 0xE1D JUMP JUMPDEST PUSH1 0x40 MLOAD DUP1 SWAP2 SUB SWAP1 RETURN JUMPDEST PUSH2 0x10C PUSH1 0x4 DUP1 CALLDATASIZE SUB DUP2 ADD SWAP1 PUSH2 0x107 SWAP2 SWAP1 PUSH2 0xED8 JUMP JUMPDEST PUSH2 0x368 JUMP JUMPDEST PUSH1 0x40 MLOAD PUSH2 0x119 SWAP2 SWAP1 PUSH2 0xF33 JUMP JUMPDEST PUSH1 0x40 MLOAD DUP1 SWAP2 SUB SWAP1 RETURN JUMPDEST PUSH2 0x12A PUSH2 0x38B JUMP JUMPDEST PUSH1 0x40 MLOAD PUSH2 0x137 SWAP2 SWAP1 PUSH2 0xF5D JUMP JUMPDEST PUSH1 0x40 MLOAD DUP1 SWAP2 SUB SWAP1 RETURN JUMPDEST PUSH2 0x15A PUSH1 0x4 DUP1 CALLDATASIZE SUB DUP2 ADD SWAP1 PUSH2 0x155 SWAP2 SWAP1 PUSH2 0xF78 JUMP JUMPDEST PUSH2 0x395 JUMP JUMPDEST PUSH1 0x40 MLOAD PUSH2 0x167 SWAP2 SWAP1 PUSH2 0xF33 JUMP JUMPDEST PUSH1 0x40 MLOAD DUP1 SWAP2 SUB SWAP1 RETURN JUMPDEST PUSH2 0x178 PUSH2 0x3C4 JUMP JUMPDEST PUSH1 0x40 MLOAD PUSH2 0x185 SWAP2 SWAP1 PUSH2 0xFE7 JUMP JUMPDEST PUSH1 0x40 MLOAD DUP1 SWAP2 SUB SWAP1 RETURN JUMPDEST PUSH2 0x1A8 PUSH1 0x4 DUP1 CALLDATASIZE SUB DUP2 ADD SWAP1 PUSH2 0x1A3 SWAP2 SWAP1 PUSH2 0xED8 JUMP JUMPDEST PUSH2 0x3CD JUMP JUMPDEST PUSH1 0x40 MLOAD PUSH2 0x1B5 SWAP2 SWAP1 PUSH2 0xF33 JUMP JUMPDEST PUSH1 0x40 MLOAD DUP1 SWAP2 SUB SWAP1 RETURN JUMPDEST PUSH2 0x1D8 PUSH1 0x4 DUP1 CALLDATASIZE SUB DUP2 ADD SWAP1 PUSH2 0x1D3 SWAP2 SWAP1 PUSH2 0x1002 JUMP JUMPDEST PUSH2 0x404 JUMP JUMPDEST PUSH1 0x40 MLOAD PUSH2 0x1E5 SWAP2 SWAP1 PUSH2 0xF5D JUMP JUMPDEST PUSH1 0x40 MLOAD DUP1 SWAP2 SUB SWAP1 RETURN JUMPDEST PUSH2 0x1F6 PUSH2 0x44C JUMP JUMPDEST PUSH1 0x40 MLOAD PUSH2 0x203 SWAP2 SWAP1 PUSH2 0x103E JUMP JUMPDEST PUSH1 0x40 MLOAD DUP1 SWAP2 SUB SWAP1 RETURN JUMPDEST PUSH2 0x214 PUSH2 0x472 JUMP JUMPDEST PUSH1 0x40 MLOAD PUSH2 0x221 SWAP2 SWAP1 PUSH2 0xE1D JUMP JUMPDEST PUSH1 0x40 MLOAD DUP1 SWAP2 SUB SWAP1 RETURN JUMPDEST PUSH2 0x244 PUSH1 0x4 DUP1 CALLDATASIZE SUB DUP2 ADD SWAP1 PUSH2 0x23F SWAP2 SWAP1 PUSH2 0xED8 JUMP JUMPDEST PUSH2 0x504 JUMP JUMPDEST PUSH1 0x40 MLOAD PUSH2 0x251 SWAP2 SWAP1 PUSH2 0xF33 JUMP JUMPDEST PUSH1 0x40 MLOAD DUP1 SWAP2 SUB SWAP1 RETURN JUMPDEST PUSH2 0x274 PUSH1 0x4 DUP1 CALLDATASIZE SUB DUP2 ADD SWAP1 PUSH2 0x26F SWAP2 SWAP1 PUSH2 0xED8 JUMP JUMPDEST PUSH2 0x57B JUMP JUMPDEST PUSH1 0x40 MLOAD PUSH2 0x281 SWAP2 SWAP1 PUSH2 0xF33 JUMP JUMPDEST PUSH1 0x40 MLOAD DUP1 SWAP2 SUB SWAP1 RETURN JUMPDEST PUSH2 0x2A4 PUSH1 0x4 DUP1 CALLDATASIZE SUB DUP2 ADD SWAP1 PUSH2 0x29F SWAP2 SWAP1 PUSH2 0x1059 JUMP JUMPDEST PUSH2 0x59E JUMP JUMPDEST STOP JUMPDEST PUSH2 0x2C0 PUSH1 0x4 DUP1 CALLDATASIZE SUB DUP2 ADD SWAP1 PUSH2 0x2BB SWAP2 SWAP1 PUSH2 0x1086 JUMP JUMPDEST PUSH2 0x6B3 JUMP JUMPDEST PUSH1 0x40 MLOAD PUSH2 0x2CD SWAP2 SWAP1 PUSH2 0xF5D JUMP JUMPDEST PUSH1 0x40 MLOAD DUP1 SWAP2 SUB SWAP1 RETURN JUMPDEST PUSH1 0x60 PUSH1 0x3 DUP1 SLOAD PUSH2 0x2E5 SWAP1 PUSH2 0x10F5 JUMP JUMPDEST DUP1 PUSH1 0x1F ADD PUSH1 0x20 DUP1 SWAP2 DIV MUL PUSH1 0x20 ADD PUSH1 0x40 MLOAD SWAP1 DUP2 ADD PUSH1 0x40 MSTORE DUP1 SWAP3 SWAP2 SWAP1 DUP2 DUP2 MSTORE PUSH1 0x20 ADD DUP3 DUP1 SLOAD PUSH2 0x311 SWAP1 PUSH2 0x10F5 JUMP JUMPDEST DUP1 ISZERO PUSH2 0x35E JUMPI DUP1 PUSH1 0x1F LT PUSH2 0x333 JUMPI PUSH2 0x100 DUP1 DUP4 SLOAD DIV MUL DUP4 MSTORE SWAP2 PUSH1 0x20 ADD SWAP2 PUSH2 0x35E JUMP JUMPDEST DUP3 ADD SWAP2 SWAP1 PUSH1 0x0 MSTORE PUSH1 0x20 PUSH1 0x0 KECCAK256 SWAP1 JUMPDEST DUP2 SLOAD DUP2 MSTORE SWAP1 PUSH1 0x1 ADD SWAP1 PUSH1 0x20 ADD DUP1 DUP4 GT PUSH2 0x341 JUMPI DUP3 SWAP1 SUB PUSH1 0x1F AND DUP3 ADD SWAP2 JUMPDEST POP POP POP POP POP SWAP1 POP SWAP1 JUMP JUMPDEST PUSH1 0x0 DUP1 PUSH2 0x373 PUSH2 0x73A JUMP JUMPDEST SWAP1 POP PUSH2 0x380 DUP2 DUP6 DUP6 PUSH2 0x742 JUMP JUMPDEST PUSH1 0x1 SWAP2 POP POP SWAP3 SWAP2 POP POP JUMP JUMPDEST PUSH1 0x0 PUSH1 0x2 SLOAD SWAP1 POP SWAP1 JUMP JUMPDEST PUSH1 0x0 DUP1 PUSH2 0x3A0 PUSH2 0x73A JUMP JUMPDEST SWAP1 POP PUSH2 0x3AD DUP6 DUP3 DUP6 PUSH2 0x90D JUMP JUMPDEST PUSH2 0x3B8 DUP6 DUP6 DUP6 PUSH2 0x999 JUMP JUMPDEST PUSH1 0x1 SWAP2 POP POP SWAP4 SWAP3 POP POP POP JUMP JUMPDEST PUSH1 0x0 PUSH1 0x12 SWAP1 POP SWAP1 JUMP JUMPDEST PUSH1 0x0 DUP1 PUSH2 0x3D8 PUSH2 0x73A JUMP JUMPDEST SWAP1 POP PUSH2 0x3F9 DUP2 DUP6 DUP6 PUSH2 0x3EA DUP6 DUP10 PUSH2 0x6B3 JUMP JUMPDEST PUSH2 0x3F4 SWAP2 SWAP1 PUSH2 0x1156 JUMP JUMPDEST PUSH2 0x742 JUMP JUMPDEST PUSH1 0x1 SWAP2 POP POP SWAP3 SWAP2 POP POP JUMP JUMPDEST PUSH1 0x0 DUP1 PUSH1 0x0 DUP4 PUSH20 0xFFFFFFFFFFFFFFFFFFFFFFFFFFFFFFFFFFFFFFFF AND PUSH20 0xFFFFFFFFFFFFFFFFFFFFFFFFFFFFFFFFFFFFFFFF AND DUP2 MSTORE PUSH1 0x20 ADD SWAP1 DUP2 MSTORE PUSH1 0x20 ADD PUSH1 0x0 KECCAK256 SLOAD SWAP1 POP SWAP2 SWAP1 POP JUMP JUMPDEST PUSH1 0x6 PUSH1 0x0 SWAP1 SLOAD SWAP1 PUSH2 0x100 EXP SWAP1 DIV PUSH20 0xFFFFFFFFFFFFFFFFFFFFFFFFFFFFFFFFFFFFFFFF AND DUP2 JUMP JUMPDEST PUSH1 0x60 PUSH1 0x4 DUP1 SLOAD PUSH2 0x481 SWAP1 PUSH2 0x10F5 JUMP JUMPDEST DUP1 PUSH1 0x1F ADD PUSH1 0x20 DUP1 SWAP2 DIV MUL PUSH1 0x20 ADD PUSH1 0x40 MLOAD SWAP1 DUP2 ADD PUSH1 0x40 MSTORE DUP1 SWAP3 SWAP2 SWAP1 DUP2 DUP2 MSTORE PUSH1 0x20 ADD DUP3 DUP1 SLOAD PUSH2 0x4AD SWAP1 PUSH2 0x10F5 JUMP JUMPDEST DUP1 ISZERO PUSH2 0x4FA JUMPI DUP1 PUSH1 0x1F LT PUSH2 0x4CF JUMPI PUSH2 0x100 DUP1 DUP4 SLOAD DIV MUL DUP4 MSTORE SWAP2 PUSH1 0x20 ADD SWAP2 PUSH2 0x4FA JUMP JUMPDEST DUP3 ADD SWAP2 SWAP1 PUSH1 0x0 MSTORE PUSH1 0x20 PUSH1 0x0 KECCAK256 SWAP1 JUMPDEST DUP2 SLOAD DUP2 MSTORE SWAP1 PUSH1 0x1 ADD SWAP1 PUSH1 0x20 ADD DUP1 DUP4 GT PUSH2 0x4DD JUMPI DUP3 SWAP1 SUB PUSH1 0x1F AND DUP3 ADD SWAP2 JUMPDEST POP POP POP POP POP SWAP1 POP SWAP1 JUMP JUMPDEST PUSH1 0x0 DUP1 PUSH2 0x50F PUSH2 0x73A JUMP JUMPDEST SWAP1 POP PUSH1 0x0 PUSH2 0x51D DUP3 DUP7 PUSH2 0x6B3 JUMP JUMPDEST SWAP1 POP DUP4 DUP2 LT ISZERO PUSH2 0x562 JUMPI PUSH1 0x40 MLOAD PUSH32 0x8C379A000000000000000000000000000000000000000000000000000000000 DUP2 MSTORE PUSH1 0x4 ADD PUSH2 0x559 SWAP1 PUSH2 0x121E JUMP JUMPDEST PUSH1 0x40 MLOAD DUP1 SWAP2 SUB SWAP1 REVERT JUMPDEST PUSH2 0x56F DUP3 DUP7 DUP7 DUP5 SUB PUSH2 0x742 JUMP JUMPDEST PUSH1 0x1 SWAP3 POP POP POP SWAP3 SWAP2 POP POP JUMP JUMPDEST PUSH1 0x0 DUP1 PUSH2 0x586 PUSH2 0x73A JUMP JUMPDEST SWAP1 POP PUSH2 0x593 DUP2 DUP6 DUP6 PUSH2 0x999 JUMP JUMPDEST PUSH1 0x1 SWAP2 POP POP SWAP3 SWAP2 POP POP JUMP JUMPDEST PUSH1 0x2 PUSH1 0x5 SLOAD EQ ISZERO PUSH2 0x5E4 JUMPI PUSH1 0x40 MLOAD PUSH32 0x8C379A000000000000000000000000000000000000000000000000000000000 DUP2 MSTORE PUSH1 0x4 ADD PUSH2 0x5DB SWAP1 PUSH2 0x128A JUMP JUMPDEST PUSH1 0x40 MLOAD DUP1 SWAP2 SUB SWAP1 REVERT JUMPDEST PUSH1 0x2 PUSH1 0x5 DUP2 SWAP1 SSTORE POP CALLER PUSH20 0xFFFFFFFFFFFFFFFFFFFFFFFFFFFFFFFFFFFFFFFF AND PUSH1 0x6 PUSH1 0x0 SWAP1 SLOAD SWAP1 PUSH2 0x100 EXP SWAP1 DIV PUSH20 0xFFFFFFFFFFFFFFFFFFFFFFFFFFFFFFFFFFFFFFFF AND PUSH20 0xFFFFFFFFFFFFFFFFFFFFFFFFFFFFFFFFFFFFFFFF AND EQ PUSH2 0x67C JUMPI PUSH1 0x40 MLOAD PUSH32 0x8C379A000000000000000000000000000000000000000000000000000000000 DUP2 MSTORE PUSH1 0x4 ADD PUSH2 0x673 SWAP1 PUSH2 0x12F6 JUMP JUMPDEST PUSH1 0x40 MLOAD DUP1 SWAP2 SUB SWAP1 REVERT JUMPDEST PUSH2 0x6A8 PUSH1 0x6 PUSH1 0x0 SWAP1 SLOAD SWAP1 PUSH2 0x100 EXP SWAP1 DIV PUSH20 0xFFFFFFFFFFFFFFFFFFFFFFFFFFFFFFFFFFFFFFFF AND DUP3 PUSH2 0xC1A JUMP JUMPDEST PUSH1 0x1 PUSH1 0x5 DUP2 SWAP1 SSTORE POP POP JUMP JUMPDEST PUSH1 0x0 PUSH1 0x1 PUSH1 0x0 DUP5 PUSH20 0xFFFFFFFFFFFFFFFFFFFFFFFFFFFFFFFFFFFFFFFF AND PUSH20 0xFFFFFFFFFFFFFFFFFFFFFFFFFFFFFFFFFFFFFFFF AND DUP2 MSTORE PUSH1 0x20 ADD SWAP1 DUP2 MSTORE PUSH1 0x20 ADD PUSH1 0x0 KECCAK256 PUSH1 0x0 DUP4 PUSH20 0xFFFFFFFFFFFFFFFFFFFFFFFFFFFFFFFFFFFFFFFF AND PUSH20 0xFFFFFFFFFFFFFFFFFFFFFFFFFFFFFFFFFFFFFFFF AND DUP2 MSTORE PUSH1 0x20 ADD SWAP1 DUP2 MSTORE PUSH1 0x20 ADD PUSH1 0x0 KECCAK256 SLOAD SWAP1 POP SWAP3 SWAP2 POP POP JUMP JUMPDEST PUSH1 0x0 CALLER SWAP1 POP SWAP1 JUMP JUMPDEST PUSH1 0x0 PUSH20 0xFFFFFFFFFFFFFFFFFFFFFFFFFFFFFFFFFFFFFFFF AND DUP4 PUSH20 0xFFFFFFFFFFFFFFFFFFFFFFFFFFFFFFFFFFFFFFFF AND EQ ISZERO PUSH2 0x7B2 JUMPI PUSH1 0x40 MLOAD PUSH32 0x8C379A000000000000000000000000000000000000000000000000000000000 DUP2 MSTORE PUSH1 0x4 ADD PUSH2 0x7A9 SWAP1 PUSH2 0x1388 JUMP JUMPDEST PUSH1 0x40 MLOAD DUP1 SWAP2 SUB SWAP1 REVERT JUMPDEST PUSH1 0x0 PUSH20 0xFFFFFFFFFFFFFFFFFFFFFFFFFFFFFFFFFFFFFFFF AND DUP3 PUSH20 0xFFFFFFFFFFFFFFFFFFFFFFFFFFFFFFFFFFFFFFFF AND EQ ISZERO PUSH2 0x822 JUMPI PUSH1 0x40 MLOAD PUSH32 0x8C379A000000000000000000000000000000000000000000000000000000000 DUP2 MSTORE PUSH1 0x4 ADD PUSH2 0x819 SWAP1 PUSH2 0x141A JUMP JUMPDEST PUSH1 0x40 MLOAD DUP1 SWAP2 SUB SWAP1 REVERT JUMPDEST DUP1 PUSH1 0x1 PUSH1 0x0 DUP6 PUSH20 0xFFFFFFFFFFFFFFFFFFFFFFFFFFFFFFFFFFFFFFFF AND PUSH20 0xFFFFFFFFFFFFFFFFFFFFFFFFFFFFFFFFFFFFFFFF AND DUP2 MSTORE PUSH1 0x20 ADD SWAP1 DUP2 MSTORE PUSH1 0x20 ADD PUSH1 0x0 KECCAK256 PUSH1 0x0 DUP5 PUSH20 0xFFFFFFFFFFFFFFFFFFFFFFFFFFFFFFFFFFFFFFFF AND PUSH20 0xFFFFFFFFFFFFFFFFFFFFFFFFFFFFFFFFFFFFFFFF AND DUP2 MSTORE PUSH1 0x20 ADD SWAP1 DUP2 MSTORE PUSH1 0x20 ADD PUSH1 0x0 KECCAK256 DUP2 SWAP1 SSTORE POP DUP2 PUSH20 0xFFFFFFFFFFFFFFFFFFFFFFFFFFFFFFFFFFFFFFFF AND DUP4 PUSH20 0xFFFFFFFFFFFFFFFFFFFFFFFFFFFFFFFFFFFFFFFF AND PUSH32 0x8C5BE1E5EBEC7D5BD14F71427D1E84F3DD0314C0F7B2291E5B200AC8C7C3B925 DUP4 PUSH1 0x40 MLOAD PUSH2 0x900 SWAP2 SWAP1 PUSH2 0xF5D JUMP JUMPDEST PUSH1 0x40 MLOAD DUP1 SWAP2 SUB SWAP1 LOG3 POP POP POP JUMP JUMPDEST PUSH1 0x0 PUSH2 0x919 DUP5 DUP5 PUSH2 0x6B3 JUMP JUMPDEST SWAP1 POP PUSH32 0xFFFFFFFFFFFFFFFFFFFFFFFFFFFFFFFFFFFFFFFFFFFFFFFFFFFFFFFFFFFFFFFF DUP2 EQ PUSH2 0x993 JUMPI DUP2 DUP2 LT ISZERO PUSH2 0x985 JUMPI PUSH1 0x40 MLOAD PUSH32 0x8C379A000000000000000000000000000000000000000000000000000000000 DUP2 MSTORE PUSH1 0x4 ADD PUSH2 0x97C SWAP1 PUSH2 0x1486 JUMP JUMPDEST PUSH1 0x40 MLOAD DUP1 SWAP2 SUB SWAP1 REVERT JUMPDEST PUSH2 0x992 DUP5 DUP5 DUP5 DUP5 SUB PUSH2 0x742 JUMP JUMPDEST JUMPDEST POP POP POP POP JUMP JUMPDEST PUSH1 0x0 PUSH20 0xFFFFFFFFFFFFFFFFFFFFFFFFFFFFFFFFFFFFFFFF AND DUP4 PUSH20 0xFFFFFFFFFFFFFFFFFFFFFFFFFFFFFFFFFFFFFFFF AND EQ ISZERO PUSH2 0xA09 JUMPI PUSH1 0x40 MLOAD PUSH32 0x8C379A000000000000000000000000000000000000000000000000000000000 DUP2 MSTORE PUSH1 0x4 ADD PUSH2 0xA00 SWAP1 PUSH2 0x1518 JUMP JUMPDEST PUSH1 0x40 MLOAD DUP1 SWAP2 SUB SWAP1 REVERT JUMPDEST PUSH1 0x0 PUSH20 0xFFFFFFFFFFFFFFFFFFFFFFFFFFFFFFFFFFFFFFFF AND DUP3 PUSH20 0xFFFFFFFFFFFFFFFFFFFFFFFFFFFFFFFFFFFFFFFF AND EQ ISZERO PUSH2 0xA79 JUMPI PUSH1 0x40 MLOAD PUSH32 0x8C379A000000000000000000000000000000000000000000000000000000000 DUP2 MSTORE PUSH1 0x4 ADD PUSH2 0xA70 SWAP1 PUSH2 0x15AA JUMP JUMPDEST PUSH1 0x40 MLOAD DUP1 SWAP2 SUB SWAP1 REVERT JUMPDEST PUSH2 0xA84 DUP4 DUP4 DUP4 PUSH2 0xD7A JUMP JUMPDEST PUSH1 0x0 DUP1 PUSH1 0x0 DUP6 PUSH20 0xFFFFFFFFFFFFFFFFFFFFFFFFFFFFFFFFFFFFFFFF AND PUSH20 0xFFFFFFFFFFFFFFFFFFFFFFFFFFFFFFFFFFFFFFFF AND DUP2 MSTORE PUSH1 0x20 ADD SWAP1 DUP2 MSTORE PUSH1 0x20 ADD PUSH1 0x0 KECCAK256 SLOAD SWAP1 POP DUP2 DUP2 LT ISZERO PUSH2 0xB0A JUMPI PUSH1 0x40 MLOAD PUSH32 0x8C379A000000000000000000000000000000000000000000000000000000000 DUP2 MSTORE PUSH1 0x4 ADD PUSH2 0xB01 SWAP1 PUSH2 0x163C JUMP JUMPDEST PUSH1 0x40 MLOAD DUP1 SWAP2 SUB SWAP1 REVERT JUMPDEST DUP2 DUP2 SUB PUSH1 0x0 DUP1 DUP7 PUSH20 0xFFFFFFFFFFFFFFFFFFFFFFFFFFFFFFFFFFFFFFFF AND PUSH20 0xFFFFFFFFFFFFFFFFFFFFFFFFFFFFFFFFFFFFFFFF AND DUP2 MSTORE PUSH1 0x20 ADD SWAP1 DUP2 MSTORE PUSH1 0x20 ADD PUSH1 0x0 KECCAK256 DUP2 SWAP1 SSTORE POP DUP2 PUSH1 0x0 DUP1 DUP6 PUSH20 0xFFFFFFFFFFFFFFFFFFFFFFFFFFFFFFFFFFFFFFFF AND PUSH20 0xFFFFFFFFFFFFFFFFFFFFFFFFFFFFFFFFFFFFFFFF AND DUP2 MSTORE PUSH1 0x20 ADD SWAP1 DUP2 MSTORE PUSH1 0x20 ADD PUSH1 0x0 KECCAK256 PUSH1 0x0 DUP3 DUP3 SLOAD PUSH2 0xB9D SWAP2 SWAP1 PUSH2 0x1156 JUMP JUMPDEST SWAP3 POP POP DUP2 SWAP1 SSTORE POP DUP3 PUSH20 0xFFFFFFFFFFFFFFFFFFFFFFFFFFFFFFFFFFFFFFFF AND DUP5 PUSH20 0xFFFFFFFFFFFFFFFFFFFFFFFFFFFFFFFFFFFFFFFF AND PUSH32 0xDDF252AD1BE2C89B69C2B068FC378DAA952BA7F163C4A11628F55A4DF523B3EF DUP5 PUSH1 0x40 MLOAD PUSH2 0xC01 SWAP2 SWAP1 PUSH2 0xF5D JUMP JUMPDEST PUSH1 0x40 MLOAD DUP1 SWAP2 SUB SWAP1 LOG3 PUSH2 0xC14 DUP5 DUP5 DUP5 PUSH2 0xD7F JUMP JUMPDEST POP POP POP POP JUMP JUMPDEST PUSH1 0x0 PUSH20 0xFFFFFFFFFFFFFFFFFFFFFFFFFFFFFFFFFFFFFFFF AND DUP3 PUSH20 0xFFFFFFFFFFFFFFFFFFFFFFFFFFFFFFFFFFFFFFFF AND EQ ISZERO PUSH2 0xC8A JUMPI PUSH1 0x40 MLOAD PUSH32 0x8C379A000000000000000000000000000000000000000000000000000000000 DUP2 MSTORE PUSH1 0x4 ADD PUSH2 0xC81 SWAP1 PUSH2 0x16A8 JUMP JUMPDEST PUSH1 0x40 MLOAD DUP1 SWAP2 SUB SWAP1 REVERT JUMPDEST PUSH2 0xC96 PUSH1 0x0 DUP4 DUP4 PUSH2 0xD7A JUMP JUMPDEST DUP1 PUSH1 0x2 PUSH1 0x0 DUP3 DUP3 SLOAD PUSH2 0xCA8 SWAP2 SWAP1 PUSH2 0x1156 JUMP JUMPDEST SWAP3 POP POP DUP2 SWAP1 SSTORE POP DUP1 PUSH1 0x0 DUP1 DUP5 PUSH20 0xFFFFFFFFFFFFFFFFFFFFFFFFFFFFFFFFFFFFFFFF AND PUSH20 0xFFFFFFFFFFFFFFFFFFFFFFFFFFFFFFFFFFFFFFFF AND DUP2 MSTORE PUSH1 0x20 ADD SWAP1 DUP2 MSTORE PUSH1 0x20 ADD PUSH1 0x0 KECCAK256 PUSH1 0x0 DUP3 DUP3 SLOAD PUSH2 0xCFD SWAP2 SWAP1 PUSH2 0x1156 JUMP JUMPDEST SWAP3 POP POP DUP2 SWAP1 SSTORE POP DUP2 PUSH20 0xFFFFFFFFFFFFFFFFFFFFFFFFFFFFFFFFFFFFFFFF AND PUSH1 0x0 PUSH20 0xFFFFFFFFFFFFFFFFFFFFFFFFFFFFFFFFFFFFFFFF AND PUSH32 0xDDF252AD1BE2C89B69C2B068FC378DAA952BA7F163C4A11628F55A4DF523B3EF DUP4 PUSH1 0x40 MLOAD PUSH2 0xD62 SWAP2 SWAP1 PUSH2 0xF5D JUMP JUMPDEST PUSH1 0x40 MLOAD DUP1 SWAP2 SUB SWAP1 LOG3 PUSH2 0xD76 PUSH1 0x0 DUP4 DUP4 PUSH2 0xD7F JUMP JUMPDEST POP POP JUMP JUMPDEST POP POP POP JUMP JUMPDEST POP POP POP JUMP JUMPDEST PUSH1 0x0 DUP2 MLOAD SWAP1 POP SWAP2 SWAP1 POP JUMP JUMPDEST PUSH1 0x0 DUP3 DUP3 MSTORE PUSH1 0x20 DUP3 ADD SWAP1 POP SWAP3 SWAP2 POP POP JUMP JUMPDEST PUSH1 0x0 JUMPDEST DUP4 DUP2 LT ISZERO PUSH2 0xDBE JUMPI DUP1 DUP3 ADD MLOAD DUP2 DUP5 ADD MSTORE PUSH1 0x20 DUP2 ADD SWAP1 POP PUSH2 0xDA3 JUMP JUMPDEST DUP4 DUP2 GT ISZERO PUSH2 0xDCD JUMPI PUSH1 0x0 DUP5 DUP5 ADD MSTORE JUMPDEST POP POP POP POP JUMP JUMPDEST PUSH1 0x0 PUSH1 0x1F NOT PUSH1 0x1F DUP4 ADD AND SWAP1 POP SWAP2 SWAP1 POP JUMP JUMPDEST PUSH1 0x0 PUSH2 0xDEF DUP3 PUSH2 0xD84 JUMP JUMPDEST PUSH2 0xDF9 DUP2 DUP6 PUSH2 0xD8F JUMP JUMPDEST SWAP4 POP PUSH2 0xE09 DUP2 DUP6 PUSH1 0x20 DUP7 ADD PUSH2 0xDA0 JUMP JUMPDEST PUSH2 0xE12 DUP2 PUSH2 0xDD3 JUMP JUMPDEST DUP5 ADD SWAP2 POP POP SWAP3 SWAP2 POP POP JUMP JUMPDEST PUSH1 0x0 PUSH1 0x20 DUP3 ADD SWAP1 POP DUP2 DUP2 SUB PUSH1 0x0 DUP4 ADD MSTORE PUSH2 0xE37 DUP2 DUP5 PUSH2 0xDE4 JUMP JUMPDEST SWAP1 POP SWAP3 SWAP2 POP POP JUMP JUMPDEST PUSH1 0x0 DUP1 REVERT JUMPDEST PUSH1 0x0 PUSH20 0xFFFFFFFFFFFFFFFFFFFFFFFFFFFFFFFFFFFFFFFF DUP3 AND SWAP1 POP SWAP2 SWAP1 POP JUMP JUMPDEST PUSH1 0x0 PUSH2 0xE6F DUP3 PUSH2 0xE44 JUMP JUMPDEST SWAP1 POP SWAP2 SWAP1 POP JUMP JUMPDEST PUSH2 0xE7F DUP2 PUSH2 0xE64 JUMP JUMPDEST DUP2 EQ PUSH2 0xE8A JUMPI PUSH1 0x0 DUP1 REVERT JUMPDEST POP JUMP JUMPDEST PUSH1 0x0 DUP2 CALLDATALOAD SWAP1 POP PUSH2 0xE9C DUP2 PUSH2 0xE76 JUMP JUMPDEST SWAP3 SWAP2 POP POP JUMP JUMPDEST PUSH1 0x0 DUP2 SWAP1 POP SWAP2 SWAP1 POP JUMP JUMPDEST PUSH2 0xEB5 DUP2 PUSH2 0xEA2 JUMP JUMPDEST DUP2 EQ PUSH2 0xEC0 JUMPI PUSH1 0x0 DUP1 REVERT JUMPDEST POP JUMP JUMPDEST PUSH1 0x0 DUP2 CALLDATALOAD SWAP1 POP PUSH2 0xED2 DUP2 PUSH2 0xEAC JUMP JUMPDEST SWAP3 SWAP2 POP POP JUMP JUMPDEST PUSH1 0x0 DUP1 PUSH1 0x40 DUP4 DUP6 SUB SLT ISZERO PUSH2 0xEEF JUMPI PUSH2 0xEEE PUSH2 0xE3F JUMP JUMPDEST JUMPDEST PUSH1 0x0 PUSH2 0xEFD DUP6 DUP3 DUP7 ADD PUSH2 0xE8D JUMP JUMPDEST SWAP3 POP POP PUSH1 0x20 PUSH2 0xF0E DUP6 DUP3 DUP7 ADD PUSH2 0xEC3 JUMP JUMPDEST SWAP2 POP POP SWAP3 POP SWAP3 SWAP1 POP JUMP JUMPDEST PUSH1 0x0 DUP2 ISZERO ISZERO SWAP1 POP SWAP2 SWAP1 POP JUMP JUMPDEST PUSH2 0xF2D DUP2 PUSH2 0xF18 JUMP JUMPDEST DUP3 MSTORE POP POP JUMP JUMPDEST PUSH1 0x0 PUSH1 0x20 DUP3 ADD SWAP1 POP PUSH2 0xF48 PUSH1 0x0 DUP4 ADD DUP5 PUSH2 0xF24 JUMP JUMPDEST SWAP3 SWAP2 POP POP JUMP JUMPDEST PUSH2 0xF57 DUP2 PUSH2 0xEA2 JUMP JUMPDEST DUP3 MSTORE POP POP JUMP JUMPDEST PUSH1 0x0 PUSH1 0x20 DUP3 ADD SWAP1 POP PUSH2 0xF72 PUSH1 0x0 DUP4 ADD DUP5 PUSH2 0xF4E JUMP JUMPDEST SWAP3 SWAP2 POP POP JUMP JUMPDEST PUSH1 0x0 DUP1 PUSH1 0x0 PUSH1 0x60 DUP5 DUP7 SUB SLT ISZERO PUSH2 0xF91 JUMPI PUSH2 0xF90 PUSH2 0xE3F JUMP JUMPDEST JUMPDEST PUSH1 0x0 PUSH2 0xF9F DUP7 DUP3 DUP8 ADD PUSH2 0xE8D JUMP JUMPDEST SWAP4 POP POP PUSH1 0x20 PUSH2 0xFB0 DUP7 DUP3 DUP8 ADD PUSH2 0xE8D JUMP JUMPDEST SWAP3 POP POP PUSH1 0x40 PUSH2 0xFC1 DUP7 DUP3 DUP8 ADD PUSH2 0xEC3 JUMP JUMPDEST SWAP2 POP POP SWAP3 POP SWAP3 POP SWAP3 JUMP JUMPDEST PUSH1 0x0 PUSH1 0xFF DUP3 AND SWAP1 POP SWAP2 SWAP1 POP JUMP JUMPDEST PUSH2 0xFE1 DUP2 PUSH2 0xFCB JUMP JUMPDEST DUP3 MSTORE POP POP JUMP JUMPDEST PUSH1 0x0 PUSH1 0x20 DUP3 ADD SWAP1 POP PUSH2 0xFFC PUSH1 0x0 DUP4 ADD DUP5 PUSH2 0xFD8 JUMP JUMPDEST SWAP3 SWAP2 POP POP JUMP JUMPDEST PUSH1 0x0 PUSH1 0x20 DUP3 DUP5 SUB SLT ISZERO PUSH2 0x1018 JUMPI PUSH2 0x1017 PUSH2 0xE3F JUMP JUMPDEST JUMPDEST PUSH1 0x0 PUSH2 0x1026 DUP5 DUP3 DUP6 ADD PUSH2 0xE8D JUMP JUMPDEST SWAP2 POP POP SWAP3 SWAP2 POP POP JUMP JUMPDEST PUSH2 0x1038 DUP2 PUSH2 0xE64 JUMP JUMPDEST DUP3 MSTORE POP POP JUMP JUMPDEST PUSH1 0x0 PUSH1 0x20 DUP3 ADD SWAP1 POP PUSH2 0x1053 PUSH1 0x0 DUP4 ADD DUP5 PUSH2 0x102F JUMP JUMPDEST SWAP3 SWAP2 POP POP JUMP JUMPDEST PUSH1 0x0 PUSH1 0x20 DUP3 DUP5 SUB SLT ISZERO PUSH2 0x106F JUMPI PUSH2 0x106E PUSH2 0xE3F JUMP JUMPDEST JUMPDEST PUSH1 0x0 PUSH2 0x107D DUP5 DUP3 DUP6 ADD PUSH2 0xEC3 JUMP JUMPDEST SWAP2 POP POP SWAP3 SWAP2 POP POP JUMP JUMPDEST PUSH1 0x0 DUP1 PUSH1 0x40 DUP4 DUP6 SUB SLT ISZERO PUSH2 0x109D JUMPI PUSH2 0x109C PUSH2 0xE3F JUMP JUMPDEST JUMPDEST PUSH1 0x0 PUSH2 0x10AB DUP6 DUP3 DUP7 ADD PUSH2 0xE8D JUMP JUMPDEST SWAP3 POP POP PUSH1 0x20 PUSH2 0x10BC DUP6 DUP3 DUP7 ADD PUSH2 0xE8D JUMP JUMPDEST SWAP2 POP POP SWAP3 POP SWAP3 SWAP1 POP JUMP JUMPDEST PUSH32 0x4E487B7100000000000000000000000000000000000000000000000000000000 PUSH1 0x0 MSTORE PUSH1 0x22 PUSH1 0x4 MSTORE PUSH1 0x24 PUSH1 0x0 REVERT JUMPDEST PUSH1 0x0 PUSH1 0x2 DUP3 DIV SWAP1 POP PUSH1 0x1 DUP3 AND DUP1 PUSH2 0x110D JUMPI PUSH1 0x7F DUP3 AND SWAP2 POP JUMPDEST PUSH1 0x20 DUP3 LT DUP2 EQ ISZERO PUSH2 0x1121 JUMPI PUSH2 0x1120 PUSH2 0x10C6 JUMP JUMPDEST JUMPDEST POP SWAP2 SWAP1 POP JUMP JUMPDEST PUSH32 0x4E487B7100000000000000000000000000000000000000000000000000000000 PUSH1 0x0 MSTORE PUSH1 0x11 PUSH1 0x4 MSTORE PUSH1 0x24 PUSH1 0x0 REVERT JUMPDEST PUSH1 0x0 PUSH2 0x1161 DUP3 PUSH2 0xEA2 JUMP JUMPDEST SWAP2 POP PUSH2 0x116C DUP4 PUSH2 0xEA2 JUMP JUMPDEST SWAP3 POP DUP3 PUSH32 0xFFFFFFFFFFFFFFFFFFFFFFFFFFFFFFFFFFFFFFFFFFFFFFFFFFFFFFFFFFFFFFFF SUB DUP3 GT ISZERO PUSH2 0x11A1 JUMPI PUSH2 0x11A0 PUSH2 0x1127 JUMP JUMPDEST JUMPDEST DUP3 DUP3 ADD SWAP1 POP SWAP3 SWAP2 POP POP JUMP JUMPDEST PUSH32 0x45524332303A2064656372656173656420616C6C6F77616E63652062656C6F77 PUSH1 0x0 DUP3 ADD MSTORE PUSH32 0x207A65726F000000000000000000000000000000000000000000000000000000 PUSH1 0x20 DUP3 ADD MSTORE POP JUMP JUMPDEST PUSH1 0x0 PUSH2 0x1208 PUSH1 0x25 DUP4 PUSH2 0xD8F JUMP JUMPDEST SWAP2 POP PUSH2 0x1213 DUP3 PUSH2 0x11AC JUMP JUMPDEST PUSH1 0x40 DUP3 ADD SWAP1 POP SWAP2 SWAP1 POP JUMP JUMPDEST PUSH1 0x0 PUSH1 0x20 DUP3 ADD SWAP1 POP DUP2 DUP2 SUB PUSH1 0x0 DUP4 ADD MSTORE PUSH2 0x1237 DUP2 PUSH2 0x11FB JUMP JUMPDEST SWAP1 POP SWAP2 SWAP1 POP JUMP JUMPDEST PUSH32 0x5265656E7472616E637947756172643A207265656E7472616E742063616C6C00 PUSH1 0x0 DUP3 ADD MSTORE POP JUMP JUMPDEST PUSH1 0x0 PUSH2 0x1274 PUSH1 0x1F DUP4 PUSH2 0xD8F JUMP JUMPDEST SWAP2 POP PUSH2 0x127F DUP3 PUSH2 0x123E JUMP JUMPDEST PUSH1 0x20 DUP3 ADD SWAP1 POP SWAP2 SWAP1 POP JUMP JUMPDEST PUSH1 0x0 PUSH1 0x20 DUP3 ADD SWAP1 POP DUP2 DUP2 SUB PUSH1 0x0 DUP4 ADD MSTORE PUSH2 0x12A3 DUP2 PUSH2 0x1267 JUMP JUMPDEST SWAP1 POP SWAP2 SWAP1 POP JUMP JUMPDEST PUSH32 0x4F6E6C79206F776E657220697320616C6C6F7765640000000000000000000000 PUSH1 0x0 DUP3 ADD MSTORE POP JUMP JUMPDEST PUSH1 0x0 PUSH2 0x12E0 PUSH1 0x15 DUP4 PUSH2 0xD8F JUMP JUMPDEST SWAP2 POP PUSH2 0x12EB DUP3 PUSH2 0x12AA JUMP JUMPDEST PUSH1 0x20 DUP3 ADD SWAP1 POP SWAP2 SWAP1 POP JUMP JUMPDEST PUSH1 0x0 PUSH1 0x20 DUP3 ADD SWAP1 POP DUP2 DUP2 SUB PUSH1 0x0 DUP4 ADD MSTORE PUSH2 0x130F DUP2 PUSH2 0x12D3 JUMP JUMPDEST SWAP1 POP SWAP2 SWAP1 POP JUMP JUMPDEST PUSH32 0x45524332303A20617070726F76652066726F6D20746865207A65726F20616464 PUSH1 0x0 DUP3 ADD MSTORE PUSH32 0x7265737300000000000000000000000000000000000000000000000000000000 PUSH1 0x20 DUP3 ADD MSTORE POP JUMP JUMPDEST PUSH1 0x0 PUSH2 0x1372 PUSH1 0x24 DUP4 PUSH2 0xD8F JUMP JUMPDEST SWAP2 POP PUSH2 0x137D DUP3 PUSH2 0x1316 JUMP JUMPDEST PUSH1 0x40 DUP3 ADD SWAP1 POP SWAP2 SWAP1 POP JUMP JUMPDEST PUSH1 0x0 PUSH1 0x20 DUP3 ADD SWAP1 POP DUP2 DUP2 SUB PUSH1 0x0 DUP4 ADD MSTORE PUSH2 0x13A1 DUP2 PUSH2 0x1365 JUMP JUMPDEST SWAP1 POP SWAP2 SWAP1 POP JUMP JUMPDEST PUSH32 0x45524332303A20617070726F766520746F20746865207A65726F206164647265 PUSH1 0x0 DUP3 ADD MSTORE PUSH32 0x7373000000000000000000000000000000000000000000000000000000000000 PUSH1 0x20 DUP3 ADD MSTORE POP JUMP JUMPDEST PUSH1 0x0 PUSH2 0x1404 PUSH1 0x22 DUP4 PUSH2 0xD8F JUMP JUMPDEST SWAP2 POP PUSH2 0x140F DUP3 PUSH2 0x13A8 JUMP JUMPDEST PUSH1 0x40 DUP3 ADD SWAP1 POP SWAP2 SWAP1 POP JUMP JUMPDEST PUSH1 0x0 PUSH1 0x20 DUP3 ADD SWAP1 POP DUP2 DUP2 SUB PUSH1 0x0 DUP4 ADD MSTORE PUSH2 0x1433 DUP2 PUSH2 0x13F7 JUMP JUMPDEST SWAP1 POP SWAP2 SWAP1 POP JUMP JUMPDEST PUSH32 0x45524332303A20696E73756666696369656E7420616C6C6F77616E6365000000 PUSH1 0x0 DUP3 ADD MSTORE POP JUMP JUMPDEST PUSH1 0x0 PUSH2 0x1470 PUSH1 0x1D DUP4 PUSH2 0xD8F JUMP JUMPDEST SWAP2 POP PUSH2 0x147B DUP3 PUSH2 0x143A JUMP JUMPDEST PUSH1 0x20 DUP3 ADD SWAP1 POP SWAP2 SWAP1 POP JUMP JUMPDEST PUSH1 0x0 PUSH1 0x20 DUP3 ADD SWAP1 POP DUP2 DUP2 SUB PUSH1 0x0 DUP4 ADD MSTORE PUSH2 0x149F DUP2 PUSH2 0x1463 JUMP JUMPDEST SWAP1 POP SWAP2 SWAP1 POP JUMP JUMPDEST PUSH32 0x45524332303A207472616E736665722066726F6D20746865207A65726F206164 PUSH1 0x0 DUP3 ADD MSTORE PUSH32 0x6472657373000000000000000000000000000000000000000000000000000000 PUSH1 0x20 DUP3 ADD MSTORE POP JUMP JUMPDEST PUSH1 0x0 PUSH2 0x1502 PUSH1 0x25 DUP4 PUSH2 0xD8F JUMP JUMPDEST SWAP2 POP PUSH2 0x150D DUP3 PUSH2 0x14A6 JUMP JUMPDEST PUSH1 0x40 DUP3 ADD SWAP1 POP SWAP2 SWAP1 POP JUMP JUMPDEST PUSH1 0x0 PUSH1 0x20 DUP3 ADD SWAP1 POP DUP2 DUP2 SUB PUSH1 0x0 DUP4 ADD MSTORE PUSH2 0x1531 DUP2 PUSH2 0x14F5 JUMP JUMPDEST SWAP1 POP SWAP2 SWAP1 POP JUMP JUMPDEST PUSH32 0x45524332303A207472616E7366657220746F20746865207A65726F2061646472 PUSH1 0x0 DUP3 ADD MSTORE PUSH32 0x6573730000000000000000000000000000000000000000000000000000000000 PUSH1 0x20 DUP3 ADD MSTORE POP JUMP JUMPDEST PUSH1 0x0 PUSH2 0x1594 PUSH1 0x23 DUP4 PUSH2 0xD8F JUMP JUMPDEST SWAP2 POP PUSH2 0x159F DUP3 PUSH2 0x1538 JUMP JUMPDEST PUSH1 0x40 DUP3 ADD SWAP1 POP SWAP2 SWAP1 POP JUMP JUMPDEST PUSH1 0x0 PUSH1 0x20 DUP3 ADD SWAP1 POP DUP2 DUP2 SUB PUSH1 0x0 DUP4 ADD MSTORE PUSH2 0x15C3 DUP2 PUSH2 0x1587 JUMP JUMPDEST SWAP1 POP SWAP2 SWAP1 POP JUMP JUMPDEST PUSH32 0x45524332303A207472616E7366657220616D6F756E7420657863656564732062 PUSH1 0x0 DUP3 ADD MSTORE PUSH32 0x616C616E63650000000000000000000000000000000000000000000000000000 PUSH1 0x20 DUP3 ADD MSTORE POP JUMP JUMPDEST PUSH1 0x0 PUSH2 0x1626 PUSH1 0x26 DUP4 PUSH2 0xD8F JUMP JUMPDEST SWAP2 POP PUSH2 0x1631 DUP3 PUSH2 0x15CA JUMP JUMPDEST PUSH1 0x40 DUP3 ADD SWAP1 POP SWAP2 SWAP1 POP JUMP JUMPDEST PUSH1 0x0 PUSH1 0x20 DUP3 ADD SWAP1 POP DUP2 DUP2 SUB PUSH1 0x0 DUP4 ADD MSTORE PUSH2 0x1655 DUP2 PUSH2 0x1619 JUMP JUMPDEST SWAP1 POP SWAP2 SWAP1 POP JUMP JUMPDEST PUSH32 0x45524332303A206D696E7420746F20746865207A65726F206164647265737300 PUSH1 0x0 DUP3 ADD MSTORE POP JUMP JUMPDEST PUSH1 0x0 PUSH2 0x1692 PUSH1 0x1F DUP4 PUSH2 0xD8F JUMP JUMPDEST SWAP2 POP PUSH2 0x169D DUP3 PUSH2 0x165C JUMP JUMPDEST PUSH1 0x20 DUP3 ADD SWAP1 POP SWAP2 SWAP1 POP JUMP JUMPDEST PUSH1 0x0 PUSH1 0x20 DUP3 ADD SWAP1 POP DUP2 DUP2 SUB PUSH1 0x0 DUP4 ADD MSTORE PUSH2 0x16C1 DUP2 PUSH2 0x1685 JUMP JUMPDEST SWAP1 POP SWAP2 SWAP1 POP JUMP INVALID LOG2 PUSH5 0x6970667358 0x22 SLT KECCAK256 0xD7 BASEFEE ADD PUSH6 0xDB1BAF656098 BASEFEE SWAP15 0xBC SWAP13 0xE8 STOP SWAP13 SGT LOG1 0xAE LOG3 LOG2 PC 0x25 ADDRESS 0xC2 DUP11 KECCAK256 0x21 0xB2 GASLIMIT 0xF7 PUSH5 0x736F6C6343 STOP ADDMOD MULMOD STOP CALLER "
				},
				"gasEstimates": {
					"creation": {
						"codeDepositCost": "1177200",
						"executionCost": "infinite",
						"totalCost": "infinite"
					},
					"external": {
						"allowance(address,address)": "infinite",
						"approve(address,uint256)": "infinite",
						"balanceOf(address)": "2864",
						"decimals()": "432",
						"decreaseAllowance(address,uint256)": "infinite",
						"increaseAllowance(address,uint256)": "infinite",
						"mintToken(uint256)": "infinite",
						"name()": "infinite",
						"owner()": "2559",
						"symbol()": "infinite",
						"totalSupply()": "2482",
						"transfer(address,uint256)": "infinite",
						"transferFrom(address,address,uint256)": "infinite"
					}
				},
				"methodIdentifiers": {
					"allowance(address,address)": "dd62ed3e",
					"approve(address,uint256)": "095ea7b3",
					"balanceOf(address)": "70a08231",
					"decimals()": "313ce567",
					"decreaseAllowance(address,uint256)": "a457c2d7",
					"increaseAllowance(address,uint256)": "39509351",
					"mintToken(uint256)": "c634d032",
					"name()": "06fdde03",
					"owner()": "8da5cb5b",
					"symbol()": "95d89b41",
					"totalSupply()": "18160ddd",
					"transfer(address,uint256)": "a9059cbb",
					"transferFrom(address,address,uint256)": "23b872dd"
				}
			},
			"storageLayout": {
				"storage": [
					{
						"astId": 55,
						"contract": "contracts/Mindpay.sol:Mindpay",
						"label": "_balances",
						"offset": 0,
						"slot": "0",
						"type": "t_mapping(t_address,t_uint256)"
					},
					{
						"astId": 61,
						"contract": "contracts/Mindpay.sol:Mindpay",
						"label": "_allowances",
						"offset": 0,
						"slot": "1",
						"type": "t_mapping(t_address,t_mapping(t_address,t_uint256))"
					},
					{
						"astId": 63,
						"contract": "contracts/Mindpay.sol:Mindpay",
						"label": "_totalSupply",
						"offset": 0,
						"slot": "2",
						"type": "t_uint256"
					},
					{
						"astId": 65,
						"contract": "contracts/Mindpay.sol:Mindpay",
						"label": "_name",
						"offset": 0,
						"slot": "3",
						"type": "t_string_storage"
					},
					{
						"astId": 67,
						"contract": "contracts/Mindpay.sol:Mindpay",
						"label": "_symbol",
						"offset": 0,
						"slot": "4",
						"type": "t_string_storage"
					},
					{
						"astId": 10,
						"contract": "contracts/Mindpay.sol:Mindpay",
						"label": "_status",
						"offset": 0,
						"slot": "5",
						"type": "t_uint256"
					},
					{
						"astId": 1303,
						"contract": "contracts/Mindpay.sol:Mindpay",
						"label": "owner",
						"offset": 0,
						"slot": "6",
						"type": "t_address"
					}
				],
				"types": {
					"t_address": {
						"encoding": "inplace",
						"label": "address",
						"numberOfBytes": "20"
					},
					"t_mapping(t_address,t_mapping(t_address,t_uint256))": {
						"encoding": "mapping",
						"key": "t_address",
						"label": "mapping(address => mapping(address => uint256))",
						"numberOfBytes": "32",
						"value": "t_mapping(t_address,t_uint256)"
					},
					"t_mapping(t_address,t_uint256)": {
						"encoding": "mapping",
						"key": "t_address",
						"label": "mapping(address => uint256)",
						"numberOfBytes": "32",
						"value": "t_uint256"
					},
					"t_string_storage": {
						"encoding": "bytes",
						"label": "string",
						"numberOfBytes": "32"
					},
					"t_uint256": {
						"encoding": "inplace",
						"label": "uint256",
						"numberOfBytes": "32"
					}
				}
			},
			"userdoc": {
				"kind": "user",
				"methods": {},
				"version": 1
			}
		}
	}
}