{
  "contractName": "Investment",
  "abi": [
    {
      "inputs": [],
      "stateMutability": "nonpayable",
      "type": "constructor"
    },
    {
      "inputs": [],
      "name": "liquidityContractAddress",
      "outputs": [
        {
          "internalType": "address",
          "name": "",
          "type": "address"
        }
      ],
      "stateMutability": "view",
      "type": "function",
      "constant": true
    },
    {
      "inputs": [],
      "name": "mindpayContractAddress",
      "outputs": [
        {
          "internalType": "address",
          "name": "",
          "type": "address"
        }
      ],
      "stateMutability": "view",
      "type": "function",
      "constant": true
    },
    {
      "inputs": [],
      "name": "reserveContractAddress",
      "outputs": [
        {
          "internalType": "address payable",
          "name": "",
          "type": "address"
        }
      ],
      "stateMutability": "view",
      "type": "function",
      "constant": true
    },
    {
      "inputs": [],
      "name": "stakingContractAddress",
      "outputs": [
        {
          "internalType": "address",
          "name": "",
          "type": "address"
        }
      ],
      "stateMutability": "view",
      "type": "function",
      "constant": true
    },
    {
      "inputs": [],
      "name": "totalMindapayTokenAmount",
      "outputs": [
        {
          "internalType": "uint256",
          "name": "",
          "type": "uint256"
        }
      ],
      "stateMutability": "view",
      "type": "function",
      "constant": true
    },
    {
      "inputs": [],
      "name": "investAmount",
      "outputs": [],
      "stateMutability": "payable",
      "type": "function",
      "payable": true
    },
    {
      "inputs": [],
      "name": "cancelInvestment",
      "outputs": [],
      "stateMutability": "nonpayable",
      "type": "function"
    },
    {
      "inputs": [],
      "name": "stakeInvestment",
      "outputs": [],
      "stateMutability": "nonpayable",
      "type": "function"
    },
    {
      "inputs": [],
      "name": "getReserveContractBalance",
      "outputs": [
        {
          "internalType": "uint256",
          "name": "",
          "type": "uint256"
        }
      ],
      "stateMutability": "view",
      "type": "function",
      "constant": true
    },
    {
      "inputs": [],
      "name": "getLiquidityContractBalance",
      "outputs": [
        {
          "internalType": "uint256",
          "name": "",
          "type": "uint256"
        }
      ],
      "stateMutability": "view",
      "type": "function",
      "constant": true
    },
    {
      "inputs": [],
      "name": "getUserData",
      "outputs": [
        {
          "components": [
            {
              "internalType": "address payable",
              "name": "userAddress",
              "type": "address"
            },
            {
              "internalType": "uint256",
              "name": "investedAmount",
              "type": "uint256"
            },
            {
              "internalType": "uint256",
              "name": "reserveAmount",
              "type": "uint256"
            },
            {
              "internalType": "uint256",
              "name": "liquidityAmount",
              "type": "uint256"
            },
            {
              "internalType": "uint256",
              "name": "totalTokenAmount",
              "type": "uint256"
            },
            {
              "internalType": "uint256",
              "name": "currentTokenAmount",
              "type": "uint256"
            },
            {
              "internalType": "uint256",
              "name": "investmenstStartingTime",
              "type": "uint256"
            },
            {
              "internalType": "uint256",
              "name": "investmenstEndingTime",
              "type": "uint256"
            },
            {
              "internalType": "bool",
              "name": "usersDataExists",
              "type": "bool"
            }
          ],
          "internalType": "struct Investment.UserData",
          "name": "",
          "type": "tuple"
        }
      ],
      "stateMutability": "view",
      "type": "function",
      "constant": true
    },
    {
      "inputs": [],
      "name": "getInvestmentEndingTime",
      "outputs": [
        {
          "internalType": "uint256",
          "name": "",
          "type": "uint256"
        }
      ],
      "stateMutability": "view",
      "type": "function",
      "constant": true
    },
    {
      "inputs": [],
      "name": "getUserMindpayTokenBalance",
      "outputs": [
        {
          "internalType": "uint256",
          "name": "",
          "type": "uint256"
        }
      ],
      "stateMutability": "view",
      "type": "function",
      "constant": true
    },
    {
      "inputs": [],
      "name": "getTotalMindpayTokenSupply",
      "outputs": [
        {
          "internalType": "uint256",
          "name": "",
          "type": "uint256"
        }
      ],
      "stateMutability": "view",
      "type": "function",
      "constant": true
    },
    {
      "inputs": [],
      "name": "getCurrentTime",
      "outputs": [
        {
          "internalType": "uint256",
          "name": "",
          "type": "uint256"
        }
      ],
      "stateMutability": "view",
      "type": "function",
      "constant": true
    }
  ],
  "bytecode": "0x60806040523480156200001157600080fd5b50600160008190555060006040516200002a90620001f0565b604051809103906000f08015801562000047573d6000803e3d6000fd5b50905080600160006101000a81548173ffffffffffffffffffffffffffffffffffffffff021916908373ffffffffffffffffffffffffffffffffffffffff16021790555060006040516200009b90620001fe565b604051809103906000f080158015620000b8573d6000803e3d6000fd5b50905080600260006101000a81548173ffffffffffffffffffffffffffffffffffffffff021916908373ffffffffffffffffffffffffffffffffffffffff16021790555060006040516200010c906200020b565b604051809103906000f08015801562000129573d6000803e3d6000fd5b50905080600360006101000a81548173ffffffffffffffffffffffffffffffffffffffff021916908373ffffffffffffffffffffffffffffffffffffffff16021790555060006040516200017d9062000219565b604051809103906000f0801580156200019a573d6000803e3d6000fd5b50905080600460006101000a81548173ffffffffffffffffffffffffffffffffffffffff021916908373ffffffffffffffffffffffffffffffffffffffff16021790555060006005819055505050505062000226565b61209a8062002e6a83390190565b60da8062004f0483390190565b6106378062004fde83390190565b6059806200561583390190565b612c3480620002366000396000f3fe6080604052600436106100e85760003560e01c80634b3f56e91161008a5780639c84bd63116100595780639c84bd631461027d578063cba1fcea146102a8578063cf8b16bc146102d3578063d37392b9146102fe576100e8565b80634b3f56e9146101e55780636b7bedca1461021057806394f8e9541461023b5780639b4b715414610252576100e8565b806322e8c87d116100c657806322e8c87d1461013957806329cb924d146101645780633535f48b1461018f5780633ef08267146101ba576100e8565b8063029457bc146100ed5780630311904c146101185780630ab1e60314610122575b600080fd5b3480156100f957600080fd5b50610102610329565b60405161010f91906122ae565b60405180910390f35b61012061032f565b005b34801561012e57600080fd5b50610137610f39565b005b34801561014557600080fd5b5061014e6116d0565b60405161015b91906123eb565b60405180910390f35b34801561017057600080fd5b50610179611875565b60405161018691906122ae565b60405180910390f35b34801561019b57600080fd5b506101a461187d565b6040516101b19190612428565b60405180910390f35b3480156101c657600080fd5b506101cf6118a3565b6040516101dc91906122ae565b60405180910390f35b3480156101f157600080fd5b506101fa611950565b6040516102079190612428565b60405180910390f35b34801561021c57600080fd5b50610225611976565b60405161023291906122ae565b60405180910390f35b34801561024757600080fd5b506102506119b7565b005b34801561025e57600080fd5b50610267612072565b60405161027491906122ae565b60405180910390f35b34801561028957600080fd5b5061029261207c565b60405161029f9190612452565b60405180910390f35b3480156102b457600080fd5b506102bd6120a2565b6040516102ca9190612428565b60405180910390f35b3480156102df57600080fd5b506102e86120c8565b6040516102f591906122ae565b60405180910390f35b34801561030a57600080fd5b50610313612109565b60405161032091906122ae565b60405180910390f35b60055481565b600260005403610374576040517f08c379a000000000000000000000000000000000000000000000000000000000815260040161036b906124ca565b60405180910390fd5b6002600081905550610385336121b6565b1580156103bd57503373ffffffffffffffffffffffffffffffffffffffff163273ffffffffffffffffffffffffffffffffffffffff16145b6103fc576040517f08c379a00000000000000000000000000000000000000000000000000000000081526004016103f39061255c565b60405180910390fd5b6000341161043f576040517f08c379a0000000000000000000000000000000000000000000000000000000008152600401610436906125c8565b60405180910390fd5b6000349050600061045b6103e8836121d990919063ffffffff16565b90506000670de0b6b3a76400008311801561047d5750674563918244f4000083105b156104c2576104bb6104ac606461049e600a866121d990919063ffffffff16565b6121ef90919063ffffffff16565b8261220590919063ffffffff16565b905061050f565b674563918244f4000083111561050e5761050b6104fc60646104ee6014866121d990919063ffffffff16565b6121ef90919063ffffffff16565b8261220590919063ffffffff16565b90505b5b6000610524828461220590919063ffffffff16565b9050600061054f6064610541605a886121d990919063ffffffff16565b6121ef90919063ffffffff16565b9050600061057a606461056c600a896121d990919063ffffffff16565b6121ef90919063ffffffff16565b9050600660003373ffffffffffffffffffffffffffffffffffffffff1673ffffffffffffffffffffffffffffffffffffffff16815260200190815260200160002060080160009054906101000a900460ff1615610b02576000600660003373ffffffffffffffffffffffffffffffffffffffff1673ffffffffffffffffffffffffffffffffffffffff1681526020019081526020016000206006015414801561066557506000600660003373ffffffffffffffffffffffffffffffffffffffff1673ffffffffffffffffffffffffffffffffffffffff16815260200190815260200160002060070154145b806106fe575042600660003373ffffffffffffffffffffffffffffffffffffffff1673ffffffffffffffffffffffffffffffffffffffff168152602001908152602001600020600601541080156106fd575042600660003373ffffffffffffffffffffffffffffffffffffffff1673ffffffffffffffffffffffffffffffffffffffff16815260200190815260200160002060070154105b5b61073d576040517f08c379a0000000000000000000000000000000000000000000000000000000008152600401610734906126a6565b60405180910390fd5b6000600660003373ffffffffffffffffffffffffffffffffffffffff1673ffffffffffffffffffffffffffffffffffffffff1681526020019081526020016000206001015490506000600660003373ffffffffffffffffffffffffffffffffffffffff1673ffffffffffffffffffffffffffffffffffffffff1681526020019081526020016000206002015490506000600660003373ffffffffffffffffffffffffffffffffffffffff1673ffffffffffffffffffffffffffffffffffffffff1681526020019081526020016000206003015490506000600660003373ffffffffffffffffffffffffffffffffffffffff1673ffffffffffffffffffffffffffffffffffffffff1681526020019081526020016000206004015490506000600660003373ffffffffffffffffffffffffffffffffffffffff1673ffffffffffffffffffffffffffffffffffffffff1681526020019081526020016000206005015490506108b38b8661220590919063ffffffff16565b600660003373ffffffffffffffffffffffffffffffffffffffff1673ffffffffffffffffffffffffffffffffffffffff1681526020019081526020016000206001018190555061090c878561220590919063ffffffff16565b600660003373ffffffffffffffffffffffffffffffffffffffff1673ffffffffffffffffffffffffffffffffffffffff16815260200190815260200160002060020181905550610965868461220590919063ffffffff16565b600660003373ffffffffffffffffffffffffffffffffffffffff1673ffffffffffffffffffffffffffffffffffffffff168152602001908152602001600020600301819055506109be888361220590919063ffffffff16565b600660003373ffffffffffffffffffffffffffffffffffffffff1673ffffffffffffffffffffffffffffffffffffffff16815260200190815260200160002060040181905550610a17888261220590919063ffffffff16565b600660003373ffffffffffffffffffffffffffffffffffffffff1673ffffffffffffffffffffffffffffffffffffffff1681526020019081526020016000206005018190555042600660003373ffffffffffffffffffffffffffffffffffffffff1673ffffffffffffffffffffffffffffffffffffffff1681526020019081526020016000206006018190555061038442610ab291906126f5565b600660003373ffffffffffffffffffffffffffffffffffffffff1673ffffffffffffffffffffffffffffffffffffffff168152602001908152602001600020600701819055505050505050610c59565b6040518061012001604052803373ffffffffffffffffffffffffffffffffffffffff16815260200187815260200183815260200182815260200184815260200184815260200142815260200161038442610b5c91906126f5565b815260200160011515815250600660003373ffffffffffffffffffffffffffffffffffffffff1673ffffffffffffffffffffffffffffffffffffffff16815260200190815260200160002060008201518160000160006101000a81548173ffffffffffffffffffffffffffffffffffffffff021916908373ffffffffffffffffffffffffffffffffffffffff1602179055506020820151816001015560408201518160020155606082015181600301556080820151816004015560a0820151816005015560c0820151816006015560e082015181600701556101008201518160080160006101000a81548160ff0219169083151502179055509050505b610c6e8360055461220590919063ffffffff16565b600581905550600360009054906101000a900473ffffffffffffffffffffffffffffffffffffffff1673ffffffffffffffffffffffffffffffffffffffff166108fc839081150290604051600060405180830381858888f19350505050158015610cdc573d6000803e3d6000fd5b50600260009054906101000a900473ffffffffffffffffffffffffffffffffffffffff1673ffffffffffffffffffffffffffffffffffffffff166108fc829081150290604051600060405180830381858888f19350505050158015610d45573d6000803e3d6000fd5b50600160009054906101000a900473ffffffffffffffffffffffffffffffffffffffff1673ffffffffffffffffffffffffffffffffffffffff166379c6506833856040518363ffffffff1660e01b8152600401610da392919061274b565b600060405180830381600087803b158015610dbd57600080fd5b505af1158015610dd1573d6000803e3d6000fd5b50505050600160009054906101000a900473ffffffffffffffffffffffffffffffffffffffff1673ffffffffffffffffffffffffffffffffffffffff166320d7ee9b33856040518363ffffffff1660e01b8152600401610e3292919061274b565b600060405180830381600087803b158015610e4c57600080fd5b505af1158015610e60573d6000803e3d6000fd5b50505050600160009054906101000a900473ffffffffffffffffffffffffffffffffffffffff1673ffffffffffffffffffffffffffffffffffffffff166323b872dd33600360009054906101000a900473ffffffffffffffffffffffffffffffffffffffff16866040518463ffffffff1660e01b8152600401610ee5939291906127d3565b6020604051808303816000875af1158015610f04573d6000803e3d6000fd5b505050506040513d601f19601f82011682018060405250810190610f28919061283b565b505050505050506001600081905550565b600260005403610f7e576040517f08c379a0000000000000000000000000000000000000000000000000000000008152600401610f75906124ca565b60405180910390fd5b6002600081905550610f8f336121b6565b158015610fc757503373ffffffffffffffffffffffffffffffffffffffff163273ffffffffffffffffffffffffffffffffffffffff16145b611006576040517f08c379a0000000000000000000000000000000000000000000000000000000008152600401610ffd9061255c565b60405180910390fd5b60011515600660003373ffffffffffffffffffffffffffffffffffffffff1673ffffffffffffffffffffffffffffffffffffffff16815260200190815260200160002060080160009054906101000a900460ff1615151461109c576040517f08c379a0000000000000000000000000000000000000000000000000000000008152600401611093906128b4565b60405180910390fd5b6000600660003373ffffffffffffffffffffffffffffffffffffffff1673ffffffffffffffffffffffffffffffffffffffff1681526020019081526020016000206001015411611121576040517f08c379a000000000000000000000000000000000000000000000000000000000815260040161111890612946565b60405180910390fd5b6000600660003373ffffffffffffffffffffffffffffffffffffffff1673ffffffffffffffffffffffffffffffffffffffff16815260200190815260200160002060060154141580156111b757506000600660003373ffffffffffffffffffffffffffffffffffffffff1673ffffffffffffffffffffffffffffffffffffffff1681526020019081526020016000206007015410155b6111f6576040517f08c379a00000000000000000000000000000000000000000000000000000000081526004016111ed90612a24565b60405180910390fd5b6000600660003373ffffffffffffffffffffffffffffffffffffffff1673ffffffffffffffffffffffffffffffffffffffff1681526020019081526020016000206002015490506000600660003373ffffffffffffffffffffffffffffffffffffffff1673ffffffffffffffffffffffffffffffffffffffff1681526020019081526020016000206003015490506000600660003373ffffffffffffffffffffffffffffffffffffffff1673ffffffffffffffffffffffffffffffffffffffff1681526020019081526020016000206005015490506000600660003373ffffffffffffffffffffffffffffffffffffffff1673ffffffffffffffffffffffffffffffffffffffff168152602001908152602001600020600101819055506000600660003373ffffffffffffffffffffffffffffffffffffffff1673ffffffffffffffffffffffffffffffffffffffff1681526020019081526020016000206002018190555061136e838361220590919063ffffffff16565b600660003373ffffffffffffffffffffffffffffffffffffffff1673ffffffffffffffffffffffffffffffffffffffff168152602001908152602001600020600301819055506000600660003373ffffffffffffffffffffffffffffffffffffffff1673ffffffffffffffffffffffffffffffffffffffff168152602001908152602001600020600501819055506000600660003373ffffffffffffffffffffffffffffffffffffffff1673ffffffffffffffffffffffffffffffffffffffff168152602001908152602001600020600601819055506000600660003373ffffffffffffffffffffffffffffffffffffffff1673ffffffffffffffffffffffffffffffffffffffff16815260200190815260200160002060070181905550600360009054906101000a900473ffffffffffffffffffffffffffffffffffffffff1673ffffffffffffffffffffffffffffffffffffffff166364d08bc1600260009054906101000a900473ffffffffffffffffffffffffffffffffffffffff16856040518363ffffffff1660e01b815260040161150b92919061274b565b600060405180830381600087803b15801561152557600080fd5b505af1158015611539573d6000803e3d6000fd5b50505050600160009054906101000a900473ffffffffffffffffffffffffffffffffffffffff1673ffffffffffffffffffffffffffffffffffffffff1663c30d1b2f600360009054906101000a900473ffffffffffffffffffffffffffffffffffffffff16836040518363ffffffff1660e01b81526004016115bc929190612a44565b600060405180830381600087803b1580156115d657600080fd5b505af11580156115ea573d6000803e3d6000fd5b50505050600160009054906101000a900473ffffffffffffffffffffffffffffffffffffffff1673ffffffffffffffffffffffffffffffffffffffff1663fc27c2cb600360009054906101000a900473ffffffffffffffffffffffffffffffffffffffff16600460009054906101000a900473ffffffffffffffffffffffffffffffffffffffff16846040518463ffffffff1660e01b815260040161169193929190612a6d565b600060405180830381600087803b1580156116ab57600080fd5b505af11580156116bf573d6000803e3d6000fd5b505050505050506001600081905550565b6116d8612231565b60011515600660003373ffffffffffffffffffffffffffffffffffffffff1673ffffffffffffffffffffffffffffffffffffffff16815260200190815260200160002060080160009054906101000a900460ff1615151461176e576040517f08c379a000000000000000000000000000000000000000000000000000000000815260040161176590612af0565b60405180910390fd5b600660003373ffffffffffffffffffffffffffffffffffffffff1673ffffffffffffffffffffffffffffffffffffffff168152602001908152602001600020604051806101200160405290816000820160009054906101000a900473ffffffffffffffffffffffffffffffffffffffff1673ffffffffffffffffffffffffffffffffffffffff1673ffffffffffffffffffffffffffffffffffffffff168152602001600182015481526020016002820154815260200160038201548152602001600482015481526020016005820154815260200160068201548152602001600782015481526020016008820160009054906101000a900460ff161515151581525050905090565b600042905090565b600460009054906101000a900473ffffffffffffffffffffffffffffffffffffffff1681565b600060011515600660003373ffffffffffffffffffffffffffffffffffffffff1673ffffffffffffffffffffffffffffffffffffffff16815260200190815260200160002060080160009054906101000a900460ff1615151461190757600061194b565b600660003373ffffffffffffffffffffffffffffffffffffffff1673ffffffffffffffffffffffffffffffffffffffff168152602001908152602001600020600701545b905090565b600160009054906101000a900473ffffffffffffffffffffffffffffffffffffffff1681565b6000600360009054906101000a900473ffffffffffffffffffffffffffffffffffffffff1673ffffffffffffffffffffffffffffffffffffffff1631905090565b6002600054036119fc576040517f08c379a00000000000000000000000000000000000000000000000000000000081526004016119f3906124ca565b60405180910390fd5b6002600081905550611a0d336121b6565b158015611a4557503373ffffffffffffffffffffffffffffffffffffffff163273ffffffffffffffffffffffffffffffffffffffff16145b611a84576040517f08c379a0000000000000000000000000000000000000000000000000000000008152600401611a7b9061255c565b60405180910390fd5b60011515600660003373ffffffffffffffffffffffffffffffffffffffff1673ffffffffffffffffffffffffffffffffffffffff16815260200190815260200160002060080160009054906101000a900460ff16151514611b1a576040517f08c379a0000000000000000000000000000000000000000000000000000000008152600401611b11906128b4565b60405180910390fd5b6000600660003373ffffffffffffffffffffffffffffffffffffffff1673ffffffffffffffffffffffffffffffffffffffff1681526020019081526020016000206001015411611b9f576040517f08c379a0000000000000000000000000000000000000000000000000000000008152600401611b9690612946565b60405180910390fd5b6000600660003373ffffffffffffffffffffffffffffffffffffffff1673ffffffffffffffffffffffffffffffffffffffff1681526020019081526020016000206006015414158015611c3557506000600660003373ffffffffffffffffffffffffffffffffffffffff1673ffffffffffffffffffffffffffffffffffffffff1681526020019081526020016000206007015410155b611c74576040517f08c379a0000000000000000000000000000000000000000000000000000000008152600401611c6b90612a24565b60405180910390fd5b6000600660003373ffffffffffffffffffffffffffffffffffffffff1673ffffffffffffffffffffffffffffffffffffffff1681526020019081526020016000206002015490506000600660003373ffffffffffffffffffffffffffffffffffffffff1673ffffffffffffffffffffffffffffffffffffffff1681526020019081526020016000206004015490506000600660003373ffffffffffffffffffffffffffffffffffffffff1673ffffffffffffffffffffffffffffffffffffffff1681526020019081526020016000206005015490506000600660003373ffffffffffffffffffffffffffffffffffffffff1673ffffffffffffffffffffffffffffffffffffffff168152602001908152602001600020600101819055506000600660003373ffffffffffffffffffffffffffffffffffffffff1673ffffffffffffffffffffffffffffffffffffffff16815260200190815260200160002060020181905550611dec818361221b90919063ffffffff16565b600660003373ffffffffffffffffffffffffffffffffffffffff1673ffffffffffffffffffffffffffffffffffffffff168152602001908152602001600020600401819055506000600660003373ffffffffffffffffffffffffffffffffffffffff1673ffffffffffffffffffffffffffffffffffffffff168152602001908152602001600020600501819055506000600660003373ffffffffffffffffffffffffffffffffffffffff1673ffffffffffffffffffffffffffffffffffffffff168152602001908152602001600020600601819055506000600660003373ffffffffffffffffffffffffffffffffffffffff1673ffffffffffffffffffffffffffffffffffffffff16815260200190815260200160002060070181905550611f1f8160055461221b90919063ffffffff16565b600581905550600360009054906101000a900473ffffffffffffffffffffffffffffffffffffffff1673ffffffffffffffffffffffffffffffffffffffff16636387439533856040518363ffffffff1660e01b8152600401611f8292919061274b565b600060405180830381600087803b158015611f9c57600080fd5b505af1158015611fb0573d6000803e3d6000fd5b50505050600160009054906101000a900473ffffffffffffffffffffffffffffffffffffffff1673ffffffffffffffffffffffffffffffffffffffff1663d1df306c600360009054906101000a900473ffffffffffffffffffffffffffffffffffffffff16836040518363ffffffff1660e01b8152600401612033929190612a44565b600060405180830381600087803b15801561204d57600080fd5b505af1158015612061573d6000803e3d6000fd5b505050505050506001600081905550565b6000600554905090565b600360009054906101000a900473ffffffffffffffffffffffffffffffffffffffff1681565b600260009054906101000a900473ffffffffffffffffffffffffffffffffffffffff1681565b6000600260009054906101000a900473ffffffffffffffffffffffffffffffffffffffff1673ffffffffffffffffffffffffffffffffffffffff1631905090565b600060011515600660003373ffffffffffffffffffffffffffffffffffffffff1673ffffffffffffffffffffffffffffffffffffffff16815260200190815260200160002060080160009054906101000a900460ff1615151461216d5760006121b1565b600660003373ffffffffffffffffffffffffffffffffffffffff1673ffffffffffffffffffffffffffffffffffffffff168152602001908152602001600020600401545b905090565b6000808273ffffffffffffffffffffffffffffffffffffffff163b119050919050565b600081836121e79190612b10565b905092915050565b600081836121fd9190612b99565b905092915050565b6000818361221391906126f5565b905092915050565b600081836122299190612bca565b905092915050565b604051806101200160405280600073ffffffffffffffffffffffffffffffffffffffff168152602001600081526020016000815260200160008152602001600081526020016000815260200160008152602001600081526020016000151581525090565b6000819050919050565b6122a881612295565b82525050565b60006020820190506122c3600083018461229f565b92915050565b600073ffffffffffffffffffffffffffffffffffffffff82169050919050565b60006122f4826122c9565b9050919050565b612304816122e9565b82525050565b61231381612295565b82525050565b60008115159050919050565b61232e81612319565b82525050565b6101208201600082015161234b60008501826122fb565b50602082015161235e602085018261230a565b506040820151612371604085018261230a565b506060820151612384606085018261230a565b506080820151612397608085018261230a565b5060a08201516123aa60a085018261230a565b5060c08201516123bd60c085018261230a565b5060e08201516123d060e085018261230a565b506101008201516123e5610100850182612325565b50505050565b6000610120820190506124016000830184612334565b92915050565b6000612412826122c9565b9050919050565b61242281612407565b82525050565b600060208201905061243d6000830184612419565b92915050565b61244c816122e9565b82525050565b60006020820190506124676000830184612443565b92915050565b600082825260208201905092915050565b7f5265656e7472616e637947756172643a207265656e7472616e742063616c6c00600082015250565b60006124b4601f8361246d565b91506124bf8261247e565b602082019050919050565b600060208201905081810360008301526124e3816124a7565b9050919050565b7f41747461636b2066726f6d20616e20756e6b6e6f776e2065787465726e616c2060008201527f636f6e7472616374000000000000000000000000000000000000000000000000602082015250565b600061254660288361246d565b9150612551826124ea565b604082019050919050565b6000602082019050818103600083015261257581612539565b9050919050565b7f416d6f756e74206d7573742062652061626f7665203000000000000000000000600082015250565b60006125b260168361246d565b91506125bd8261257c565b602082019050919050565b600060208201905081810360008301526125e1816125a5565b9050919050565b7f596f757220696e766573746d656e7420616d6f756e7420616e6420746865207460008201527f6f6b656e7320617265207374696c6c206c6f636b656420696e2074686520636f60208201527f6e74726163742e20506c656173652074727920616674657220736f6d6574696d60408201527f6500000000000000000000000000000000000000000000000000000000000000606082015250565b600061269060618361246d565b915061269b826125e8565b608082019050919050565b600060208201905081810360008301526126bf81612683565b9050919050565b7f4e487b7100000000000000000000000000000000000000000000000000000000600052601160045260246000fd5b600061270082612295565b915061270b83612295565b9250827fffffffffffffffffffffffffffffffffffffffffffffffffffffffffffffffff038211156127405761273f6126c6565b5b828201905092915050565b60006040820190506127606000830185612419565b61276d602083018461229f565b9392505050565b6000819050919050565b600061279961279461278f846122c9565b612774565b6122c9565b9050919050565b60006127ab8261277e565b9050919050565b60006127bd826127a0565b9050919050565b6127cd816127b2565b82525050565b60006060820190506127e86000830186612419565b6127f560208301856127c4565b612802604083018461229f565b949350505050565b600080fd5b61281881612319565b811461282357600080fd5b50565b6000815190506128358161280f565b92915050565b6000602082840312156128515761285061280a565b5b600061285f84828501612826565b91505092915050565b7f54686973207573657220686176656e277420696e7665737465642e0000000000600082015250565b600061289e601b8361246d565b91506128a982612868565b602082019050919050565b600060208201905081810360008301526128cd81612891565b9050919050565b7f54686973207573657220616c72656164792063616e63656c6c65642f7374616b60008201527f65642074686520696e766573746d656e742e0000000000000000000000000000602082015250565b600061293060328361246d565b915061293b826128d4565b604082019050919050565b6000602082019050818103600083015261295f81612923565b9050919050565b7f596f757220696e766573746d656e7420616d6f756e7420616e6420746865207460008201527f6f6b656e73206172652063757272656e746c79206c6f636b656420696e20746860208201527f6520636f6e74726163742e20506c656173652074727920616674657220736f6d60408201527f6574696d65000000000000000000000000000000000000000000000000000000606082015250565b6000612a0e60658361246d565b9150612a1982612966565b608082019050919050565b60006020820190508181036000830152612a3d81612a01565b9050919050565b6000604082019050612a5960008301856127c4565b612a66602083018461229f565b9392505050565b6000606082019050612a8260008301866127c4565b612a8f6020830185612419565b612a9c604083018461229f565b949350505050565b7f55736572206461746120646f6573206e6f74206578697374732e000000000000600082015250565b6000612ada601a8361246d565b9150612ae582612aa4565b602082019050919050565b60006020820190508181036000830152612b0981612acd565b9050919050565b6000612b1b82612295565b9150612b2683612295565b9250817fffffffffffffffffffffffffffffffffffffffffffffffffffffffffffffffff0483118215151615612b5f57612b5e6126c6565b5b828202905092915050565b7f4e487b7100000000000000000000000000000000000000000000000000000000600052601260045260246000fd5b6000612ba482612295565b9150612baf83612295565b925082612bbf57612bbe612b6a565b5b828204905092915050565b6000612bd582612295565b9150612be083612295565b925082821015612bf357612bf26126c6565b5b82820390509291505056fea264697066735822122081ad2ca0c56473de48c6ba23be54e1cbca634f3a373a07d57f95822d9b310f5764736f6c634300080e003360806040523480156200001157600080fd5b506040518060400160405280600781526020017f4d696e64706179000000000000000000000000000000000000000000000000008152506040518060400160405280600781526020017f4d494e445041590000000000000000000000000000000000000000000000000081525081600390805190602001906200009692919062000101565b508060049080519060200190620000af92919062000101565b505050600160058190555033600660006101000a81548173ffffffffffffffffffffffffffffffffffffffff021916908373ffffffffffffffffffffffffffffffffffffffff16021790555062000215565b8280546200010f90620001e0565b90600052602060002090601f0160209004810192826200013357600085556200017f565b82601f106200014e57805160ff19168380011785556200017f565b828001600101855582156200017f579182015b828111156200017e57825182559160200191906001019062000161565b5b5090506200018e919062000192565b5090565b5b80821115620001ad57600081600090555060010162000193565b5090565b7f4e487b7100000000000000000000000000000000000000000000000000000000600052602260045260246000fd5b60006002820490506001821680620001f957607f821691505b6020821081036200020f576200020e620001b1565b5b50919050565b611e7580620002256000396000f3fe608060405234801561001057600080fd5b506004361061010b5760003560e01c806379c65068116100a2578063a9059cbb11610071578063a9059cbb146102ce578063c30d1b2f146102fe578063d1df306c1461031a578063dd62ed3e14610336578063fc27c2cb146103665761010b565b806379c65068146102465780638da5cb5b1461026257806395d89b4114610280578063a457c2d71461029e5761010b565b806323b872dd116100de57806323b872dd14610198578063313ce567146101c857806339509351146101e657806370a08231146102165761010b565b806306fdde0314610110578063095ea7b31461012e57806318160ddd1461015e57806320d7ee9b1461017c575b600080fd5b610118610382565b604051610125919061146a565b60405180910390f35b61014860048036038101906101439190611525565b610414565b6040516101559190611580565b60405180910390f35b610166610437565b60405161017391906115aa565b60405180910390f35b61019660048036038101906101919190611525565b610441565b005b6101b260048036038101906101ad91906115c5565b610557565b6040516101bf9190611580565b60405180910390f35b6101d0610586565b6040516101dd9190611634565b60405180910390f35b61020060048036038101906101fb9190611525565b61058f565b60405161020d9190611580565b60405180910390f35b610230600480360381019061022b919061164f565b6105c6565b60405161023d91906115aa565b60405180910390f35b610260600480360381019061025b9190611525565b61060e565b005b61026a610701565b604051610277919061168b565b60405180910390f35b610288610727565b604051610295919061146a565b60405180910390f35b6102b860048036038101906102b39190611525565b6107b9565b6040516102c59190611580565b60405180910390f35b6102e860048036038101906102e39190611525565b610830565b6040516102f59190611580565b60405180910390f35b61031860048036038101906103139190611525565b610853565b005b610334600480360381019061032f9190611525565b610947565b005b610350600480360381019061034b91906116a6565b610a3a565b60405161035d91906115aa565b60405180910390f35b610380600480360381019061037b91906115c5565b610ac1565b005b60606003805461039190611715565b80601f01602080910402602001604051908101604052809291908181526020018280546103bd90611715565b801561040a5780601f106103df5761010080835404028352916020019161040a565b820191906000526020600020905b8154815290600101906020018083116103ed57829003601f168201915b5050505050905090565b60008061041f610bb6565b905061042c818585610bbe565b600191505092915050565b6000600254905090565b600260055403610486576040517f08c379a000000000000000000000000000000000000000000000000000000000815260040161047d90611792565b60405180910390fd5b60026005819055503373ffffffffffffffffffffffffffffffffffffffff16600660009054906101000a900473ffffffffffffffffffffffffffffffffffffffff1673ffffffffffffffffffffffffffffffffffffffff161461051e576040517f08c379a0000000000000000000000000000000000000000000000000000000008152600401610515906117fe565b60405180910390fd5b61054b82600660009054906101000a900473ffffffffffffffffffffffffffffffffffffffff1683610bbe565b60016005819055505050565b600080610562610bb6565b905061056f858285610d87565b61057a858585610e13565b60019150509392505050565b60006012905090565b60008061059a610bb6565b90506105bb8185856105ac8589610a3a565b6105b6919061184d565b610bbe565b600191505092915050565b60008060008373ffffffffffffffffffffffffffffffffffffffff1673ffffffffffffffffffffffffffffffffffffffff168152602001908152602001600020549050919050565b600260055403610653576040517f08c379a000000000000000000000000000000000000000000000000000000000815260040161064a90611792565b60405180910390fd5b60026005819055503373ffffffffffffffffffffffffffffffffffffffff16600660009054906101000a900473ffffffffffffffffffffffffffffffffffffffff1673ffffffffffffffffffffffffffffffffffffffff16146106eb576040517f08c379a00000000000000000000000000000000000000000000000000000000081526004016106e2906117fe565b60405180910390fd5b6106f58282611092565b60016005819055505050565b600660009054906101000a900473ffffffffffffffffffffffffffffffffffffffff1681565b60606004805461073690611715565b80601f016020809104026020016040519081016040528092919081815260200182805461076290611715565b80156107af5780601f10610784576101008083540402835291602001916107af565b820191906000526020600020905b81548152906001019060200180831161079257829003601f168201915b5050505050905090565b6000806107c4610bb6565b905060006107d28286610a3a565b905083811015610817576040517f08c379a000000000000000000000000000000000000000000000000000000000815260040161080e90611915565b60405180910390fd5b6108248286868403610bbe565b60019250505092915050565b60008061083b610bb6565b9050610848818585610e13565b600191505092915050565b600260055403610898576040517f08c379a000000000000000000000000000000000000000000000000000000000815260040161088f90611792565b60405180910390fd5b60026005819055503373ffffffffffffffffffffffffffffffffffffffff16600660009054906101000a900473ffffffffffffffffffffffffffffffffffffffff1673ffffffffffffffffffffffffffffffffffffffff1614610930576040517f08c379a0000000000000000000000000000000000000000000000000000000008152600401610927906117fe565b60405180910390fd5b61093b828383610bbe565b60016005819055505050565b60026005540361098c576040517f08c379a000000000000000000000000000000000000000000000000000000000815260040161098390611792565b60405180910390fd5b60026005819055503373ffffffffffffffffffffffffffffffffffffffff16600660009054906101000a900473ffffffffffffffffffffffffffffffffffffffff1673ffffffffffffffffffffffffffffffffffffffff1614610a24576040517f08c379a0000000000000000000000000000000000000000000000000000000008152600401610a1b906117fe565b60405180910390fd5b610a2e82826111f1565b60016005819055505050565b6000600160008473ffffffffffffffffffffffffffffffffffffffff1673ffffffffffffffffffffffffffffffffffffffff16815260200190815260200160002060008373ffffffffffffffffffffffffffffffffffffffff1673ffffffffffffffffffffffffffffffffffffffff16815260200190815260200160002054905092915050565b600260055403610b06576040517f08c379a0000000000000000000000000000000000000000000000000000000008152600401610afd90611792565b60405180910390fd5b60026005819055503373ffffffffffffffffffffffffffffffffffffffff16600660009054906101000a900473ffffffffffffffffffffffffffffffffffffffff1673ffffffffffffffffffffffffffffffffffffffff1614610b9e576040517f08c379a0000000000000000000000000000000000000000000000000000000008152600401610b95906117fe565b60405180910390fd5b610ba9838383610e13565b6001600581905550505050565b600033905090565b600073ffffffffffffffffffffffffffffffffffffffff168373ffffffffffffffffffffffffffffffffffffffff1603610c2d576040517f08c379a0000000000000000000000000000000000000000000000000000000008152600401610c24906119a7565b60405180910390fd5b600073ffffffffffffffffffffffffffffffffffffffff168273ffffffffffffffffffffffffffffffffffffffff1603610c9c576040517f08c379a0000000000000000000000000000000000000000000000000000000008152600401610c9390611a39565b60405180910390fd5b80600160008573ffffffffffffffffffffffffffffffffffffffff1673ffffffffffffffffffffffffffffffffffffffff16815260200190815260200160002060008473ffffffffffffffffffffffffffffffffffffffff1673ffffffffffffffffffffffffffffffffffffffff168152602001908152602001600020819055508173ffffffffffffffffffffffffffffffffffffffff168373ffffffffffffffffffffffffffffffffffffffff167f8c5be1e5ebec7d5bd14f71427d1e84f3dd0314c0f7b2291e5b200ac8c7c3b92583604051610d7a91906115aa565b60405180910390a3505050565b6000610d938484610a3a565b90507fffffffffffffffffffffffffffffffffffffffffffffffffffffffffffffffff8114610e0d5781811015610dff576040517f08c379a0000000000000000000000000000000000000000000000000000000008152600401610df690611aa5565b60405180910390fd5b610e0c8484848403610bbe565b5b50505050565b600073ffffffffffffffffffffffffffffffffffffffff168373ffffffffffffffffffffffffffffffffffffffff1603610e82576040517f08c379a0000000000000000000000000000000000000000000000000000000008152600401610e7990611b37565b60405180910390fd5b600073ffffffffffffffffffffffffffffffffffffffff168273ffffffffffffffffffffffffffffffffffffffff1603610ef1576040517f08c379a0000000000000000000000000000000000000000000000000000000008152600401610ee890611bc9565b60405180910390fd5b610efc8383836113c7565b60008060008573ffffffffffffffffffffffffffffffffffffffff1673ffffffffffffffffffffffffffffffffffffffff16815260200190815260200160002054905081811015610f82576040517f08c379a0000000000000000000000000000000000000000000000000000000008152600401610f7990611c5b565b60405180910390fd5b8181036000808673ffffffffffffffffffffffffffffffffffffffff1673ffffffffffffffffffffffffffffffffffffffff16815260200190815260200160002081905550816000808573ffffffffffffffffffffffffffffffffffffffff1673ffffffffffffffffffffffffffffffffffffffff1681526020019081526020016000206000828254611015919061184d565b925050819055508273ffffffffffffffffffffffffffffffffffffffff168473ffffffffffffffffffffffffffffffffffffffff167fddf252ad1be2c89b69c2b068fc378daa952ba7f163c4a11628f55a4df523b3ef8460405161107991906115aa565b60405180910390a361108c8484846113cc565b50505050565b600073ffffffffffffffffffffffffffffffffffffffff168273ffffffffffffffffffffffffffffffffffffffff1603611101576040517f08c379a00000000000000000000000000000000000000000000000000000000081526004016110f890611cc7565b60405180910390fd5b61110d600083836113c7565b806002600082825461111f919061184d565b92505081905550806000808473ffffffffffffffffffffffffffffffffffffffff1673ffffffffffffffffffffffffffffffffffffffff1681526020019081526020016000206000828254611174919061184d565b925050819055508173ffffffffffffffffffffffffffffffffffffffff16600073ffffffffffffffffffffffffffffffffffffffff167fddf252ad1be2c89b69c2b068fc378daa952ba7f163c4a11628f55a4df523b3ef836040516111d991906115aa565b60405180910390a36111ed600083836113cc565b5050565b600073ffffffffffffffffffffffffffffffffffffffff168273ffffffffffffffffffffffffffffffffffffffff1603611260576040517f08c379a000000000000000000000000000000000000000000000000000000000815260040161125790611d59565b60405180910390fd5b61126c826000836113c7565b60008060008473ffffffffffffffffffffffffffffffffffffffff1673ffffffffffffffffffffffffffffffffffffffff168152602001908152602001600020549050818110156112f2576040517f08c379a00000000000000000000000000000000000000000000000000000000081526004016112e990611deb565b60405180910390fd5b8181036000808573ffffffffffffffffffffffffffffffffffffffff1673ffffffffffffffffffffffffffffffffffffffff1681526020019081526020016000208190555081600260008282546113499190611e0b565b92505081905550600073ffffffffffffffffffffffffffffffffffffffff168373ffffffffffffffffffffffffffffffffffffffff167fddf252ad1be2c89b69c2b068fc378daa952ba7f163c4a11628f55a4df523b3ef846040516113ae91906115aa565b60405180910390a36113c2836000846113cc565b505050565b505050565b505050565b600081519050919050565b600082825260208201905092915050565b60005b8381101561140b5780820151818401526020810190506113f0565b8381111561141a576000848401525b50505050565b6000601f19601f8301169050919050565b600061143c826113d1565b61144681856113dc565b93506114568185602086016113ed565b61145f81611420565b840191505092915050565b600060208201905081810360008301526114848184611431565b905092915050565b600080fd5b600073ffffffffffffffffffffffffffffffffffffffff82169050919050565b60006114bc82611491565b9050919050565b6114cc816114b1565b81146114d757600080fd5b50565b6000813590506114e9816114c3565b92915050565b6000819050919050565b611502816114ef565b811461150d57600080fd5b50565b60008135905061151f816114f9565b92915050565b6000806040838503121561153c5761153b61148c565b5b600061154a858286016114da565b925050602061155b85828601611510565b9150509250929050565b60008115159050919050565b61157a81611565565b82525050565b60006020820190506115956000830184611571565b92915050565b6115a4816114ef565b82525050565b60006020820190506115bf600083018461159b565b92915050565b6000806000606084860312156115de576115dd61148c565b5b60006115ec868287016114da565b93505060206115fd868287016114da565b925050604061160e86828701611510565b9150509250925092565b600060ff82169050919050565b61162e81611618565b82525050565b60006020820190506116496000830184611625565b92915050565b6000602082840312156116655761166461148c565b5b6000611673848285016114da565b91505092915050565b611685816114b1565b82525050565b60006020820190506116a0600083018461167c565b92915050565b600080604083850312156116bd576116bc61148c565b5b60006116cb858286016114da565b92505060206116dc858286016114da565b9150509250929050565b7f4e487b7100000000000000000000000000000000000000000000000000000000600052602260045260246000fd5b6000600282049050600182168061172d57607f821691505b6020821081036117405761173f6116e6565b5b50919050565b7f5265656e7472616e637947756172643a207265656e7472616e742063616c6c00600082015250565b600061177c601f836113dc565b915061178782611746565b602082019050919050565b600060208201905081810360008301526117ab8161176f565b9050919050565b7f4f6e6c79206f776e657220697320616c6c6f7765640000000000000000000000600082015250565b60006117e86015836113dc565b91506117f3826117b2565b602082019050919050565b60006020820190508181036000830152611817816117db565b9050919050565b7f4e487b7100000000000000000000000000000000000000000000000000000000600052601160045260246000fd5b6000611858826114ef565b9150611863836114ef565b9250827fffffffffffffffffffffffffffffffffffffffffffffffffffffffffffffffff038211156118985761189761181e565b5b828201905092915050565b7f45524332303a2064656372656173656420616c6c6f77616e63652062656c6f7760008201527f207a65726f000000000000000000000000000000000000000000000000000000602082015250565b60006118ff6025836113dc565b915061190a826118a3565b604082019050919050565b6000602082019050818103600083015261192e816118f2565b9050919050565b7f45524332303a20617070726f76652066726f6d20746865207a65726f2061646460008201527f7265737300000000000000000000000000000000000000000000000000000000602082015250565b60006119916024836113dc565b915061199c82611935565b604082019050919050565b600060208201905081810360008301526119c081611984565b9050919050565b7f45524332303a20617070726f766520746f20746865207a65726f20616464726560008201527f7373000000000000000000000000000000000000000000000000000000000000602082015250565b6000611a236022836113dc565b9150611a2e826119c7565b604082019050919050565b60006020820190508181036000830152611a5281611a16565b9050919050565b7f45524332303a20696e73756666696369656e7420616c6c6f77616e6365000000600082015250565b6000611a8f601d836113dc565b9150611a9a82611a59565b602082019050919050565b60006020820190508181036000830152611abe81611a82565b9050919050565b7f45524332303a207472616e736665722066726f6d20746865207a65726f20616460008201527f6472657373000000000000000000000000000000000000000000000000000000602082015250565b6000611b216025836113dc565b9150611b2c82611ac5565b604082019050919050565b60006020820190508181036000830152611b5081611b14565b9050919050565b7f45524332303a207472616e7366657220746f20746865207a65726f206164647260008201527f6573730000000000000000000000000000000000000000000000000000000000602082015250565b6000611bb36023836113dc565b9150611bbe82611b57565b604082019050919050565b60006020820190508181036000830152611be281611ba6565b9050919050565b7f45524332303a207472616e7366657220616d6f756e742065786365656473206260008201527f616c616e63650000000000000000000000000000000000000000000000000000602082015250565b6000611c456026836113dc565b9150611c5082611be9565b604082019050919050565b60006020820190508181036000830152611c7481611c38565b9050919050565b7f45524332303a206d696e7420746f20746865207a65726f206164647265737300600082015250565b6000611cb1601f836113dc565b9150611cbc82611c7b565b602082019050919050565b60006020820190508181036000830152611ce081611ca4565b9050919050565b7f45524332303a206275726e2066726f6d20746865207a65726f2061646472657360008201527f7300000000000000000000000000000000000000000000000000000000000000602082015250565b6000611d436021836113dc565b9150611d4e82611ce7565b604082019050919050565b60006020820190508181036000830152611d7281611d36565b9050919050565b7f45524332303a206275726e20616d6f756e7420657863656564732062616c616e60008201527f6365000000000000000000000000000000000000000000000000000000000000602082015250565b6000611dd56022836113dc565b9150611de082611d79565b604082019050919050565b60006020820190508181036000830152611e0481611dc8565b9050919050565b6000611e16826114ef565b9150611e21836114ef565b925082821015611e3457611e3361181e565b5b82820390509291505056fea2646970667358221220e102bd7fbdac56640508a06623bc7bb03706bd9c30b9fb63088eba26eea3b5c064736f6c634300080e0033608060405234801561001057600080fd5b5060bb8061001f6000396000f3fe608060405260043610601f5760003560e01c80636f9fb98a146027576025565b36602557005b005b348015603257600080fd5b506039604d565b60405160449190606c565b60405180910390f35b600047905090565b6000819050919050565b6066816055565b82525050565b6000602082019050607f6000830184605f565b9291505056fea26469706673582212203a9fa0054beb6137720595c27bd5bf1116a504b6a946711bb8a2f2909c77774d64736f6c634300080e0033608060405234801561001057600080fd5b50600160008190555033600160006101000a81548173ffffffffffffffffffffffffffffffffffffffff021916908373ffffffffffffffffffffffffffffffffffffffff1602179055506105ce806100696000396000f3fe6080604052600436106100435760003560e01c8063638743951461004c57806364d08bc1146100755780636f9fb98a1461009e5780638da5cb5b146100c95761004a565b3661004a57005b005b34801561005857600080fd5b50610073600480360381019061006e919061041b565b6100f4565b005b34801561008157600080fd5b5061009c6004803603810190610097919061041b565b610224565b005b3480156100aa57600080fd5b506100b3610354565b6040516100c0919061046a565b60405180910390f35b3480156100d557600080fd5b506100de61035c565b6040516100eb9190610494565b60405180910390f35b600260005403610139576040517f08c379a00000000000000000000000000000000000000000000000000000000081526004016101309061050c565b60405180910390fd5b60026000819055503373ffffffffffffffffffffffffffffffffffffffff16600160009054906101000a900473ffffffffffffffffffffffffffffffffffffffff1673ffffffffffffffffffffffffffffffffffffffff16146101d1576040517f08c379a00000000000000000000000000000000000000000000000000000000081526004016101c890610578565b60405180910390fd5b8173ffffffffffffffffffffffffffffffffffffffff166108fc829081150290604051600060405180830381858888f19350505050158015610217573d6000803e3d6000fd5b5060016000819055505050565b600260005403610269576040517f08c379a00000000000000000000000000000000000000000000000000000000081526004016102609061050c565b60405180910390fd5b60026000819055503373ffffffffffffffffffffffffffffffffffffffff16600160009054906101000a900473ffffffffffffffffffffffffffffffffffffffff1673ffffffffffffffffffffffffffffffffffffffff1614610301576040517f08c379a00000000000000000000000000000000000000000000000000000000081526004016102f890610578565b60405180910390fd5b8173ffffffffffffffffffffffffffffffffffffffff166108fc829081150290604051600060405180830381858888f19350505050158015610347573d6000803e3d6000fd5b5060016000819055505050565b600047905090565b600160009054906101000a900473ffffffffffffffffffffffffffffffffffffffff1681565b600080fd5b600073ffffffffffffffffffffffffffffffffffffffff82169050919050565b60006103b282610387565b9050919050565b6103c2816103a7565b81146103cd57600080fd5b50565b6000813590506103df816103b9565b92915050565b6000819050919050565b6103f8816103e5565b811461040357600080fd5b50565b600081359050610415816103ef565b92915050565b6000806040838503121561043257610431610382565b5b6000610440858286016103d0565b925050602061045185828601610406565b9150509250929050565b610464816103e5565b82525050565b600060208201905061047f600083018461045b565b92915050565b61048e816103a7565b82525050565b60006020820190506104a96000830184610485565b92915050565b600082825260208201905092915050565b7f5265656e7472616e637947756172643a207265656e7472616e742063616c6c00600082015250565b60006104f6601f836104af565b9150610501826104c0565b602082019050919050565b60006020820190508181036000830152610525816104e9565b9050919050565b7f4f6e6c79206f776e657220697320616c6c6f7765640000000000000000000000600082015250565b60006105626015836104af565b915061056d8261052c565b602082019050919050565b6000602082019050818103600083015261059181610555565b905091905056fea26469706673582212206d32cc5d87b763ca4e04e781cdb8117ae2023a97db98266c329d7be5c56ab21264736f6c634300080e00336080604052348015600f57600080fd5b50603c80601d6000396000f3fe608060405200fea2646970667358221220d138713399dbf76ca39c80dd0457684dadaf7b3765268e504b97b375b687b32964736f6c634300080e0033",
  "immutableReferences": {},
  "source": "// SPDX-License-Identifier: MIT\npragma solidity >=0.8.9;\n\nimport \"../node_modules/@openzeppelin/contracts/utils/Address.sol\";\nimport \"../node_modules/@openzeppelin/contracts/utils/math/SafeMath.sol\";\nimport \"../node_modules/@openzeppelin/contracts/token/ERC20/ERC20.sol\";\nimport \"../node_modules/@openzeppelin/contracts/security/ReentrancyGuard.sol\";\n\nimport \"./Mindpay.sol\";\nimport \"./Liquidity.sol\";\nimport \"./Reserve.sol\";\nimport \"./Staking.sol\";\n\ncontract Investment is ReentrancyGuard {\n    using SafeMath for uint;\n\n    address public mindpayContractAddress;\n    address public liquidityContractAddress;\n    address payable public reserveContractAddress;\n    address public stakingContractAddress;\n\n    uint public totalMindapayTokenAmount;\n\n    struct UserData {\n        address payable userAddress;\n        uint investedAmount;\n        uint reserveAmount;\n        uint liquidityAmount;\n        uint totalTokenAmount;\n        uint currentTokenAmount;\n        uint investmenstStartingTime;\n        uint investmenstEndingTime;\n        bool usersDataExists;\n    }\n\n    mapping(address => UserData) private usersData;\n\n    modifier onlyNonContract() {\n        require(\n            (\n                !Address.isContract(msg.sender)\n            ) && (\n                tx.origin == msg.sender\n            ),\n            \"Attack from an unknown external contract\"\n        );\n        _;\n    }\n\n    constructor() {\n        Mindpay mindpayContract = new Mindpay();\n        mindpayContractAddress = address(mindpayContract);\n\n        Liquidity liquidityContract = new Liquidity();\n        liquidityContractAddress = address(liquidityContract);\n\n        Reserve reserveContract = new Reserve();\n        reserveContractAddress = payable(address(reserveContract));\n\n        Staking stakingContract = new Staking();\n        stakingContractAddress = address(stakingContract);\n\n        totalMindapayTokenAmount = 0;\n    }\n\n    function investAmount() public payable nonReentrant onlyNonContract {\n        require(msg.value > 0, \"Amount must be above 0\");\n\n        uint investedAmount = msg.value;\n        uint tokenAmount = investedAmount.mul(1000);\n        uint bonusTokenAmount = 0;\n\n        if (investedAmount > 1 ether && investedAmount < 5 ether) {\n            bonusTokenAmount = bonusTokenAmount.add(tokenAmount.mul(10).div(100));\n        } else if (investedAmount > 5 ether) {\n            bonusTokenAmount = bonusTokenAmount.add(tokenAmount.mul(20).div(100));\n        }\n\n        uint totalTokenAmount = tokenAmount.add(bonusTokenAmount);\n        uint reserveContractAmount = investedAmount.mul(90).div(100);\n        uint liquidityContractAmount = investedAmount.mul(10).div(100);\n\n        if (usersData[msg.sender].usersDataExists) {\n            require(\n                (\n                    (\n                        usersData[msg.sender].investmenstStartingTime == 0\n                    ) && (\n                        usersData[msg.sender].investmenstEndingTime == 0\n                    )\n                ) || (\n                    (\n                        usersData[msg.sender].investmenstStartingTime < block.timestamp\n                    ) && (\n                        usersData[msg.sender].investmenstEndingTime < block.timestamp\n                    )\n                ),\n                \"Your investment amount and the tokens are still locked in the contract. Please try after sometime\"\n            );\n\n            uint userInvestedAmount = usersData[msg.sender].investedAmount;\n            uint userReservedAmount = usersData[msg.sender].reserveAmount;\n            uint userLiquidityAmount = usersData[msg.sender].liquidityAmount;\n            uint userTokenAmount = usersData[msg.sender].totalTokenAmount;\n            uint userCurrentTokenAmount = usersData[msg.sender].currentTokenAmount;\n\n            usersData[msg.sender].investedAmount = userInvestedAmount.add(\n                investedAmount\n            );\n            usersData[msg.sender].reserveAmount = userReservedAmount.add(\n                reserveContractAmount\n            );\n            usersData[msg.sender].liquidityAmount = userLiquidityAmount.add(\n                liquidityContractAmount\n            );\n            usersData[msg.sender].totalTokenAmount = userTokenAmount.add(\n                totalTokenAmount\n            );\n            usersData[msg.sender].currentTokenAmount = userCurrentTokenAmount.add(\n                totalTokenAmount\n            );\n            usersData[msg.sender].investmenstStartingTime = block.timestamp;\n            usersData[msg.sender].investmenstEndingTime = block.timestamp + 15 minutes;\n        } else {\n            usersData[msg.sender] = UserData({\n                userAddress: payable(msg.sender),\n                investedAmount: investedAmount,\n                reserveAmount: reserveContractAmount,\n                liquidityAmount: liquidityContractAmount,\n                totalTokenAmount: totalTokenAmount,\n                currentTokenAmount: totalTokenAmount,\n                investmenstStartingTime: block.timestamp,\n                investmenstEndingTime: block.timestamp + 15 minutes,\n                usersDataExists: true\n            });\n        }\n\n        totalMindapayTokenAmount = totalMindapayTokenAmount.add(totalTokenAmount);\n\n        payable(reserveContractAddress).transfer(reserveContractAmount);\n\n        payable(liquidityContractAddress).transfer(liquidityContractAmount);\n\n        Mindpay(mindpayContractAddress).mintToken(\n            msg.sender,\n            totalTokenAmount\n        );\n\n        Mindpay(mindpayContractAddress).approveOwner(\n            msg.sender,\n            totalTokenAmount\n        );\n\n        IERC20(mindpayContractAddress).transferFrom(\n            msg.sender,\n            reserveContractAddress,\n            totalTokenAmount\n        );\n    }\n\n    function cancelInvestment() public nonReentrant onlyNonContract {\n        require(\n            usersData[msg.sender].usersDataExists == true,\n            \"This user haven't invested.\"\n        );\n\n        require(\n            usersData[msg.sender].investedAmount > 0,\n            \"This user already cancelled/staked the investment.\"\n        );\n\n        require(\n            (\n                usersData[msg.sender].investmenstStartingTime != 0\n            ) && (\n                usersData[msg.sender].investmenstEndingTime >= 0\n            ),\n            \"Your investment amount and the tokens are currently locked in the contract. Please try after sometime\"\n        );\n        \n        uint reserveAmount = usersData[msg.sender].reserveAmount;\n        uint totalTokenAmount = usersData[msg.sender].totalTokenAmount;\n        uint currentTokenAmount = usersData[msg.sender].currentTokenAmount;\n\n        usersData[msg.sender].investedAmount = 0;\n        usersData[msg.sender].reserveAmount = 0;\n        usersData[msg.sender].totalTokenAmount = totalTokenAmount.sub(\n            currentTokenAmount\n        );\n        usersData[msg.sender].currentTokenAmount = 0;\n        usersData[msg.sender].investmenstStartingTime = 0;\n        usersData[msg.sender].investmenstEndingTime = 0;\n\n        totalMindapayTokenAmount = totalMindapayTokenAmount.sub(currentTokenAmount);\n\n        Reserve(reserveContractAddress).returnInvestment(\n            msg.sender,\n            reserveAmount\n        );\n\n        Mindpay(mindpayContractAddress).burnToken(\n            reserveContractAddress,\n            currentTokenAmount\n        );\n    }\n\n    function stakeInvestment() public nonReentrant onlyNonContract {\n        require(\n            usersData[msg.sender].usersDataExists == true,\n            \"This user haven't invested.\"\n        );\n\n        require(\n            usersData[msg.sender].investedAmount > 0,\n            \"This user already cancelled/staked the investment.\"\n        );\n\n        require(\n            (\n                usersData[msg.sender].investmenstStartingTime != 0\n            ) && (\n                usersData[msg.sender].investmenstEndingTime >= 0\n            ),\n            \"Your investment amount and the tokens are currently locked in the contract. Please try after sometime\"\n        );\n        \n        uint reserveAmount = usersData[msg.sender].reserveAmount;\n        uint liquidityAmount = usersData[msg.sender].liquidityAmount;\n        uint currentTokenAmount = usersData[msg.sender].currentTokenAmount;\n\n        usersData[msg.sender].investedAmount = 0;\n        usersData[msg.sender].reserveAmount = 0;\n        usersData[msg.sender].liquidityAmount = liquidityAmount.add(reserveAmount);\n        usersData[msg.sender].currentTokenAmount = 0;\n        usersData[msg.sender].investmenstStartingTime = 0;\n        usersData[msg.sender].investmenstEndingTime = 0;\n\n        Reserve(reserveContractAddress).transferToLiquidity(\n            liquidityContractAddress,\n            reserveAmount\n        );\n\n        Mindpay(mindpayContractAddress).approveReserveContract(\n            reserveContractAddress,\n            currentTokenAmount\n        );\n\n        Mindpay(mindpayContractAddress).transferToStakingContract(\n            reserveContractAddress,\n            stakingContractAddress,\n            currentTokenAmount\n        );\n    }\n\n    function getReserveContractBalance() public view returns(uint) {\n        return address(reserveContractAddress).balance;\n    }\n\n    function getLiquidityContractBalance() public view returns(uint) {\n        return address(liquidityContractAddress).balance;\n    }\n\n    function getUserData() public view returns(UserData memory) {\n        require(\n            usersData[msg.sender].usersDataExists == true,\n            \"User data does not exists.\"\n        );\n        return usersData[msg.sender];\n    }\n\n    function getInvestmentEndingTime() public view returns(uint) {\n        return usersData[msg.sender].usersDataExists == true ?\n            usersData[msg.sender].investmenstEndingTime:\n            0;\n    }\n\n    function getUserMindpayTokenBalance() public view returns(uint) {\n        return usersData[msg.sender].usersDataExists == true ?\n            usersData[msg.sender].totalTokenAmount:\n            0;\n    }\n\n    function getTotalMindpayTokenSupply() public view returns(uint) {\n        return totalMindapayTokenAmount;\n    }\n\n    function getCurrentTime() public view returns(uint) {\n        return block.timestamp;\n    }\n}",
  "sourcePath": "/home/mikhil/job_assignments/mindeft/contracts/Investment.sol",
  "compiler": {
    "name": "solc",
    "version": "0.8.14+commit.80d49f37.Emscripten.clang"
  },
  "schemaVersion": "3.4.7",
  "updatedAt": "2022-05-20T04:58:50.368Z",
  "networkType": "ethereum",
  "devdoc": {
    "kind": "dev",
    "methods": {},
    "version": 1
  },
  "userdoc": {
    "kind": "user",
    "methods": {},
    "version": 1
  }
}