{
  "contractName": "Mindpay",
  "abi": [
    {
      "inputs": [],
      "stateMutability": "nonpayable",
      "type": "constructor"
    },
    {
      "anonymous": false,
      "inputs": [
        {
          "indexed": true,
          "internalType": "address",
          "name": "owner",
          "type": "address"
        },
        {
          "indexed": true,
          "internalType": "address",
          "name": "spender",
          "type": "address"
        },
        {
          "indexed": false,
          "internalType": "uint256",
          "name": "value",
          "type": "uint256"
        }
      ],
      "name": "Approval",
      "type": "event"
    },
    {
      "anonymous": false,
      "inputs": [
        {
          "indexed": true,
          "internalType": "address",
          "name": "from",
          "type": "address"
        },
        {
          "indexed": true,
          "internalType": "address",
          "name": "to",
          "type": "address"
        },
        {
          "indexed": false,
          "internalType": "uint256",
          "name": "value",
          "type": "uint256"
        }
      ],
      "name": "Transfer",
      "type": "event"
    },
    {
      "inputs": [
        {
          "internalType": "address",
          "name": "owner",
          "type": "address"
        },
        {
          "internalType": "address",
          "name": "spender",
          "type": "address"
        }
      ],
      "name": "allowance",
      "outputs": [
        {
          "internalType": "uint256",
          "name": "",
          "type": "uint256"
        }
      ],
      "stateMutability": "view",
      "type": "function"
    },
    {
      "inputs": [
        {
          "internalType": "address",
          "name": "spender",
          "type": "address"
        },
        {
          "internalType": "uint256",
          "name": "amount",
          "type": "uint256"
        }
      ],
      "name": "approve",
      "outputs": [
        {
          "internalType": "bool",
          "name": "",
          "type": "bool"
        }
      ],
      "stateMutability": "nonpayable",
      "type": "function"
    },
    {
      "inputs": [
        {
          "internalType": "address",
          "name": "account",
          "type": "address"
        }
      ],
      "name": "balanceOf",
      "outputs": [
        {
          "internalType": "uint256",
          "name": "",
          "type": "uint256"
        }
      ],
      "stateMutability": "view",
      "type": "function"
    },
    {
      "inputs": [],
      "name": "decimals",
      "outputs": [
        {
          "internalType": "uint8",
          "name": "",
          "type": "uint8"
        }
      ],
      "stateMutability": "view",
      "type": "function"
    },
    {
      "inputs": [
        {
          "internalType": "address",
          "name": "spender",
          "type": "address"
        },
        {
          "internalType": "uint256",
          "name": "subtractedValue",
          "type": "uint256"
        }
      ],
      "name": "decreaseAllowance",
      "outputs": [
        {
          "internalType": "bool",
          "name": "",
          "type": "bool"
        }
      ],
      "stateMutability": "nonpayable",
      "type": "function"
    },
    {
      "inputs": [
        {
          "internalType": "address",
          "name": "spender",
          "type": "address"
        },
        {
          "internalType": "uint256",
          "name": "addedValue",
          "type": "uint256"
        }
      ],
      "name": "increaseAllowance",
      "outputs": [
        {
          "internalType": "bool",
          "name": "",
          "type": "bool"
        }
      ],
      "stateMutability": "nonpayable",
      "type": "function"
    },
    {
      "inputs": [],
      "name": "name",
      "outputs": [
        {
          "internalType": "string",
          "name": "",
          "type": "string"
        }
      ],
      "stateMutability": "view",
      "type": "function"
    },
    {
      "inputs": [],
      "name": "owner",
      "outputs": [
        {
          "internalType": "address",
          "name": "",
          "type": "address"
        }
      ],
      "stateMutability": "view",
      "type": "function"
    },
    {
      "inputs": [],
      "name": "symbol",
      "outputs": [
        {
          "internalType": "string",
          "name": "",
          "type": "string"
        }
      ],
      "stateMutability": "view",
      "type": "function"
    },
    {
      "inputs": [],
      "name": "totalSupply",
      "outputs": [
        {
          "internalType": "uint256",
          "name": "",
          "type": "uint256"
        }
      ],
      "stateMutability": "view",
      "type": "function"
    },
    {
      "inputs": [
        {
          "internalType": "address",
          "name": "to",
          "type": "address"
        },
        {
          "internalType": "uint256",
          "name": "amount",
          "type": "uint256"
        }
      ],
      "name": "transfer",
      "outputs": [
        {
          "internalType": "bool",
          "name": "",
          "type": "bool"
        }
      ],
      "stateMutability": "nonpayable",
      "type": "function"
    },
    {
      "inputs": [
        {
          "internalType": "address",
          "name": "from",
          "type": "address"
        },
        {
          "internalType": "address",
          "name": "to",
          "type": "address"
        },
        {
          "internalType": "uint256",
          "name": "amount",
          "type": "uint256"
        }
      ],
      "name": "transferFrom",
      "outputs": [
        {
          "internalType": "bool",
          "name": "",
          "type": "bool"
        }
      ],
      "stateMutability": "nonpayable",
      "type": "function"
    },
    {
      "inputs": [
        {
          "internalType": "address",
          "name": "_account",
          "type": "address"
        },
        {
          "internalType": "uint256",
          "name": "_amount",
          "type": "uint256"
        }
      ],
      "name": "mintToken",
      "outputs": [],
      "stateMutability": "nonpayable",
      "type": "function"
    },
    {
      "inputs": [
        {
          "internalType": "address",
          "name": "_account",
          "type": "address"
        },
        {
          "internalType": "uint256",
          "name": "_amount",
          "type": "uint256"
        }
      ],
      "name": "approveOwner",
      "outputs": [],
      "stateMutability": "nonpayable",
      "type": "function"
    },
    {
      "inputs": [
        {
          "internalType": "address",
          "name": "_reserveContract",
          "type": "address"
        },
        {
          "internalType": "uint256",
          "name": "_amount",
          "type": "uint256"
        }
      ],
      "name": "approveReserveContract",
      "outputs": [],
      "stateMutability": "nonpayable",
      "type": "function"
    },
    {
      "inputs": [
        {
          "internalType": "address",
          "name": "_reserveContract",
          "type": "address"
        },
        {
          "internalType": "address",
          "name": "_stakingContract",
          "type": "address"
        },
        {
          "internalType": "uint256",
          "name": "_amount",
          "type": "uint256"
        }
      ],
      "name": "transferToStakingContract",
      "outputs": [],
      "stateMutability": "nonpayable",
      "type": "function"
    },
    {
      "inputs": [
        {
          "internalType": "address",
          "name": "_account",
          "type": "address"
        },
        {
          "internalType": "uint256",
          "name": "_amount",
          "type": "uint256"
        }
      ],
      "name": "burnToken",
      "outputs": [],
      "stateMutability": "nonpayable",
      "type": "function"
    }
  ],
  "bytecode": "0x60806040523480156200001157600080fd5b506040518060400160405280600781526020017f4d696e64706179000000000000000000000000000000000000000000000000008152506040518060400160405280600781526020017f4d494e445041590000000000000000000000000000000000000000000000000081525081600390805190602001906200009692919062000101565b508060049080519060200190620000af92919062000101565b505050600160058190555033600660006101000a81548173ffffffffffffffffffffffffffffffffffffffff021916908373ffffffffffffffffffffffffffffffffffffffff16021790555062000215565b8280546200010f90620001e0565b90600052602060002090601f0160209004810192826200013357600085556200017f565b82601f106200014e57805160ff19168380011785556200017f565b828001600101855582156200017f579182015b828111156200017e57825182559160200191906001019062000161565b5b5090506200018e919062000192565b5090565b5b80821115620001ad57600081600090555060010162000193565b5090565b7f4e487b7100000000000000000000000000000000000000000000000000000000600052602260045260246000fd5b60006002820490506001821680620001f957607f821691505b6020821081036200020f576200020e620001b1565b5b50919050565b611e7580620002256000396000f3fe608060405234801561001057600080fd5b506004361061010b5760003560e01c806379c65068116100a2578063a9059cbb11610071578063a9059cbb146102ce578063c30d1b2f146102fe578063d1df306c1461031a578063dd62ed3e14610336578063fc27c2cb146103665761010b565b806379c65068146102465780638da5cb5b1461026257806395d89b4114610280578063a457c2d71461029e5761010b565b806323b872dd116100de57806323b872dd14610198578063313ce567146101c857806339509351146101e657806370a08231146102165761010b565b806306fdde0314610110578063095ea7b31461012e57806318160ddd1461015e57806320d7ee9b1461017c575b600080fd5b610118610382565b604051610125919061146a565b60405180910390f35b61014860048036038101906101439190611525565b610414565b6040516101559190611580565b60405180910390f35b610166610437565b60405161017391906115aa565b60405180910390f35b61019660048036038101906101919190611525565b610441565b005b6101b260048036038101906101ad91906115c5565b610557565b6040516101bf9190611580565b60405180910390f35b6101d0610586565b6040516101dd9190611634565b60405180910390f35b61020060048036038101906101fb9190611525565b61058f565b60405161020d9190611580565b60405180910390f35b610230600480360381019061022b919061164f565b6105c6565b60405161023d91906115aa565b60405180910390f35b610260600480360381019061025b9190611525565b61060e565b005b61026a610701565b604051610277919061168b565b60405180910390f35b610288610727565b604051610295919061146a565b60405180910390f35b6102b860048036038101906102b39190611525565b6107b9565b6040516102c59190611580565b60405180910390f35b6102e860048036038101906102e39190611525565b610830565b6040516102f59190611580565b60405180910390f35b61031860048036038101906103139190611525565b610853565b005b610334600480360381019061032f9190611525565b610947565b005b610350600480360381019061034b91906116a6565b610a3a565b60405161035d91906115aa565b60405180910390f35b610380600480360381019061037b91906115c5565b610ac1565b005b60606003805461039190611715565b80601f01602080910402602001604051908101604052809291908181526020018280546103bd90611715565b801561040a5780601f106103df5761010080835404028352916020019161040a565b820191906000526020600020905b8154815290600101906020018083116103ed57829003601f168201915b5050505050905090565b60008061041f610bb6565b905061042c818585610bbe565b600191505092915050565b6000600254905090565b600260055403610486576040517f08c379a000000000000000000000000000000000000000000000000000000000815260040161047d90611792565b60405180910390fd5b60026005819055503373ffffffffffffffffffffffffffffffffffffffff16600660009054906101000a900473ffffffffffffffffffffffffffffffffffffffff1673ffffffffffffffffffffffffffffffffffffffff161461051e576040517f08c379a0000000000000000000000000000000000000000000000000000000008152600401610515906117fe565b60405180910390fd5b61054b82600660009054906101000a900473ffffffffffffffffffffffffffffffffffffffff1683610bbe565b60016005819055505050565b600080610562610bb6565b905061056f858285610d87565b61057a858585610e13565b60019150509392505050565b60006012905090565b60008061059a610bb6565b90506105bb8185856105ac8589610a3a565b6105b6919061184d565b610bbe565b600191505092915050565b60008060008373ffffffffffffffffffffffffffffffffffffffff1673ffffffffffffffffffffffffffffffffffffffff168152602001908152602001600020549050919050565b600260055403610653576040517f08c379a000000000000000000000000000000000000000000000000000000000815260040161064a90611792565b60405180910390fd5b60026005819055503373ffffffffffffffffffffffffffffffffffffffff16600660009054906101000a900473ffffffffffffffffffffffffffffffffffffffff1673ffffffffffffffffffffffffffffffffffffffff16146106eb576040517f08c379a00000000000000000000000000000000000000000000000000000000081526004016106e2906117fe565b60405180910390fd5b6106f58282611092565b60016005819055505050565b600660009054906101000a900473ffffffffffffffffffffffffffffffffffffffff1681565b60606004805461073690611715565b80601f016020809104026020016040519081016040528092919081815260200182805461076290611715565b80156107af5780601f10610784576101008083540402835291602001916107af565b820191906000526020600020905b81548152906001019060200180831161079257829003601f168201915b5050505050905090565b6000806107c4610bb6565b905060006107d28286610a3a565b905083811015610817576040517f08c379a000000000000000000000000000000000000000000000000000000000815260040161080e90611915565b60405180910390fd5b6108248286868403610bbe565b60019250505092915050565b60008061083b610bb6565b9050610848818585610e13565b600191505092915050565b600260055403610898576040517f08c379a000000000000000000000000000000000000000000000000000000000815260040161088f90611792565b60405180910390fd5b60026005819055503373ffffffffffffffffffffffffffffffffffffffff16600660009054906101000a900473ffffffffffffffffffffffffffffffffffffffff1673ffffffffffffffffffffffffffffffffffffffff1614610930576040517f08c379a0000000000000000000000000000000000000000000000000000000008152600401610927906117fe565b60405180910390fd5b61093b828383610bbe565b60016005819055505050565b60026005540361098c576040517f08c379a000000000000000000000000000000000000000000000000000000000815260040161098390611792565b60405180910390fd5b60026005819055503373ffffffffffffffffffffffffffffffffffffffff16600660009054906101000a900473ffffffffffffffffffffffffffffffffffffffff1673ffffffffffffffffffffffffffffffffffffffff1614610a24576040517f08c379a0000000000000000000000000000000000000000000000000000000008152600401610a1b906117fe565b60405180910390fd5b610a2e82826111f1565b60016005819055505050565b6000600160008473ffffffffffffffffffffffffffffffffffffffff1673ffffffffffffffffffffffffffffffffffffffff16815260200190815260200160002060008373ffffffffffffffffffffffffffffffffffffffff1673ffffffffffffffffffffffffffffffffffffffff16815260200190815260200160002054905092915050565b600260055403610b06576040517f08c379a0000000000000000000000000000000000000000000000000000000008152600401610afd90611792565b60405180910390fd5b60026005819055503373ffffffffffffffffffffffffffffffffffffffff16600660009054906101000a900473ffffffffffffffffffffffffffffffffffffffff1673ffffffffffffffffffffffffffffffffffffffff1614610b9e576040517f08c379a0000000000000000000000000000000000000000000000000000000008152600401610b95906117fe565b60405180910390fd5b610ba9838383610e13565b6001600581905550505050565b600033905090565b600073ffffffffffffffffffffffffffffffffffffffff168373ffffffffffffffffffffffffffffffffffffffff1603610c2d576040517f08c379a0000000000000000000000000000000000000000000000000000000008152600401610c24906119a7565b60405180910390fd5b600073ffffffffffffffffffffffffffffffffffffffff168273ffffffffffffffffffffffffffffffffffffffff1603610c9c576040517f08c379a0000000000000000000000000000000000000000000000000000000008152600401610c9390611a39565b60405180910390fd5b80600160008573ffffffffffffffffffffffffffffffffffffffff1673ffffffffffffffffffffffffffffffffffffffff16815260200190815260200160002060008473ffffffffffffffffffffffffffffffffffffffff1673ffffffffffffffffffffffffffffffffffffffff168152602001908152602001600020819055508173ffffffffffffffffffffffffffffffffffffffff168373ffffffffffffffffffffffffffffffffffffffff167f8c5be1e5ebec7d5bd14f71427d1e84f3dd0314c0f7b2291e5b200ac8c7c3b92583604051610d7a91906115aa565b60405180910390a3505050565b6000610d938484610a3a565b90507fffffffffffffffffffffffffffffffffffffffffffffffffffffffffffffffff8114610e0d5781811015610dff576040517f08c379a0000000000000000000000000000000000000000000000000000000008152600401610df690611aa5565b60405180910390fd5b610e0c8484848403610bbe565b5b50505050565b600073ffffffffffffffffffffffffffffffffffffffff168373ffffffffffffffffffffffffffffffffffffffff1603610e82576040517f08c379a0000000000000000000000000000000000000000000000000000000008152600401610e7990611b37565b60405180910390fd5b600073ffffffffffffffffffffffffffffffffffffffff168273ffffffffffffffffffffffffffffffffffffffff1603610ef1576040517f08c379a0000000000000000000000000000000000000000000000000000000008152600401610ee890611bc9565b60405180910390fd5b610efc8383836113c7565b60008060008573ffffffffffffffffffffffffffffffffffffffff1673ffffffffffffffffffffffffffffffffffffffff16815260200190815260200160002054905081811015610f82576040517f08c379a0000000000000000000000000000000000000000000000000000000008152600401610f7990611c5b565b60405180910390fd5b8181036000808673ffffffffffffffffffffffffffffffffffffffff1673ffffffffffffffffffffffffffffffffffffffff16815260200190815260200160002081905550816000808573ffffffffffffffffffffffffffffffffffffffff1673ffffffffffffffffffffffffffffffffffffffff1681526020019081526020016000206000828254611015919061184d565b925050819055508273ffffffffffffffffffffffffffffffffffffffff168473ffffffffffffffffffffffffffffffffffffffff167fddf252ad1be2c89b69c2b068fc378daa952ba7f163c4a11628f55a4df523b3ef8460405161107991906115aa565b60405180910390a361108c8484846113cc565b50505050565b600073ffffffffffffffffffffffffffffffffffffffff168273ffffffffffffffffffffffffffffffffffffffff1603611101576040517f08c379a00000000000000000000000000000000000000000000000000000000081526004016110f890611cc7565b60405180910390fd5b61110d600083836113c7565b806002600082825461111f919061184d565b92505081905550806000808473ffffffffffffffffffffffffffffffffffffffff1673ffffffffffffffffffffffffffffffffffffffff1681526020019081526020016000206000828254611174919061184d565b925050819055508173ffffffffffffffffffffffffffffffffffffffff16600073ffffffffffffffffffffffffffffffffffffffff167fddf252ad1be2c89b69c2b068fc378daa952ba7f163c4a11628f55a4df523b3ef836040516111d991906115aa565b60405180910390a36111ed600083836113cc565b5050565b600073ffffffffffffffffffffffffffffffffffffffff168273ffffffffffffffffffffffffffffffffffffffff1603611260576040517f08c379a000000000000000000000000000000000000000000000000000000000815260040161125790611d59565b60405180910390fd5b61126c826000836113c7565b60008060008473ffffffffffffffffffffffffffffffffffffffff1673ffffffffffffffffffffffffffffffffffffffff168152602001908152602001600020549050818110156112f2576040517f08c379a00000000000000000000000000000000000000000000000000000000081526004016112e990611deb565b60405180910390fd5b8181036000808573ffffffffffffffffffffffffffffffffffffffff1673ffffffffffffffffffffffffffffffffffffffff1681526020019081526020016000208190555081600260008282546113499190611e0b565b92505081905550600073ffffffffffffffffffffffffffffffffffffffff168373ffffffffffffffffffffffffffffffffffffffff167fddf252ad1be2c89b69c2b068fc378daa952ba7f163c4a11628f55a4df523b3ef846040516113ae91906115aa565b60405180910390a36113c2836000846113cc565b505050565b505050565b505050565b600081519050919050565b600082825260208201905092915050565b60005b8381101561140b5780820151818401526020810190506113f0565b8381111561141a576000848401525b50505050565b6000601f19601f8301169050919050565b600061143c826113d1565b61144681856113dc565b93506114568185602086016113ed565b61145f81611420565b840191505092915050565b600060208201905081810360008301526114848184611431565b905092915050565b600080fd5b600073ffffffffffffffffffffffffffffffffffffffff82169050919050565b60006114bc82611491565b9050919050565b6114cc816114b1565b81146114d757600080fd5b50565b6000813590506114e9816114c3565b92915050565b6000819050919050565b611502816114ef565b811461150d57600080fd5b50565b60008135905061151f816114f9565b92915050565b6000806040838503121561153c5761153b61148c565b5b600061154a858286016114da565b925050602061155b85828601611510565b9150509250929050565b60008115159050919050565b61157a81611565565b82525050565b60006020820190506115956000830184611571565b92915050565b6115a4816114ef565b82525050565b60006020820190506115bf600083018461159b565b92915050565b6000806000606084860312156115de576115dd61148c565b5b60006115ec868287016114da565b93505060206115fd868287016114da565b925050604061160e86828701611510565b9150509250925092565b600060ff82169050919050565b61162e81611618565b82525050565b60006020820190506116496000830184611625565b92915050565b6000602082840312156116655761166461148c565b5b6000611673848285016114da565b91505092915050565b611685816114b1565b82525050565b60006020820190506116a0600083018461167c565b92915050565b600080604083850312156116bd576116bc61148c565b5b60006116cb858286016114da565b92505060206116dc858286016114da565b9150509250929050565b7f4e487b7100000000000000000000000000000000000000000000000000000000600052602260045260246000fd5b6000600282049050600182168061172d57607f821691505b6020821081036117405761173f6116e6565b5b50919050565b7f5265656e7472616e637947756172643a207265656e7472616e742063616c6c00600082015250565b600061177c601f836113dc565b915061178782611746565b602082019050919050565b600060208201905081810360008301526117ab8161176f565b9050919050565b7f4f6e6c79206f776e657220697320616c6c6f7765640000000000000000000000600082015250565b60006117e86015836113dc565b91506117f3826117b2565b602082019050919050565b60006020820190508181036000830152611817816117db565b9050919050565b7f4e487b7100000000000000000000000000000000000000000000000000000000600052601160045260246000fd5b6000611858826114ef565b9150611863836114ef565b9250827fffffffffffffffffffffffffffffffffffffffffffffffffffffffffffffffff038211156118985761189761181e565b5b828201905092915050565b7f45524332303a2064656372656173656420616c6c6f77616e63652062656c6f7760008201527f207a65726f000000000000000000000000000000000000000000000000000000602082015250565b60006118ff6025836113dc565b915061190a826118a3565b604082019050919050565b6000602082019050818103600083015261192e816118f2565b9050919050565b7f45524332303a20617070726f76652066726f6d20746865207a65726f2061646460008201527f7265737300000000000000000000000000000000000000000000000000000000602082015250565b60006119916024836113dc565b915061199c82611935565b604082019050919050565b600060208201905081810360008301526119c081611984565b9050919050565b7f45524332303a20617070726f766520746f20746865207a65726f20616464726560008201527f7373000000000000000000000000000000000000000000000000000000000000602082015250565b6000611a236022836113dc565b9150611a2e826119c7565b604082019050919050565b60006020820190508181036000830152611a5281611a16565b9050919050565b7f45524332303a20696e73756666696369656e7420616c6c6f77616e6365000000600082015250565b6000611a8f601d836113dc565b9150611a9a82611a59565b602082019050919050565b60006020820190508181036000830152611abe81611a82565b9050919050565b7f45524332303a207472616e736665722066726f6d20746865207a65726f20616460008201527f6472657373000000000000000000000000000000000000000000000000000000602082015250565b6000611b216025836113dc565b9150611b2c82611ac5565b604082019050919050565b60006020820190508181036000830152611b5081611b14565b9050919050565b7f45524332303a207472616e7366657220746f20746865207a65726f206164647260008201527f6573730000000000000000000000000000000000000000000000000000000000602082015250565b6000611bb36023836113dc565b9150611bbe82611b57565b604082019050919050565b60006020820190508181036000830152611be281611ba6565b9050919050565b7f45524332303a207472616e7366657220616d6f756e742065786365656473206260008201527f616c616e63650000000000000000000000000000000000000000000000000000602082015250565b6000611c456026836113dc565b9150611c5082611be9565b604082019050919050565b60006020820190508181036000830152611c7481611c38565b9050919050565b7f45524332303a206d696e7420746f20746865207a65726f206164647265737300600082015250565b6000611cb1601f836113dc565b9150611cbc82611c7b565b602082019050919050565b60006020820190508181036000830152611ce081611ca4565b9050919050565b7f45524332303a206275726e2066726f6d20746865207a65726f2061646472657360008201527f7300000000000000000000000000000000000000000000000000000000000000602082015250565b6000611d436021836113dc565b9150611d4e82611ce7565b604082019050919050565b60006020820190508181036000830152611d7281611d36565b9050919050565b7f45524332303a206275726e20616d6f756e7420657863656564732062616c616e60008201527f6365000000000000000000000000000000000000000000000000000000000000602082015250565b6000611dd56022836113dc565b9150611de082611d79565b604082019050919050565b60006020820190508181036000830152611e0481611dc8565b9050919050565b6000611e16826114ef565b9150611e21836114ef565b925082821015611e3457611e3361181e565b5b82820390509291505056fea2646970667358221220e102bd7fbdac56640508a06623bc7bb03706bd9c30b9fb63088eba26eea3b5c064736f6c634300080e0033",
  "immutableReferences": {},
  "source": "// SPDX-License-Identifier: MIT\npragma solidity >=0.8.9;\n\nimport \"../node_modules/@openzeppelin/contracts/token/ERC20/ERC20.sol\";\nimport \"../node_modules/@openzeppelin/contracts/security/ReentrancyGuard.sol\";\n\ncontract Mindpay is ERC20, ReentrancyGuard {\n    address public owner;\n\n    constructor() ERC20(\"Mindpay\", \"MINDPAY\") {\n        owner = msg.sender;\n    }\n\n    modifier onlyOwner() {\n        require(owner == msg.sender, \"Only owner is allowed\");\n        _;\n    }\n\n    function mintToken(\n        address _account,\n        uint _amount\n    ) external nonReentrant onlyOwner {\n        _mint(_account, _amount);\n    }\n\n    function approveOwner(\n        address _account,\n        uint _amount\n    ) external nonReentrant onlyOwner {\n        _approve(_account, owner, _amount);\n    }\n\n    function approveReserveContract(\n        address _reserveContract,\n        uint _amount\n    ) external nonReentrant onlyOwner {\n        _approve(_reserveContract, _reserveContract, _amount);\n    }\n\n    function transferToStakingContract(\n        address _reserveContract,\n        address _stakingContract,\n        uint _amount\n    ) external nonReentrant onlyOwner {\n        _transfer(_reserveContract, _stakingContract, _amount);\n    }\n\n    function burnToken(\n        address _account,\n        uint _amount\n    ) external nonReentrant onlyOwner {\n        _burn(_account, _amount);\n    }\n}",
  "sourcePath": "/home/mikhil/job_assignments/mindeft/contracts/Mindpay.sol",
  "compiler": {
    "name": "solc",
    "version": "0.8.14+commit.80d49f37.Emscripten.clang"
  },
  "schemaVersion": "3.4.4",
  "updatedAt": "2022-05-19T15:22:17.228Z",
  "devdoc": {
    "kind": "dev",
    "methods": {
      "allowance(address,address)": {
        "details": "See {IERC20-allowance}."
      },
      "approve(address,uint256)": {
        "details": "See {IERC20-approve}. NOTE: If `amount` is the maximum `uint256`, the allowance is not updated on `transferFrom`. This is semantically equivalent to an infinite approval. Requirements: - `spender` cannot be the zero address."
      },
      "balanceOf(address)": {
        "details": "See {IERC20-balanceOf}."
      },
      "decimals()": {
        "details": "Returns the number of decimals used to get its user representation. For example, if `decimals` equals `2`, a balance of `505` tokens should be displayed to a user as `5.05` (`505 / 10 ** 2`). Tokens usually opt for a value of 18, imitating the relationship between Ether and Wei. This is the value {ERC20} uses, unless this function is overridden; NOTE: This information is only used for _display_ purposes: it in no way affects any of the arithmetic of the contract, including {IERC20-balanceOf} and {IERC20-transfer}."
      },
      "decreaseAllowance(address,uint256)": {
        "details": "Atomically decreases the allowance granted to `spender` by the caller. This is an alternative to {approve} that can be used as a mitigation for problems described in {IERC20-approve}. Emits an {Approval} event indicating the updated allowance. Requirements: - `spender` cannot be the zero address. - `spender` must have allowance for the caller of at least `subtractedValue`."
      },
      "increaseAllowance(address,uint256)": {
        "details": "Atomically increases the allowance granted to `spender` by the caller. This is an alternative to {approve} that can be used as a mitigation for problems described in {IERC20-approve}. Emits an {Approval} event indicating the updated allowance. Requirements: - `spender` cannot be the zero address."
      },
      "name()": {
        "details": "Returns the name of the token."
      },
      "symbol()": {
        "details": "Returns the symbol of the token, usually a shorter version of the name."
      },
      "totalSupply()": {
        "details": "See {IERC20-totalSupply}."
      },
      "transfer(address,uint256)": {
        "details": "See {IERC20-transfer}. Requirements: - `to` cannot be the zero address. - the caller must have a balance of at least `amount`."
      },
      "transferFrom(address,address,uint256)": {
        "details": "See {IERC20-transferFrom}. Emits an {Approval} event indicating the updated allowance. This is not required by the EIP. See the note at the beginning of {ERC20}. NOTE: Does not update the allowance if the current allowance is the maximum `uint256`. Requirements: - `from` and `to` cannot be the zero address. - `from` must have a balance of at least `amount`. - the caller must have allowance for ``from``'s tokens of at least `amount`."
      }
    },
    "version": 1
  },
  "userdoc": {
    "kind": "user",
    "methods": {},
    "version": 1
  }
}