{
  "contractName": "Reserve",
  "abi": [
    {
      "inputs": [],
      "stateMutability": "nonpayable",
      "type": "constructor"
    },
    {
      "stateMutability": "payable",
      "type": "fallback"
    },
    {
      "inputs": [],
      "name": "owner",
      "outputs": [
        {
          "internalType": "address",
          "name": "",
          "type": "address"
        }
      ],
      "stateMutability": "view",
      "type": "function"
    },
    {
      "stateMutability": "payable",
      "type": "receive"
    },
    {
      "inputs": [
        {
          "internalType": "address",
          "name": "_account",
          "type": "address"
        },
        {
          "internalType": "uint256",
          "name": "_amount",
          "type": "uint256"
        }
      ],
      "name": "returnInvestment",
      "outputs": [],
      "stateMutability": "nonpayable",
      "type": "function"
    },
    {
      "inputs": [
        {
          "internalType": "address",
          "name": "_liquidityContract",
          "type": "address"
        },
        {
          "internalType": "uint256",
          "name": "_amount",
          "type": "uint256"
        }
      ],
      "name": "transferToLiquidity",
      "outputs": [],
      "stateMutability": "nonpayable",
      "type": "function"
    },
    {
      "inputs": [],
      "name": "getContractBalance",
      "outputs": [
        {
          "internalType": "uint256",
          "name": "",
          "type": "uint256"
        }
      ],
      "stateMutability": "view",
      "type": "function"
    }
  ],
  "bytecode": "0x608060405234801561001057600080fd5b50600160008190555033600160006101000a81548173ffffffffffffffffffffffffffffffffffffffff021916908373ffffffffffffffffffffffffffffffffffffffff1602179055506105ce806100696000396000f3fe6080604052600436106100435760003560e01c8063638743951461004c57806364d08bc1146100755780636f9fb98a1461009e5780638da5cb5b146100c95761004a565b3661004a57005b005b34801561005857600080fd5b50610073600480360381019061006e919061041b565b6100f4565b005b34801561008157600080fd5b5061009c6004803603810190610097919061041b565b610224565b005b3480156100aa57600080fd5b506100b3610354565b6040516100c0919061046a565b60405180910390f35b3480156100d557600080fd5b506100de61035c565b6040516100eb9190610494565b60405180910390f35b600260005403610139576040517f08c379a00000000000000000000000000000000000000000000000000000000081526004016101309061050c565b60405180910390fd5b60026000819055503373ffffffffffffffffffffffffffffffffffffffff16600160009054906101000a900473ffffffffffffffffffffffffffffffffffffffff1673ffffffffffffffffffffffffffffffffffffffff16146101d1576040517f08c379a00000000000000000000000000000000000000000000000000000000081526004016101c890610578565b60405180910390fd5b8173ffffffffffffffffffffffffffffffffffffffff166108fc829081150290604051600060405180830381858888f19350505050158015610217573d6000803e3d6000fd5b5060016000819055505050565b600260005403610269576040517f08c379a00000000000000000000000000000000000000000000000000000000081526004016102609061050c565b60405180910390fd5b60026000819055503373ffffffffffffffffffffffffffffffffffffffff16600160009054906101000a900473ffffffffffffffffffffffffffffffffffffffff1673ffffffffffffffffffffffffffffffffffffffff1614610301576040517f08c379a00000000000000000000000000000000000000000000000000000000081526004016102f890610578565b60405180910390fd5b8173ffffffffffffffffffffffffffffffffffffffff166108fc829081150290604051600060405180830381858888f19350505050158015610347573d6000803e3d6000fd5b5060016000819055505050565b600047905090565b600160009054906101000a900473ffffffffffffffffffffffffffffffffffffffff1681565b600080fd5b600073ffffffffffffffffffffffffffffffffffffffff82169050919050565b60006103b282610387565b9050919050565b6103c2816103a7565b81146103cd57600080fd5b50565b6000813590506103df816103b9565b92915050565b6000819050919050565b6103f8816103e5565b811461040357600080fd5b50565b600081359050610415816103ef565b92915050565b6000806040838503121561043257610431610382565b5b6000610440858286016103d0565b925050602061045185828601610406565b9150509250929050565b610464816103e5565b82525050565b600060208201905061047f600083018461045b565b92915050565b61048e816103a7565b82525050565b60006020820190506104a96000830184610485565b92915050565b600082825260208201905092915050565b7f5265656e7472616e637947756172643a207265656e7472616e742063616c6c00600082015250565b60006104f6601f836104af565b9150610501826104c0565b602082019050919050565b60006020820190508181036000830152610525816104e9565b9050919050565b7f4f6e6c79206f776e657220697320616c6c6f7765640000000000000000000000600082015250565b60006105626015836104af565b915061056d8261052c565b602082019050919050565b6000602082019050818103600083015261059181610555565b905091905056fea26469706673582212206d32cc5d87b763ca4e04e781cdb8117ae2023a97db98266c329d7be5c56ab21264736f6c634300080e0033",
  "immutableReferences": {},
  "source": "// SPDX-License-Identifier: MIT\npragma solidity >=0.8.9;\n\nimport \"../node_modules/@openzeppelin/contracts/security/ReentrancyGuard.sol\";\n\ncontract Reserve is ReentrancyGuard {\n    address public owner;\n\n    constructor() {\n        owner = msg.sender;\n    }\n\n    modifier onlyOwner() {\n        require(owner == msg.sender, \"Only owner is allowed\");\n        _;\n    }\n\n    fallback() external payable {}\n\n    receive() external payable {}\n\n    function returnInvestment(\n        address _account,\n        uint _amount\n    ) external nonReentrant onlyOwner {\n        payable(_account).transfer(_amount);\n    }\n\n    function transferToLiquidity(\n        address _liquidityContract,\n        uint _amount\n    ) external nonReentrant onlyOwner {\n        payable(_liquidityContract).transfer(_amount);\n    }\n\n    function getContractBalance() public view returns(uint256) {\n        return address(this).balance;\n    }\n}",
  "sourcePath": "/home/mikhil/job_assignments/mindeft/contracts/Reserve.sol",
  "compiler": {
    "name": "solc",
    "version": "0.8.14+commit.80d49f37.Emscripten.clang"
  },
  "schemaVersion": "3.4.4",
  "updatedAt": "2022-05-19T15:22:17.236Z",
  "devdoc": {
    "kind": "dev",
    "methods": {},
    "version": 1
  },
  "userdoc": {
    "kind": "user",
    "methods": {},
    "version": 1
  }
}